:020000040800F2
:10000000E0300020F5010008D71D0008C91A0008DB
:100010006D1D0008790300088954000800000000E5
:100020000000000000000000000000001D4D00085E
:100030003104000800000000FB020008214D000808
:100040002B0200082B0200082B0200082B020008DC
:100050002B0200082B0200082B0200082B020008CC
:100060002B0200082B0200082B0200082B020008BC
:100070002B0200082B0200082B0200082B020008AC
:100080002B0200082B0200085D0300082B02000869
:100090002B0200082B0200082B0200082B0200088C
:1000A0002B0200082B0200082B0200082B0200087C
:1000B0002B020008754E00082B0200082B020008D6
:1000C0002B0200082B0200082B0200082B0200085C
:1000D0002B020008B1530008F953000841540008EE
:1000E0002B0200082B0200082B0200082B0200083C
:1000F0002B0200082B0200082B0200082B0200082C
:100100002B0200082B0200082B0200082B0200081B
:100110002B0200082B0200082B0200082B0200080B
:10012000210400082B0200082B0200082B02000803
:100130002B0200082B0200082B0200082B020008EB
:100140002B0200082B0200082B0200082B020008DB
:100150002B0200082B0200082B0200082B020008CB
:100160002B0200082B0200082B0200082B020008BB
:100170002B0200082B0200082B02000800000000E0
:100180002B0200082B0200082B0200082B0200089B
:100190002B0200082B0200082B0200082B0200088B
:1001A0002B0200082B0200082B020008DFF80CD0FD
:1001B00000F042F8004800474D560008E0300020AB
:1001C00072B6704762B67047EFF3108072B6704730
:1001D00080F31088704730BF704720BF7047B0FA77
:1001E00080F0704790FAA0F0B0FA80F0704790FA73
:1001F000A0F070470D488047016841F4700101602C
:10020000BFF34F8FDFF82800016821F04041016003
:10021000BFF36F8F07480047FEE7FEE7FEE7FEE704
:10022000FEE7FEE7FEE7FEE7FEE7FEE7114E000809
:1002300034EF00E0AD010008064C074D06E0E06831
:1002400040F0010394E8070098471034AC42F6D31D
:10025000FFF7B0FFDC590008FC59000830B58C18D6
:1002600010F8012B12F00F0301D110F8013B120915
:1002700006D110F8012B03E010F8015B01F8015BD7
:100280005B1EF9D101E001F8013B521EFBD1A142F6
:10029000E6D3002030BD0000EFF3098141B1F1EE5B
:1002A000101A40F8041D20ED200A24490A68106045
:1002B0007047B0EC200A02C8E1EE101A20490A6823
:1002C000106070471F484FF0FF010170002080F35D
:1002D00009881D48016881F308881C484FF0805147
:1002E000016062B6FEE719484FF080510160704727
:1002F00016484FF080510160704772B6EFF30980E5
:1003000028B1203880E8F00F0C490968086000B572
:100310000F4880475DF804EB0E480F490A780270D9
:10032000064807490A680260106890E8F00F20301C
:1003300080F309884EF0F40E62B67047D8000020B2
:10034000DC00002022ED00E01000002004ED00E0C1
:10035000A5320008560000205700002010B50248C2
:1003600000F06CF810BD0000481D002010B500F032
:1003700065FD0446204610BD00BFFEE710B500F045
:100380001FF800F019F810BD10B5002400BF00BF21
:10039000FFF71AFF044600BF00BF1021054801F017
:1003A000E7FC00BF00BF2046FFF712FF00BF00BF01
:1003B00010BD00008401002010B5FFF7E5FF10BD5F
:1003C00010B500200249086000F00AF810BD0000D6
:1003D0000C00002001490860704700000C0000205C
:1003E00010B5FFF7C3FF04460848006840F080706E
:1003F000064908600020064948600846006840F049
:10040000010008602046FFF7E5FF10BDFCED00E0AD
:10041000001000E00149486870470000001000E04B
:1004200010B5024800F0DAF810BD0000901D002061
:10043000704700BFFEE770477047704770B50446CD
:100440000025002620680068C0F340052068406849
:10045000C0F3401695B38EB3206C00F0100018B9AD
:10046000206C40F4007020642068806800F04050E8
:10047000E8B9A069D8B92068C06A00F4700020B15A
:100480002068806800F4806088B92068406820F0A7
:10049000200021684860206C20F480702064206C6B
:1004A00000F4805018B9206C40F001002064204610
:1004B000FFF7C2FF6FF01200216808602068006833
:1004C000C0F3800520684068C0F3C016E5B3DEB312
:1004D000206C00F0100018B9206C40F4005020642B
:1004E0002068806800F4401038BB2068806B00F4FE
:1004F000401020B12068806800F48060E8B920686E
:10050000406800F48060C0B92068806800F0405006
:1005100098B9A06988B92068406820F080002168F7
:100520004860206C20F480502064206C00F48070BF
:1005300018B9206C40F0010020642046FFF77BFFD3
:100540006FF00C00216808602068006800F0010569
:1005500020684068C0F3801685B17EB120680068CD
:1005600000F0010050B1206C40F48030206420463F
:1005700000F01EF86FF00100216808602068006834
:10058000C0F3401520684068C0F380667DB176B145
:10059000606C40F0020060646FF020002168086029
:1005A0002046FFF74AFF6FF020002168086070BD09
:1005B0007047014691F83500022803D08020486535
:1005C00001207047052081F835000868006820F098
:1005D00001000A6810600020F3E70000F8B5044647
:1005E000002000908D4800684FF41651B0FBF1F7E1
:1005F000A56D2E6894F85C1008208840304098B1B2
:100600002068006800F0040070B12068006820F0E5
:1006100004002168086094F85C1008208840A860F5
:10062000606D40F00100606594F85C107C48884083
:10063000304068B12068406900F0800040B194F813
:100640005C1077488840A860606D40F002006065EB
:1006500094F85C107248C01C8840304070B120682B
:10066000006800F0020048B194F85C106C48C01CAF
:100670008840A860606D40F00400606594F85C10EC
:1006800010208840304078B32068006800F00800EF
:1006900050B394F85C1010208840A860206800686F
:1006A00000F4802080B12068006800F4002028B9A0
:1006B000206CC8B12046216C884715E0A06C98B129
:1006C0002046A16C88470FE02068006800F4807025
:1006D00028B92068006820F0080021680860206CB4
:1006E00010B12046216C884794F85C102020884087
:1006F0003040002865D02068006800F01000002815
:100700005FD094F85C1020208840A86094F83500F1
:10071000052828D12068006820F0160021680860AC
:100720002068406920F0800021684861206C08B989
:10073000A06C28B12068006820F0080021680860DB
:1007400094F85C103F208840A86000BF002084F827
:10075000340000BF012084F83500206D10B1204620
:10076000216D8847F8BD2068006800F4802080B1C2
:100770002068006800F4002028B9606C10B12046A1
:10078000616C88471DE0E06BD8B12046E16B88477B
:1007900017E02068006800F4807068B9206800687D
:1007A00020F010002168086000BF002084F83400A9
:1007B00000BF012084F83500E06B10B12046E16BEA
:1007C0008847606D38B3606D00F00100F0B105201E
:1007D00084F835002068006820F001002168086076
:1007E00000BF0098401C0090B84200D905E0206886
:1007F000006800F001000028F3D100BF00BF002016
:1008000084F8340000BF012084F83500E06C10B19A
:100810002046E16C884700BFA4E7000000000020EC
:1008200001008000F8B502460B4600250024002098
:100830000021E6E0012606FA01F51E6806EA050435
:10084000AC4273D15E68022E02D05E68122E13D1C4
:10085000CF0802F1200656F827004E07F70E0F26A4
:10086000BE40B0434F07FF0E1E69BE403043CF0865
:1008700002F1200646F8270010684F000326BE400C
:10088000B0431E7906F003064F00BE4030431060AF
:100890005E68012E08D05E68022E05D05E68112EBB
:1008A00002D05E68122E13D190684F000326BE401E
:1008B000B0434F00DE68BE40304390605068012670
:1008C0008E40B0431E79C6F300168E403043506010
:1008D000D0684F000326BE40B0434F009E68BE4024
:1008E0003043D0605E6806F08056B6F1805FA8D1D4
:1008F00000BF00260096454E366846F48046434FBA
:100900003E603E46366806F48046009600BF00BF53
:100910003F4E8F0856F827008E07370F0F26BE4030
:10092000B0433C4EB24202D100262EE068E03A4E7F
:10093000B24201D1012628E0384EB24201D102264E
:1009400023E0374EB24201D103261EE0354EB242BB
:1009500001D1042619E0344EB24201D1052614E03B
:10096000324EB24201D106260FE0314EB24201D1E1
:1009700007260AE02F4EB24201D1082605E02E4E8E
:10098000B24201D1092600E00A268F073F0FBE4080
:1009900030431F4E8F0846F82700284E3068A0438A
:1009A0005E6806F48036B6F5803F00D12043234EC2
:1009B0003060361D3068A0435E6806F40036B6F538
:1009C000003F00D120431D4E361D3060361D30687B
:1009D000A0435E6806F48016B6F5801F00D1204360
:1009E000164E08363060361D3068A0435E6806F447
:1009F0000016B6F5001F00D12043104E0C363060B3
:100A0000491C1029FFF416AFF8BD0000443802401D
:100A10000838014000000240000402400008024083
:100A2000000C024000100240001402400018024076
:100A3000001C02400020024000240240003C014013
:100A40000AB1816101E00B048361704701480068CD
:100A500070470000E000002002480068401C014987
:100A600008607047E000002010B50D48006840F4B1
:100A700000700B4908600846006840F48060086018
:100A80000846006840F480700860032000F088F891
:100A9000002000F007F800F019F8002010BD000059
:100AA000003C024070B50446074800684FF47A7174
:100AB000B0FBF1F5284600F02FFC00222146501E25
:100AC00000F02FF8002070BD0000002010B50320BA
:100AD00000F066F8002211466FF00B0000F021F8DC
:100AE000002211466FF00A0000F01BF800221146A8
:100AF0006FF0090000F015F800221146501F00F0B9
:100B000010F800221146101F00F00BF800221146C9
:100B1000901E00F006F800221146501E00F001F869
:100B200010BD2DE9F05F80460D461646002701F006
:100B300053F9074639462A46334601F00700C0F10B
:100B4000070ABAF1040F02D94FF0040A01E0C0F11C
:100B5000070AD14600F1040ABAF1070F02D24FF09A
:100B6000000A01E0A0F1030AD4464FF0010A0AFA94
:100B700009FAAAF1010A0AEA020A0AFA0CFA4FF083
:100B8000010B0BFA0CFBABF1010B0BEA030B4AEA6E
:100B90000B042146404601F027F9BDE8F09F000014
:100BA00000BF00F00702064B19684FF6FF0319401B
:100BB000044B0B4343EA0221014B196000BF70470D
:100BC0000CED00E00000FA0538B5002400BF00205D
:100BD00000902348006840F0805021490860084692
:100BE000006800F08050009000BF00BF01200104A9
:100BF00091FAA1F1B1FA81F11A4A42F82100FFF706
:100C000025FF044607E0FFF721FF001BB0F57A7FC0
:100C100001D9032038BD1448406800F48030B0F595
:100C2000803FF0D10120410491FAA1F1B1FA81F1A4
:100C30000C4A42F82100FFF709FF044607E0FFF7DE
:100C400005FF001BB0F57A7F01D90320E2E70648D3
:100C5000406800F40030B0F5003FF0D10020D9E743
:100C60004038024000000E420070004070B504465B
:100C70000D4600266D48006800F00F00A84209D21A
:100C80006A490D700846006800F00F00A84201D0C4
:100C9000012070BD207800F00200022807D16448CE
:100CA000006820F0F000A1680843614908602078DE
:100CB00000F00100002877D06068012807D15C4867
:100CC00008380068C0F34040B8B90120E1E7606827
:100CD000022802D06068032807D155480838006808
:100CE000C0F3406048B90120D3E751480838006894
:100CF000C0F3400008B90120CBE74D48006820F060
:100D00000300616808434A490860FFF79FFE0646F2
:100D10006068012810D108E0FFF798FE801B41F2BF
:100D20008831884201D90320B3E74148006800F0C8
:100D30000C000428F0D137E06068022810D108E0E8
:100D4000FFF784FE801B41F28831884201D90320DD
:100D50009FE73748006800F00C000828F0D123E036
:100D60006068032810D108E0FFF770FE801B41F295
:100D70008831884201D903208BE72D48006800F0B4
:100D80000C000C28F0D10FE008E0FFF75FFE801B9D
:100D900041F28831884201D903207AE7244800686B
:100DA00000F00C000028F0D12048006800F00F008F
:100DB000A84209D91D490D700846006800F00F00CF
:100DC000A84201D0012064E7207800F00400042844
:100DD00007D11748006820F4E050E168084314493F
:100DE0000860207800F00800082808D11048006842
:100DF00020F46040216940EAC1000D49086000F01C
:100E00004FF80B49096801F0F001F02292FAA2F2C2
:100E1000B2FA82F2D140074A515CC84006490860E4
:100E20000020FFF73FFE002033E70000003C0240B7
:100E300008380240CC590008000000200148006832
:100E4000704700000000002000B5FFF7F7FF0749DA
:100E5000096801F4E0514FF4E05292FAA2F2B2FABA
:100E600082F2D140024A515CC84000BD08380240BD
:100E7000CC59000800B5FFF7E1FF0749096801F404
:100E800060414FF4604292FAA2F2B2FA82F2D1408B
:100E9000024A515CC84000BD08380240CC590008E5
:100EA00070B50021002200230020274C246804F0A4
:100EB0000C0424B1042C04D0082C41D103E02348B5
:100EC00040E023483EE0204C241F246804F03F010A
:100ED0001D4C241F246804F4800484B11C4CB4FB12
:100EE000F1F5194C241F246847F6C076344096FA71
:100EF000A6F6B6FA86F6F44005FB04F20FE0134CB2
:100F0000B4FBF1F5104C241F246847F6C07634403A
:100F100096FAA6F6B6FA86F6F44005FB04F20A4CF9
:100F2000241F246804F440344FF4403595FAA5F5A5
:100F3000B5FA85F5EC40641C6300B2FBF3F001E008
:100F4000024800BF00BF70BD083802400024F40012
:100F500000127A0038B504460025207800F0010020
:100F6000002848D0DE48006800F00C0004280DD0AE
:100F7000DB48006800F00C00082811D1D848001F99
:100F8000006800F48000B0F5800F09D1D44808381B
:100F90000068C0F3404070B3606860BB012038BD9A
:100FA0002079CF49891F0870606890B1FFF74EFD26
:100FB000054606E0FFF74AFD401B642801D90320DF
:100FC000EDE7C74808380068C0F340400028F1D07A
:100FD00011E0FFF73BFD054606E0FFF737FD401B3C
:100FE000642801D90320DAE7BD4808380068C0F357
:100FF00040400028F1D1207800F00200022869D199
:10100000B748006800F00C0058B1B548006800F01F
:101010000C00082821D1B248001F006800F48000AD
:10102000D8B9AF4808380068C0F3400020B1E06884
:10103000012801D00120B2E7A9480838006820F053
:10104000F800F82292FAA2F2B2FA82F221699140F3
:101050000843A349083908603CE0E06828B3012050
:10106000A0490860FFF7F2FC054606E0FFF7EEFC3A
:10107000401B022801D9032091E7994808380068ED
:10108000C0F340000028F1D095480838006820F0EF
:10109000F800F82292FAA2F2B2FA82F221699140A3
:1010A00008438F490839086014E000208D49086022
:1010B000FFF7CCFC054606E0FFF7C8FC401B022802
:1010C00001D903206BE7864808380068C0F3400068
:1010D0000028F1D1207800F0080008282CD16069A0
:1010E000A8B1012080490860FFF7B0FC054606E082
:1010F000FFF7ACFC401B022801D903204FE77848DA
:101100006C300068C0F340000028F1D014E00020EB
:1011100075490860FFF79AFC054606E0FFF796FC64
:10112000401B022801D9032039E76D486C30006864
:10113000C0F340000028F1D1207800F0040004281A
:1011400057D100BF0020009065483830006840F05B
:1011500080506349383108600846006800F08050CC
:10116000009000BF00BF6148006840F480705F4994
:101170000860FFF76BFC054606E0FFF767FC401BC5
:10118000022801D903200AE75848006800F480705B
:101190000028F2D0207A524968310870A068A0B1C6
:1011A000FFF754FC054608E0FFF750FC401B41F2F6
:1011B0008831884201D90320F1E649486830006847
:1011C000C0F340000028EFD013E0FFF73FFC0546D6
:1011D00008E0FFF73BFC401B41F28831884201D90F
:1011E0000320DCE63E4868300068C0F34000002879
:1011F000EFD1A069F0B33A48006800F00C0008286D
:1012000069D0A069022850D1002036490866FFF74E
:101210001DFC054606E0FFF719FC401B022801D91A
:101220000320BCE62E4808380068C0F34060002860
:10123000F1D1D4E90701084347F6C07292FAA2F24D
:10124000B2FA82F2616A914008430122A16AC2EBBC
:1012500051014FF4403292FAA2F2B2FA82F2914076
:1012600008434FF0706292FAA2F2B2FA82F2E16A97
:10127000914000E031E008431949091F086001204E
:1012800018490866FFF7E2FB054606E0FFF7DEFBBC
:10129000401B022801D9032081E611480838006864
:1012A000C0F340600028F1D017E000200D49086627
:1012B000FFF7CCFB054606E0FFF7C8FB401B022802
:1012C00001D903206BE6064808380068C0F3406087
:1012D0000028F1D101E0012061E600205FE6000076
:1012E0000838024000004742800E4742007000402C
:1012F000042808D14FF0E021096941F004014FF0C2
:10130000E022116107E04FF0E021096921F00401BA
:101310004FF0E0221161704770B504462546681E03
:10132000B0F1807F01D301200FE0681E4FF0E02173
:1013300048610F214FF0FF3000F056FD00204FF0C4
:10134000E021886107200861002070BD7047704768
:10135000704710B5044620680069C0F34000D8B15A
:101360002068C068C0F34000B0B16FF0020021688F
:101370000861012020762068806900F0030018B120
:101380002046FFF7E5FF05E0204600F0ADF82046D7
:1013900000F0ABF80020207620680069C0F38000E0
:1013A000D8B12068C068C0F38000B0B16FF004000D
:1013B00021680861022020762068806900F440706E
:1013C00018B12046FFF7C4FF05E0204600F08CF876
:1013D000204600F08AF80020207620680069C0F3DB
:1013E000C000D8B12068C068C0F3C000B0B16FF0D1
:1013F000080021680861042020762068C06900F098
:10140000030018B12046FFF7A3FF05E0204600F0D7
:101410006BF8204600F069F800202076206800690B
:10142000C0F30010D8B12068C068C0F30010B0B19C
:101430006FF0100021680861082020762068C069DC
:1014400000F4407018B12046FFF782FF05E0204607
:1014500000F04AF8204600F048F800202076206886
:10146000006900F0010058B12068C06800F0010078
:1014700030B16FF0010021680861204600F036F8B5
:1014800020680069C0F3C01058B12068C068C0F37C
:10149000C01030B16FF08000216808612046FFF76E
:1014A00055FF20680069C0F3801058B12068C068FB
:1014B000C0F3801030B16FF0400021680861204611
:1014C00000F02AF820680069C0F3401058B1206885
:1014D000C068C0F3401030B16FF02000216808618F
:1014E0002046FFF734FF10BD70477047014608489B
:1014F00081420BD1002007E0064A32F81020521C2E
:10150000044B23F81020401C0228F5DB7047000034
:101510000C1D0020F8000020704770470146002293
:10152000002391F8392091F83A3042EA03007047DD
:101530002DE9F0470446206805682068C6682068E1
:1015400047694FF00008C14605F00F08B8F1000FD9
:101550000AD105F0200038B106F0200020B1204665
:1015600003F0BAFCBDE8F087B8F1000F6DD007F0CA
:10157000010018B906F49070002866D005F001004B
:1015800030B106F4807018B1E06B40F00100E06308
:1015900005F0040030B107F0010018B1E06B40F035
:1015A0000200E06305F0020030B107F0010018B15D
:1015B000E06B40F00400E06305F0080030B107F094
:1015C000010018B1E06B40F00800E063E06B68B325
:1015D00005F0200028B106F0200010B1204603F0ED
:1015E0007BFC20684069C0F38019E06B00F00800C4
:1015F00010B9B9F1000F22D0204603F04DFC20684D
:10160000406900F04000B0B12068406920F040001F
:1016100021684861606B50B11748616B0865606B69
:10162000FEF7C7FF10B1606B016D88470CE02046E4
:10163000FFF773FF08E02046FFF76FFF04E0204646
:10164000FFF76BFF0020E0638CE705F0800030B10E
:1016500006F0800018B1204603F040FE82E705F056
:10166000400030B106F0400018B1204603F024FCE1
:1016700078E700BF76E70000854E000810B5044605
:101680000CB9012010BDA06900B100E000BF94F8C2
:10169000390028B9002084F83800204600F028F8E6
:1016A000242084F839002068C06820F400502168A4
:1016B000C860204603F05EFC2068006920F490407A
:1016C000216808612068406920F02A00216848618B
:1016D0002068C06840F400502168C8600020E063C2
:1016E000202084F8390084F83A000020CAE700007E
:1016F00010B586B004463F49206888421FD100BF1C
:10170000002000903C48006840F010003A49086012
:101710000846006800F01000009000BF00BF4FF4C2
:10172000C0600190022002900120039002200490EA
:101730000720059001A93148FFF774F857E03049B8
:101740002068884220D100BF002000902A48001F56
:10175000006840F400302849091F08600846006806
:1017600000F40030009000BF00BF0C200190022068
:10177000029001200390022004900720059001A907
:101780001E48FFF74FF832E01E49206888422ED1EC
:1017900000BF002000901848001F006840F480201F
:1017A0001549091F08600846006800F48020009071
:1017B00000BF00BF08150190022002900120039095
:1017C000022004900720059001A90F48FFF72AF88E
:1017D0004FF400600190022002900120039002204B
:1017E00004900720059001A90748FFF71BF806B0F1
:1017F00010BD0000001001404438024000000240CB
:1018000000440040004800400004024010B5034678
:1018100093F83A00202829D101B10AB9012010BD5E
:1018200000BF93F83800012801D10220F7E701201A
:1018300083F8380000BF99629A85DA850020D86362
:10184000222083F83A0000BF002083F8380000BF50
:101850001868406940F001001C6860611868C06841
:1018600040F490701C68E0600020D8E70220D6E7C2
:101870004D4A016891422ED14C4909782A2905D157
:1018800001214B4A118000214A4A118047490978B9
:10189000232905D10021464A11800121454A1180A2
:1018A0004349098801297DD140490978424A128873
:1018B000C2F30D02414B99543F490988491C3E4AE5
:1018C000118011460988C7296CDD0021384A118032
:1018D000394A118066E03A4A0168914230D139496B
:1018E0000978AA2907D10121374A11800021374AF6
:1018F0001180374A118033490978552905D10021D3
:10190000314A11800121314A11802F49098801296A
:1019100048D12C4909782E4A1288C2F30D022D4B6A
:1019200099542B490988491C294A11801146098874
:10193000C72937DD0021244A1180254A118031E072
:10194000254A016891422DD1244909782A2905D1D7
:101950000121234A11800021224A11801F49097860
:10196000232905D100211E4A118001211D4A118021
:101970001B490988012915D1184909781A4A128882
:10198000C2F30D02194B995417490988491C164A8C
:10199000118011460988C72904DD0021104A1180F1
:1019A000114A11807047000000100140EC00002037
:1019B0000001002002010020E4000020B4180020F3
:1019C00000440040F0000020040100200601002037
:1019D000EE000020441A002000480040F4000020DF
:1019E000080100200A010020F20000200C1B00204A
:1019F0002DE9F84304460D4616461F464FF00009F0
:101A000094F8390020285CD105B116B90120BDE851
:101A1000F88300BF94F83800012801D10220F6E7CE
:101A2000012084F8380000BF0020E063212084F802
:101A30003900FFF70BF88146A684E6842BE0E08CA2
:101A4000401EE084A068B0F5805F16D14B460022AE
:101A500080212046009703F075FC08B10320D6E7EB
:101A6000A846B8F80000C0F3080021684860206963
:101A700008B9AD1C0FE06D1C0DE04B460022802123
:101A80002046009703F05EFC08B10320BFE715F87D
:101A9000010B21684860E08C0028D0D14B46002221
:101AA00040212046009703F04DFC08B10320AEE72B
:101AB000202084F8390000BF002084F8380000BFDF
:101AC000A5E70220A3E7704700BFFEE700B587B097
:101AD00000BF002001908C48006840F020008A4937
:101AE00008600846006800F02000019000BF00BFB9
:101AF00000BF002001900846006840F080000860A8
:101B00000846006800F08000019000BF00BF00BFE1
:101B1000002001900846006840F001000860084677
:101B2000006800F00100019000BF00BF00BF00206E
:101B300001900846006840F002000860084600680E
:101B400000F00200019000BF00BF00BF0020019024
:101B50000846006840F0040008600846006800F08D
:101B60000400019000BF00BF00BF002001900846A4
:101B7000006840F0080008600846006800F00800AF
:101B8000019000BF00BF00BF002001900846006820
:101B900040F0100008600846006800F01000019056
:101BA00000BF00BF00BF002001900846006840F061
:101BB000400008600846006800F04000019000BF47
:101BC00000BF00BF002001900846006840F480700C
:101BD00008600846006800F48070019000BF00BFF4
:101BE000502002900120039004900320059002A948
:101BF0004648FEF717FE7C2002900020039001204B
:101C000004900320059002A94148FEF70BFE0C202A
:101C1000029000200390012004900320059002A967
:101C20003C48FEF7FFFD4FF4604002900120039016
:101C300004900320059002A93748FEF7F3FD4FF406
:101C4000807002900120039004900320059002A967
:101C50003248FEF7E7FD4FF4A050029001200390B8
:101C600004900320059002A92A48FEF7DBFD4FF4FB
:101C7000004002900120039004900320059002A9E7
:101C80002748FEF7CFFD40200290012003900490EA
:101C90000320059002A92348FEF7C4FD4FF400700D
:101CA00002900120039004900320059002A9174898
:101CB000FEF7B8FD012210211648FEF7C1FE0122F1
:101CC00010211248FEF7BCFE012240210F48FEF70A
:101CD000B7FE0122D1031248FEF7B2FE01229102A3
:101CE0000C48FEF7ADFE012211030A48FEF7A8FEDC
:101CF000012240210B48FEF7A3FE012251020348B6
:101D0000FEF79EFE07B000BD3038024000080240DA
:101D10000010024000180240001C02400020024057
:101D200000040240000C024010B50D480D49086047
:101D30004FF4E130486000210A488160C1600161D0
:101D40000C21416100218161C161FFF797FC08B15D
:101D5000FEF76FFB012204490248FFF757FD10BD53
:101D600000480040541C0020F400002000BFFEE7A3
:101D700030B505460C4622460021284600F001F801
:101D800030BD2DE9F04105460B469446002700245E
:101D900002E03F021F43641C042CFAD3604605F0A6
:101DA0000306294646B1344603E001F8013B401ED4
:101DB000641C08B1042CF8D30A4601E080C2001F5D
:101DC0000428FBD2114602E001F8013B401E002826
:101DD000FAD1BDE8F081704702480068C0F30220E4
:101DE000704700000CED00E010B5002807DA0A0784
:101DF000140E054A00F00F031B1FD45403E00A071A
:101E0000130E024A135410BD18ED00E000E400E088
:101E10007047000010B50348006810B10148006821
:101E2000804710BD2800002070B5044600F0AEF8D1
:101E300000204149087041490870414908704149F2
:101E400008604149086041490870414908704149AA
:101E500008704149086041490860414908604148AB
:101E6000006858B14048056845B13E48066803E03F
:101E7000761E002028602D1D002EF9D100203B4940
:101E800008603B4908603B4908603B4908603B49A2
:101E900008603B4908603B4908603B49087001F015
:101EA00067FE01F0A1FE204601F0B4FB208800B1DE
:101EB00070BD204601F014FC208800B1F8E72046F0
:101EC00001F01AFC208800B1F2E7204601F094FCF2
:101ED000208800B1ECE7204601F07AFE208800B1AE
:101EE000E6E7204601F040FF208800B1E0E7204609
:101EF00002F070F9208800B1DAE7204601F0B8FB63
:101F0000208800B1D4E7204602F086FD208800B189
:101F1000CEE7204602F0A8F8208800B1C8E72046A6
:101F200002F0DEFD208800B1C2E701F09FFAFFF762
:101F30006FFF00BFBCE700003C0000203D00002018
:101F400070000020D8000020DC0000205600002097
:101F50005700002058000020640000206800002086
:101F60006C00002000580008FC5700081C000020EE
:101F70002000002024000020280000202C00002049
:101F800030000020340000209E0000200648006839
:101F90000649096800EB81000549086008460068A9
:101FA00020F0070008607047FC5700080058000840
:101FB0001000002008480078012800D0704707482A
:101FC0000078FA2800DBF9E704480078401C034950
:101FD000087000BFF2E700003D0000203C00002038
:101FE00010B500242D480078012800D010BD00BF96
:101FF000FEF7EAF8044600BF2948007828B900BF78
:102000002046FEF7E5F800BFF0E725480078401EBF
:102010002349087008460078002805DD00BF2046E7
:10202000FEF7D6F800BFE1E71E480078002805DD7E
:1020300000BF2046FEF7CCF800BFD7E701F084FDD3
:10204000194908700846007800EB4000174951F81C
:102050002000174908600846006816490968884248
:1020600005D100BF2046FEF7B3F800BFBEE7104819
:102070000068D0F88400401C0D490968C1F884004C
:102080000D480068401C0C490860FEF731F900BF9C
:102090002046FEF79DF800BF00BFA7E73D000020E7
:1020A0003C00002070000020570000209812002003
:1020B000DC000020D8000020940000202DE9F04131
:1020C00004460E46154600271B480078002804DD0C
:1020D00042F6E1602880BDE8F0811CB945F6C350A6
:1020E0002880F8E700BF00BFFEF76EF8074600BF84
:1020F00000BF1248206066600020206284F825003E
:10210000A062402084F8240004F1080001F02BFCB8
:10211000204601F059FB0A480088401C0849088005
:1021200000BF00BF3846FEF753F800BF00BF0020D5
:10213000288000BFCFE700003C0000204D555458D8
:10214000540000202DE9F04788B0054689469046A6
:102150001C46109E4FF0000A8A480078002805DDD2
:1021600046F2AE10308008B0BDE8F0871DB945F6E4
:10217000C3503080F7E7B8F1000F03D0B8F5004F37
:1021800002D100E000BF03E045F625603080EAE7B9
:1021900000BF7D492868884203D045F6C45030808E
:1021A000E1E70CB10020206000BF00BFFEF70CF893
:1021B000824600BF00BF95F82500C0B9734800688B
:1021C00028627248006890F8370085F824000120E2
:1021D00085F825000CB1A86A206000BF00BF5046FA
:1021E000FDF7F6FF00BF00BF00203080BBE7674966
:1021F000286A0968884212D195F82500401C85F8A4
:1022000025000CB1A86A206000BF00BF5046FDF752
:10221000DFFF00BF00BF45F282703080A3E708F403
:10222000004050B100BF00BF5046FDF7D1FF00BFD6
:1022300000BF46F2B010308095E75548007800287E
:102240000ADD00BF00BF5046FDF7C2FF00BF00BF60
:1022500046F66350308086E72F6A97F837004B497F
:10226000096891F8371088423ADD97F83600082857
:102270002AD2DFE800F004151E1F17162021384669
:1022800001F018FD4148006890F8370087F83700E2
:1022900097F8370001F078FC384601F0CDFC1EE0DD
:1022A00000BF00BF3948006890F8370087F8370052
:1022B00015E000BF00BF00BF3448006890F8371039
:1022C000384601F02DFB0AE000BF00BF5046FDF785
:1022D0007FFF00BF00BF46F62D60308043E700BFA0
:1022E0004B4604222946684601F092FA00BF00BF1F
:1022F0005046FDF76DFF00BF00BF00F005F900BFBD
:1023000000BFFDF761FF824600BF00BF1F480068A5
:1023100090F8350030B101280CD002281AD00328DB
:1023200021D110E01CB119480068006C2060002029
:1023300030801CE01CB115480068006C206046F23B
:10234000A910308013E00CB10020206047F2D920A2
:1023500030800CE01CB10D480068006C206045F630
:10236000C250308003E046F62E60308000BF00BFD0
:1023700000BF00BF5046FDF72BFF00BF00BF00BFEE
:10238000F1E600003C0000204D555458D8000020D4
:10239000700000202DE9F84F0446884615464FF09E
:1023A000000A55480078002804DD46F20E202880F7
:1023B000BDE8F88F1CB945F6C3502880F8E7B8F19E
:1023C000000F03D0B8F5004F02D100E000BF03E0DA
:1023D00045F625602880EBE700BF48492068884221
:1023E00003D045F6C4502880E2E700BF00BFFDF7E8
:1023F000EBFE824600BF00BF4149206A096888425F
:102400000AD000BF00BF5046FDF7E2FE00BF00BF8C
:1024100045F281702880CBE7FDF7FCFF0746A762F5
:1024200094F82500401E84F8250094F82500002823
:102430000ADD00BF00BF5046FDF7CAFE00BF00BF67
:1024400045F283702880B3E704F10809B9F8080061
:1024500068B90020206284F8250000BF00BF504604
:10246000FDF7B6FE00BF00BF00202880A0E724488B
:10247000006890F8370094F82410884219D020485A
:10248000006801F017FC94F824001D49096881F8E0
:1024900037001B49096891F8370001F075FB1848AF
:1024A000006801F0E9FB1648006890F8370015490C
:1024B0000870D9F800008668266296F8370084F81C
:1024C0002400012084F8250000231A4631462046C6
:1024D000009701F0B9FA00BF00BF5046FDF778FE43
:1024E00000BF00BF08F4004008B900F00DF800205C
:1024F000288000BF5CE700003C0000204D55545888
:10250000D80000205600002010B500241F48007895
:10251000002800DD10BD1E480078002800DDF9E726
:1025200000BFFDF751FE044600BF01F00DFB194945
:1025300008700846007800EB4000174951F8200069
:10254000164908600846006815490968884205D19F
:1025500000BF2046FDF73CFE00BFDBE70F480068E8
:10256000D0F88400401C0D490968C1F884000D486A
:102570000068401C0B490860FDF7B5FE00BF20460F
:10258000FDF726FE00BF00BFC4E700003C000020AE
:10259000700000205700002098120020DC0000206E
:1025A000D80000209400002070B50446002518488B
:1025B0000078002803DD46F66250208070BD154883
:1025C0000078012803D045F689602080F6E712489C
:1025D0000078FA2803DB45F209202080EEE700BFEF
:1025E00000BFFDF7F1FD054600BF00BF0A480078B7
:1025F000401C0949087001F08BFB00BF00BF284652
:10260000FDF7E6FD00BF00BF0020208000BFD5E73A
:102610003C0000203D0000207000002070B5044602
:10262000002520480078002803DD46F6655020800C
:1026300070BD1D480078012803D045F689602080D0
:10264000F6E71A48007818B946F664502080EFE79C
:1026500000BF00BFFDF7B8FD054600BF00BF13482F
:102660000078401E114908700846007800280ADDED
:1026700000BF00BF2846FDF7ABFD00BF00BF46F618
:1026800063502080D4E701F051FB00BF00BF284613
:10269000FDF79EFD00BF00BFFFF736FF0020208042
:1026A00000BFC5E73C0000203D0000207000002076
:1026B00010B5044612480078E8B901F045FA11490E
:1026C000087008460078104908700E48007800EB42
:1026D00040000E4951F820000D4908600846006886
:1026E0000C490860012006490870FDF7EBFD43F630
:1026F0009920208002E045F68A60208010BD00000D
:102700003D000020570000205600002098120020B5
:10271000DC000020D80000202DE9F04107464FF0F2
:10272000000800BF00BFFDF74FFD804600BF00BF9F
:1027300000203B4908803B4908603B4908603B4911
:1027400008603B4908603B49088100BF00BF404624
:10275000FDF73EFD00BF00BF00BF00BFFDF734FD29
:10276000804600BF00BF3448046800BF00BF404639
:10277000FDF72EFD00BF00BF21E000BF00BFFDF749
:1027800023FD804600BF00BF00206C34E063206062
:102790002063A061A082E0826062A062FDF73AFE41
:1027A00020626C3C04F158060020B081D4F8B0409F
:1027B00000BF00BF4046FDF70BFD00BF00BF002C6F
:1027C000DBD100BF00BFFDF7FFFC804600BF00BFAC
:1027D0001A48056800BF00BF4046FDF7F9FC00BF7E
:1027E00000BF12E000BF00BFFDF7EEFC804600BF57
:1027F00000BF05F120060020B081AD6900BF00BF19
:102800004046FDF7E5FC00BF00BF002DEAD102F015
:1028100013F802F00BFA00203880BDE8F0810000C8
:102820007E00002090000020A4000020C8000020AE
:10283000680000208C120020980000205C0000201E
:10284000F8B5044600266946324800F00FFDBDF891
:10285000000018B1BDF800002080F8BD6A460021D4
:10286000022000F07BFDBDF8000018B1BDF80000AB
:102870002080F2E700BF00BFFDF7A6FC064600BFC0
:1028800000BF00202449086000BF00BF3046FDF7AC
:102890009FFC00BF00BF0025204800682049096850
:1028A000884205D91D4800681D490968B0FBF1F54B
:1028B00025B91A4800680A21B0FBF1F56A460021E3
:1028C000284600F04BFD6946124800F0B5F9BDF806
:1028D000000018B1BDF800002080BEE700BF00BFB7
:1028E000FDF772FC064600BF00BF00200D490860DE
:1028F000094800680C49086001200C49087000BFB5
:1029000000BF3046FDF764FC00BF00BF0020208000
:1029100000BFA2E7341700208000002030580008D4
:102920001858000890000020840000208C0000202F
:1029300010B50348006810B101480068804710BD19
:102940002C0000202DE9FF4F85B004469046DDE9BC
:102950001995159F139E002002905C48007800286E
:1029600005DD47F24A10288009B0BDE8F08F1CB998
:1029700047F2AD102880F7E7B8F1000F03D147F216
:102980004F102880F0E71EB946F62F602880EBE74D
:102990004F480068874203D246F630602880E3E75C
:1029A0001498B84203D346F631602880DCE71298C9
:1029B000402803D346F273202880D5E712983F2899
:1029C00006D14448844203D046F273202880CBE7E6
:1029D000204601F00FFC0020288009F0010088B19A
:1029E00009F0020070B1B3460020049007E0002017
:1029F000CBF800000BF1040B0498401C04900498E1
:102A0000B842F4D3149806EB80000390CDE9007926
:102A100032464046039B089900F0C6FA8346C4F844
:102A200028800898E06206982062129884F837009F
:102A3000C4F800B00398A060189860606662A7634D
:102A4000A4F83C904FF0000A08E0002104F1700067
:102A500040F82A100AF1010000F0FF0ABAF1000F55
:102A6000F3D004F15800169900F0A6FE204600F0BD
:102A700037F800BF00BFFDF7A7FB029000BF00BF03
:102A800094F8370001F080F8204601F0F5F8204670
:102A900001F066FB10480088401C0F4908800F4871
:102AA0000078012807D000BF00BF0298FDF790FB17
:102AB00000BF00BF58E700BF00BF0298FDF788FBCA
:102AC00000BF00BFFFF720FD00BF4DE73C00002026
:102AD0002C580008D41100209C0000203D0000204C
:102AE00010B504460348006818B12046014909683A
:102AF000884710BD1C00002070B504460D46002616
:102B000043480078002803DD47F24E10288070BD4E
:102B10004048844203D147F24C102880F7E77CB943
:102B200000BF00BFFDF750FB064600BF00BF3A489C
:102B3000046800BF00BF3046FDF74AFB00BF00BF7E
:102B400000BF00BFFDF740FB064600BF00BF94F882
:102B5000360008282DD2DFE800F004090E10080A1C
:102B60000F11204601F0A6F82EE02DE000BF204610
:102B700001F036FE28E000BF00BF00BF94F834002B
:102B8000082810D2DFE800F004070508090A0B0640
:102B900000BF00BF08E000BF00BF00BF00BF20466D
:102BA00000F019FF00E000BF00BF204601F018FE52
:102BB0000AE000BF00BF3046FDF70AFB00BF00BFC0
:102BC00046F62D602880A2E700BF04F1580000F00F
:102BD000D1FD204600F024F8204601F0D9FA0F4834
:102BE0000088401E0D490880204601F003FBFF20AD
:102BF00084F8360000BF00BF3046FDF7E9FA00BF99
:102C000000BF00202880FFF77FFC00BF7FE70000A7
:102C10003C000020D4110020D80000209C0000209F
:102C200010B504460348006818B1204601490968F8
:102C3000884710BD2000002070B504460D460026D0
:102C400015480078002803DD47F25510288070BD34
:102C500000BF00BFFDF7B8FA064600BF00BF1CB1B9
:102C60000E48006884420AD100BF00BF3046FDF71D
:102C7000AFFA00BF00BF47F257102880E7E700BF58
:102C800000BF3046FDF7A4FA00BF00BF294620462A
:102C900001F00AFB00BFDAE73C000020D80000206A
:102CA00010B504460348006818B120460149096878
:102CB000884710BD240000202DE9F04780460E46CD
:102CC00014461D464FF000096F480078002805DDC6
:102CD00046F2AE1028800020BDE8F0871EB1B6F5A0
:102CE000004F02D100E000BF04E045F625602880D7
:102CF0000020F1E700BF0CB10020206000BF00BF42
:102D0000FDF762FA814600BF00BF60480068406C72
:102D1000A8B35E480068406C401E5C49096848647E
:102D20005A480068476C1CB158480068006C206025
:102D3000FDF770FB55490968096C401A5349096849
:102D4000C1F8980051480068D0F89C004F490968C4
:102D5000D1F89810884207D24C480068D0F8980003
:102D60004A490968C1F89C0000BF00BF4846FDF70A
:102D70002FFA00BF00BF002028803846ACE7FFE7ED
:102D800006F4004058B100BF00BF4846FDF720FAE6
:102D900000BF00BF46F2B010288000209CE73C48EE
:102DA000007800280BDD00BF00BF4846FDF710FA91
:102DB00000BF00BF46F66350288000208CE74346E2
:102DC00007220021084600F023FD00BF00BF48464F
:102DD000FDF7FEF900BF00BFFFF796FB00BF00BF85
:102DE000FDF7F2F9814600BF00BF2848006890F85F
:102DF000350020B1012826D0032834D12CE0FCB1C5
:102E000022480068006C2060FDF704FB1F49096838
:102E1000096C401A1D490968C1F898001B480068F0
:102E2000D0F89C0019490968D1F89810884207D257
:102E300016480068D0F8980014490968C1F89C0049
:102E40000020288013E01CB110480068006C20604E
:102E500046F2A91028800AE00CB10020206047F259
:102E6000D920288003E046F62E60288000BF00BFEE
:102E700006480068476C00BF00BF4846FDF7A8F948
:102E800000BF00BF384627E73C000020D8000020E4
:102E9000700000202DE9F04106460D4614461DB194
:102EA000B5F5004F02D100E000BF05E045F6256012
:102EB00020800020BDE8F08100BFFDF7ABFA80461E
:102EC000234642462946304601F07AFA07463846FC
:102ED000F0E700002DE9F04705460E4617461C4670
:102EE0004FF0000A2E480078002804DD47F2591000
:102EF0002080BDE8F0871EB946F2D5202080F8E793
:102F00001FB946F2D5202080F3E700BF00BFFDF7D0
:102F10005BF9824600BF00BF0DB9224805682868EA
:102F200068B900BF00BF5046FDF752F900BF00BFAF
:102F300000203060386047F252102080D9E795F8C1
:102F40003C0000F0010068B900BF00BF5046FDF72B
:102F50003FF900BF00BF00203060386047F25410D6
:102F60002080C6E700BF00BF5046FDF731F900BF23
:102F700000BF4FF00008D5F8249003E009F10409E0
:102F800008F10108D9F800000028F7D0C6F8008041
:102F9000A86BA0EB080038600020208000BFA8E7E5
:102FA0003C000020D8000020F0B50446DDE90556BD
:102FB00002EB850020F007004FF0807C071F3846A9
:102FC000C7F800C0071F38463C60DFF834C2071F4F
:102FD0003846C7F800C04FF0123C071F3846C7F804
:102FE00000C04FF0033C071F3846C7F800C04FF041
:102FF000023C071F3846C7F800C0071F38463B6031
:10300000071F384639604FF0113C071F3846C7F894
:1030100000C04FF0103C071F3846C7F800C04FF003
:10302000093C071F3846C7F800C04FF0083C071F8F
:103030003846C7F800C04FF0073C071F3846C7F8AE
:1030400000C04FF0063C071F3846C7F800C04FF0DD
:10305000053C071F3846C7F800C04FF0043C071F67
:103060003846C7F800C006F00407002F7ED04FF0A6
:10307000007C071F3846C7F800C0DFF888C1071F6B
:103080003846C7F800C0DFF880C1071F3846C7F8C8
:1030900000C0DFF878C1071F3846C7F800C0DFF866
:1030A00070C1071F3846C7F800C0DFF868C1071FA6
:1030B0003846C7F800C0DFF860C1071F3846C7F8B8
:1030C00000C0DFF858C1071F3846C7F800C0DFF856
:1030D00050C1071F3846C7F800C0DFF848C1071FB6
:1030E0003846C7F800C0DFF840C1071F3846C7F8A8
:1030F00000C0DFF838C1071F3846C7F800C0DFF846
:1031000030C1071F3846C7F800C0DFF828C1071FC5
:103110003846C7F800C0DFF820C1071F3846C7F897
:1031200000C0DFF818C1071F3846C7F800C04FF0CD
:10313000834C071F3846C7F800C0DFF804C1071FDB
:103140003846C7F800C0DFF8FCC0071F3846C7F88C
:1031500000C0DFF8F4C0071F3846C7F800C0DFF82A
:10316000ECC0071F3846C7F800C000E047E0DFF8B2
:10317000E0C0071F3846C7F800C0DFF8D8C0071FF7
:103180003846C7F800C0DFF8D0C0071F3846C7F878
:1031900000C04FF0824C071F3846C7F800C0DFF868
:1031A000BCC0071F3846C7F800C0DFF8B4C0071F0F
:1031B0003846C7F800C0DFF8ACC0071F3846C7F86C
:1031C00000C04FF0814C071F3846C7F800C0DFF839
:1031D00098C0071F3846C7F800C04FF0804C071F43
:1031E0003846C7F800C04FF07E5C071F3846C7F866
:1031F00000C04FF0000C071F3846C7F800C0F0BDF4
:10320000A94300080000F8410000F0410000E84137
:103210000000E0410000D8410000D0410000C8415A
:103220000000C0410000B8410000B0410000A841CA
:103230000000A0410000984100009041000088413A
:10324000000070410000604100005041000040411A
:103250000000304100002041000010410000E0402B
:103260000000C0400000A0400000404070B505468E
:103270000C460A480078002803DD47F25D102080E4
:1032800070BD0748854203D147F25B102080F7E705
:103290002146284601F076F900BFF1E73C00002006
:1032A000D411002010B52948006890F83C0000F0C7
:1032B000040020B1254909680868FCF7EDFF24489F
:1032C000006890F83C0000F0040020B12049096833
:1032D0000868FCF7EEFF1F48006810B11D48006841
:1032E0008047FDF797F804461848006818490968B0
:1032F000884215D015480068D0F88C00201A134970
:103300000968C1F8880011480068D0F890000F499A
:103310000968D1F8881008440C490968C1F8900080
:103320000B480068C0F88C4008480068D0F8A80036
:1033300009490968884205D20748006803490968B5
:10334000C1F8A80000200449086010BDD800002082
:10335000DC000020300000206C0000202DE9F0414E
:1033600005460E461446002727480078002804DD4D
:1033700047F275202080BDE8F081244800780028BD
:1033800003DD46F663502080F5E736B1022E05D006
:10339000042E0AD0082E09D101E000BF00BF1DB9DC
:1033A00047F27E202080E6E704E003E045F6256052
:1033B0002080E0E700BF00BF00BFFCF705FF074625
:1033C00000BF00BF2346324629461148006801F07D
:1033D000A9F9208838B100BF00BF3846FCF7F8FED5
:1033E00000BF00BFC7E70A48006800F063FC00BFE9
:1033F00000BF3846FCF7ECFE00BF00BFFFF784F8C3
:103400000020208000BFB6E73C00002070000020B4
:10341000D800002008B500F01FF86A4600210A48CD
:10342000FFF738FD09480068401E08490860084653
:10343000006838B90648006808606A4600210548F7
:10344000FFF728FD08BD000050160020D400002022
:10345000D00000203417002010B50348006810B1D8
:1034600001480068804710BD34000020244A2549E7
:10347000254A264A2649274A2748284A284A294AC7
:10348000294A2A482A482B4A2B482C4A2C482D4A9C
:103490002D482E482E482F482F4A304A304A31486E
:1034A000314A324A32483348334834483448354840
:1034B0003548364A364A374A374A3848384839480C
:1034C000394A3A4A3A4A3B483B483C483C493D48DD
:1034D0003D4A3E4A3E4A3F4A3F4A404A404A4148A6
:1034E000414A424A42484348434A444A4448454A7A
:1034F000454A4648464800BF00BF00BF704700002D
:1035000064580008C8590008655800086658000843
:10351000685800086C580008705800086D5800087A
:1035200098580008995800089A5800089C580008B4
:103530009E580008A2580008A4580008C458000863
:10354000C6580008C8580008CA580008CC580008D7
:10355000CE580008D0580008FC580008FD58000854
:10356000FE580008005900080259000803590008D5
:103570000459000806590008085900080A590008AB
:103580000C5900080E59000810590008405900084D
:10359000415900084259000843590008445900089D
:1035A0004659000848590008705900087159000828
:1035B00072590008735900087459000876590008B8
:1035C000785900087C5900087D5900087E59000888
:1035D0007F59000880590008815900088259000865
:1035E0008359000884590008865900088759000843
:1035F000885900088A5900088C5900088D5900081C
:1036000090590008C0590008C1590008C259000863
:10361000C45900080021034A1160034A1180018047
:10362000704700004000002044000020002419E002
:1036300000BF00BFFCF7C8FD044600BF00BF0A483A
:103640000068401C0849086008480068401C074999
:10365000086000BF00BF2046FCF7BAFD00BF00BFF6
:10366000FEF7D8FBE4E700003800002080000020CF
:1036700010B58AB0044600200E4908600B200021D6
:103680000591CDE90704069108460B4909680B4AE4
:1036900012680B4B1B68CDE90132CDE903103F20C6
:1036A0000023084A08A100900C48FFF74BF90AB024
:1036B00010BD000038000020D8570008D45700087B
:1036C000D05700082D36000875432F4F532D494918
:1036D000492049646C65205461736B00D41100204B
:1036E0000021034A1160034A1180018070470000E5
:1036F000480000204C00002070B501461A4D2D688E
:103700001DB945F21E750D8070BD184D2D881DB96F
:1037100045F21D750D80F7E7134D28682A681032B1
:10372000124D2D886D1EACB2002308E0026000250A
:1037300045600581C560103010325D1CABB2A342FC
:10374000F4DB0025056045600581C560064D2D68E8
:10375000074E3560054D2D88B5800025F5803581F3
:103760000D8000BFD0E7000010580008085800087E
:103770008C12002010B5014648894B89002B17DDBB
:103780000A680C4B1B6813600A4C4B682360234685
:10379000DB884C891B1B074CE38023469B884C89A4
:1037A0002344044CA38000234B818B810B604B602E
:1037B00010BD00008C120020018100224281828114
:1037C000026042607047000009A1C16100214161AF
:1037D0000849096811B90021816105E005490968B6
:1037E0008161044909684861024908607047000026
:1037F00020000000500000200021034A1160034A0D
:10380000118001807047000050000020540000200B
:103810002DE9F04105460C4616461F46154800683E
:1038200080F8346000201349096881F83500394672
:103830001048006800F07EFC6CB104F10808EC60F0
:10384000012229460B48006800F016F82946404638
:1038500000F08EF806E0002006490968C88705498F
:103860000968086303480168204600F019F8BDE8BC
:10387000F0810000D800002010B5C287016300234A
:103880000AE000244C600C600C614C610C83CC613C
:10389000886020315C1CA3B29342F2DB10BD0000B3
:1038A00030B548B14568C1F8B45000F10804226849
:1038B00093681D6AC56113E091F83450022D02D05F
:1038C000072D08D103E007A5C1F8B45007E007A50C
:1038D000C1F8B45003E008A5C1F8B45000BF00BF60
:1038E00030BD00005461736B205100005461736B54
:1038F0002053656D000000002000000030B507A5D2
:10390000C1F8B45000F1080422681AB193681D6A26
:10391000C56101E001A5C56130BD000020000000C7
:103920002DE9F04304460F4684F83770256BB4F850
:103930003E8013E0D5F80C9009F108063089012883
:1039400007D92946304600F05EF82946304600F097
:103950000FF82035A8F101001FFA80F8B8F1000F28
:10396000E8D1BDE8F083002101604160018170472A
:10397000F0B58E6896F8375007893FB9012707815F
:1039800000274F600F600160416023E007897F1CC2
:103990000781026806E0946894F83770AF4200DD52
:1039A00002E05268002AF6D100BF32B900274F600A
:1039B00043680B60596041600CE017682FB91160D3
:1039C00000270F604A60016004E013680B604A60E2
:1039D00059601160F0BD2DE9F0410446256BE68F7A
:1039E0000AE0D5F80C8008F108072946384600F0AF
:1039F0000AF82035701E86B2002EF2DC0020E08727
:103A00002063BDE8F08110B50489012C03D10024A6
:103A10000460446011E00C6824B94A680024146012
:103A200002600AE04C6824B90B6800245C604360C3
:103A300003E00B684A685A6013600489641E0481BD
:103A400000244C600C6010BD2DE9F84306460C467E
:103A500017469846089D94F8360008285BD2DFE8A0
:103A600000F0040508090607323300BF00BF00BF9D
:103A700052E000BF94F83400032807D143463A4689
:103A800021463046009500F04AF803E02765A4F887
:103A90005480256436B12046FFF79DFF214630460D
:103AA000FFF72CFF94F83600032802D1204600F0DF
:103AB00097FE204600F0AAF800203434A070607011
:103AC00004F8340928E000BF94F83400032807D133
:103AD00043463A4621463046009500F020F803E080
:103AE0002765A4F85480256436B12046FFF773FF9C
:103AF00021463046FFF702FF94F83600072802D12E
:103B0000204600F06DFE04203434A0700020607068
:103B100004F8340900E000BF00BFBDE8F883F0B549
:103B20000446059E086BCD8F0AE0C768A74204D102
:103B3000046142610383C66104E020306F1EBDB2A0
:103B4000002DF2DC00BFF0BD70B50025074C03E08E
:103B500005F12000C5B2241D20680028F8D0206897
:103B6000FCF73DFB2844C5B2284670BD1400002078
:103B7000002004E00021034A42F82010401C0228E3
:103B8000F8D370471400002030B5420900F01F033D
:103B90000121C3F11F04A140034C54F822400C43FF
:103BA000014D45F8224030BD1400002030B54209D7
:103BB00000F01F030121C3F11F04A140034C54F87E
:103BC00022408C43014D45F8224030BD14000020B6
:103BD0000021034A1160034A1180018070470000F0
:103BE0005C0000206000002000210AE001EB41029F
:103BF000054B03EB820000220281026042604A1CF6
:103C0000D1B24029F2D370479812002010B5044673
:103C100094F83700FFF7B8FF94F8370005490978A2
:103C2000884203D1204600F027F802E0204600F049
:103C300003F810BD5600002010B590F8373003EBA4
:103C400043030C4C04EB83010B893BB901230B812B
:103C50000023C36003610860486009E00B895B1CB6
:103C60000B810B68C360002303610A681061086060
:103C700010BD00009812002010B590F8373003EB0B
:103C800043030B4C04EB83010B893BB901230B81EC
:103C90000023C36003610860486008E00B895B1C77
:103CA0000B810023C3604A680261D060486010BD88
:103CB000981200202DE9F041054695F8370000EBF9
:103CC0004000124901EB80042F69EE6887B946B9BC
:103CD000002020812060606095F83700FFF766FFC4
:103CE0000EE02089401E208100203061266007E020
:103CF0002089401E2081FE600EB9676000E03761B8
:103D000000202861E860BDE8F081000098120020E2
:103D100010B504480078012803D1FCF77BFB024969
:103D2000086010BD700000206400002010B50A4833
:103D3000007880B9FCF76EFB08490968441A084806
:103D40000068A04201D20648046006480068A0420C
:103D500001D20448046010BD7000002064000020FF
:103D6000680000206C0000200021034A1160034A13
:103D7000118001807047000074000020780000204E
:103D800086B00020009006E0A8490968480001AA12
:103D90000021FFF7E3FAA64800780128F4D101A832
:103DA000FEF7BAFC0027A3480068A04909688842CA
:103DB00005D9A04800689D490968B0FBF1F727B90B
:103DC0009C4800680A21B0FBF1F72EE1FCF722FBCA
:103DD000804600BF00BFFCF7F7F9009000BF00BFAE
:103DE000954800689549086000209349086000BF25
:103DF00000BF0098FCF7ECF900BF00BF90480068D6
:103E00008E490968884248D98D4800688D498842A2
:103E100005D242F2107003900120029023E08848FE
:103E200000688949884205D24FF47A7003900A20CD
:103E3000029018E0824800688449884203D26420D6
:103E4000039002900FE07E4800688149884205D2C5
:103E50000A2003904FF47A70029004E0012003904E
:103E600042F210700290764801680298B1FBF0FAB5
:103E70007249039809684843B0FBFAF042F21071A6
:103E8000081A74490880744800880988884208DA4A
:103E9000704800887049088003E042F210706D4954
:103EA0000880FEF745FD002500BF00BFFCF78CF938
:103EB000009000BF00BF6948046800BF00BF0098C1
:103EC000FCF786F900BF00BF26E000BF00BFFCF78B
:103ED0007BF9009000BF00BF54F8900F6060002095
:103EE00044F8900900BF00BF0098FCF771F900BFCB
:103EF00000BFD4F89400054400BF00BFFCF764F98C
:103F0000009000BF00BFD4F8B04000BF00BF0098D1
:103F1000FCF75EF900BF00BF002CD6D145B349487D
:103F2000854205D242F2107005904FF0010B1BE064
:103F30004548854205D24FF47A7005904FF00A0B40
:103F400012E04248854203D26420059083460BE08C
:103F50003F48854204D20A2005904FF47A7B03E063
:103F60000120059042F2107BB5FBFBF0049003E0CA
:103F7000002005900120049000BF00BFFCF724F949
:103F8000009000BF00BF3548046800BF00BF009824
:103F9000FCF71EF900BF00BF2BE0D4F89400059990
:103FA00048430499B0FBF1F086B242F210708642A9
:103FB00000D90646A4F88060B4F88200B04201DA65
:103FC000A4F8826001AB04F1A002111D2046FEF7A7
:103FD00081FF00BF00BFFCF7F7F8009000BF00BFF3
:103FE000D4F8B04000BF00BF0098FCF7F1F800BF64
:103FF00000BF002CD1D11A480078012805D100203B
:104000001749087001A8FEF787FBFCF703FAA0EB3D
:10401000080914480068484502D21248C0F80090C8
:1040200001AA00213846FFF799F9CFE61858000891
:104030008C000020305800088000002088000020FC
:1040400084000020801A060000093D00005A620228
:104050000084D7177C0000207E00002098000020FC
:104060007A0000209000002010B58AB0044600209D
:104070001F4908601F4908601F4908601F490870F0
:104080001F4908701F48006820B946F62B60208041
:104090000AB010BD1C4800681C490968884203D258
:1040A00046F62C602080F3E7194800783F2803D3B8
:1040B00046F62A602080EBE7032000210591CDE938
:1040C00007040691084610490968124A12680D4B08
:1040D0001B68CDE90132CDE903100D4800780023BB
:1040E0000D4A0EA100901248FEF72CFC00BFCFE74E
:1040F0008000002088000020840000208C00002028
:104100007A0000201C580008245800082C58000889
:104110001458000820580008813D000875432F4FAF
:10412000532D4949492053746174205461736B00C5
:104130009815002070B504460D4645B12A46214623
:10414000064800F0ABFA032084F8360002E00220B3
:1041500084F836002046FFF7ADFD70BDB0000020AA
:104160000021C0F8AC100949096819B90021C0F84C
:10417000B01007E005490968C0F8B01003490968A4
:10418000C1F8AC00014908607047000098000020A9
:10419000D0F8AC20D0F8B0104AB90D4B196011B16D
:1041A0000023C1F8AC300023C0F8B0300FE029B9CB
:1041B0000023C2F8B030C0F8AC3008E0C2F8B0104C
:1041C000C1F8AC200023C0F8B030C0F8AC30704764
:1041D000980000200021044A1160044A1180044A1A
:1041E0001160018070470000980000209C000020B2
:1041F0009400002070B5044600202060A06060603C
:10420000E06020616061A061E06124A02062002084
:104210006062A062E06220642065A4F8540000217E
:1042200004F15800FFF7C8FA0020A066E066606756
:10423000A4F87C00A067002506E0002104F17000CE
:1042400040F82510681CC5B2002DF6D0002034348B
:1042500020616066A066606084F84A002067E066BE
:1042600020816061A061A4F84C00A4F84E00206594
:104270006065FCF7CFF80646A6650020E06560673C
:1042800020706070A0704020E0700020A067E067A0
:1042900004A0C4F88000343C70BD00003F5461733A
:1042A0006B0000002000000070B504460D4600269B
:1042B00000BF00BFFBF788FF064600BF00BF00201D
:1042C000288094F8360008285ED2DFE800F0040564
:1042D00006071227394B00BF00BF00BF00BF00BF59
:1042E0003046FBF775FF00BF00BF47F25310288030
:1042F00055E014F87E0F401E207014F87E0928B98E
:10430000002084F836002046FFF780FC00BF00BF85
:104310003046FBF75DFF00BF00BF40E014F87E0FA2
:10432000401E207014F87E0910B9012084F8360070
:1043300000BF00BF3046FBF74BFF00BF00BF2EE0C1
:1043400014F87E0F401E207014F87E0910B9022068
:1043500084F8360000BF00BF3046FBF739FF00BFCE
:1043600000BF1CE014F87E0F401E207014F87E0978
:1043700010B9032084F8360000BF00BF3046FBF7B9
:1043800027FF00BF00BF0AE000BF00BF3046FBF7B9
:104390001FFF00BF00BF46F62D60288070BD00BF24
:1043A000FEF7B2F800BFF9E708B504480068FEF769
:1043B00077FC69460020FEF79FFB08BDD80000206F
:1043C0002DE9F8430446884617461D464FF000097C
:1043D00000BF00BFFBF7F8FE814600BF00BF0CB96D
:1043E0006748046827640020288094F8360008286D
:1043F00076D2DFE800F0040550510607525300BFA3
:1044000000BF00BF0420012804D0022813D00428D4
:1044100033D122E0606CFF280CD100BF00BF4846BA
:10442000FBF7D6FE00BF00BF46F6C550288000202F
:10443000BDE8F88322E04FF6FF71606C88420BD133
:1044400000BF00BF4846FBF7C3FE00BF00BF46F6F3
:10445000C55028800020EBE710E0606C401C58B984
:1044600000BF00BF4846FBF7B3FE00BF00BF46F6E3
:10447000C55028800020DBE700E000BF00BF606C73
:10448000401C6064666C00BF00BF4846FBF7A0FE9E
:1044900000BF00BF71E000BF00BF00BF94F8340050
:1044A000072815D100231A46214618460097FFF722
:1044B000CBFA666C00BF00BF4846FBF789FE00BF21
:1044C00000BF08F4004000284AD1FEF71DF847E07D
:1044D0000420012805D0022813D0042833D122E07B
:1044E0003FE0606CFF280BD100BF00BF4846FBF7E0
:1044F0006FFE00BF00BF46F6C5502880002097E73A
:1045000022E04FF6FF71606C88420BD100BF00BF04
:104510004846FBF75DFE00BF00BF46F6C550288049
:10452000002085E710E0606C401C58B900BF00BF58
:104530004846FBF74DFE00BF00BF46F6C550288039
:10454000002075E700E000BF00BF606C401C6064A5
:10455000666C00BF00BF4846FBF73AFE00BF00BFD5
:104560000BE000BF00BF4846FBF732FE00BF00BFB4
:1045700046F62D602880002600BF00BF304657E772
:10458000D800002070B504460D46002600BF00BFCD
:10459000FBF71AFE064600BF00BF0CB93D48046891
:1045A0003C48006884420ED13B48007800280ADD70
:1045B00000BF00BF3046FBF70BFE00BF00BF46F652
:1045C0006350288070BD0020288094F836000828A9
:1045D00050D2DFE800F0041523313F40414204206F
:1045E00084F83600012084F87E002046FFF762FB45
:1045F00000BF00BF3046FBF7EBFD00BF00BF44E04B
:10460000052084F83600012084F87E0000BF00BF3A
:104610003046FBF7DDFD00BF00BF36E0062084F822
:104620003600012084F87E0000BF00BF3046FBF753
:10463000CFFD00BF00BF28E0072084F8360001202E
:1046400084F87E0000BF00BF3046FBF7C1FD00BF0D
:1046500000BF1AE000BF00BF00BF94F87E00401CFE
:1046600084F87E0000BF00BF3046FBF7B1FD00BFFD
:1046700000BF0AE000BF00BF3046FBF7A9FD00BF46
:1046800000BF46F62D6028809CE700BFFDF73CFF89
:1046900000BF97E7D80000207000002070B51546D5
:1046A000066846B98D6400264E618E61C86101605E
:1046B0000126868033E0046802682B4624E0966C6D
:1046C0009E421DD396696EB98B6400268E614A6145
:1046D000C861966CF61A9664916101608688761CB2
:1046E00086800CE094698B648C614A61C861966C29
:1046F000F61A9664916161618688761C868070BD29
:10470000966C9B1B14465269002AD8D18B648C612D
:1047100000264E61C86161618688761C868000BF74
:10472000EDE700002DE9F04104460D4690461F4696
:10473000B8F1040F0ED1284800682E1A16F5803FF4
:1047400001D8002E3CD10020A06447F27E203880A2
:10475000BDE8F081B8F1080F29D11F49E06C096864
:10476000081AA84205D92E461B4800682844E06470
:1047700026E01949E06C0968081A2E1A16F5803FE0
:1047800000D886B91449E06C0968081AB0FBF5F046
:1047900005FB0050E16C0844E0640020A06447F28F
:1047A0007E203880D4E7E06C2844E06408E00DB156
:1047B0002E4605E00020A06447F27E203880C7E73F
:1047C000012084F83600324621460448FFF766FF90
:1047D0000020388000BFBBE7A0000020A800002018
:1047E00030B5C26983694169ABB929B90024146045
:1047F00094808464C4611EE000248C618C6C856CA0
:104800002C448C6411609488641E9480002444615C
:104810008464C4610FE0596121B18B618C6C856C3B
:104820002C448C64002484619488641E9480002449
:1048300044618464C46130BD704700002DE9F047D5
:104840004FF0000900BF00BFFBF7BEFC814600BF70
:1048500000BFFBF7DFFD064600271D4D2C683CB36B
:10486000A06C401EA0641FE0781C87B294F836004C
:10487000012806D1002084F836002046FFF7C6F94B
:1048800006E094F83600052802D1042084F83600AA
:10489000606928602C6814B90020A88007E0A88807
:1048A000401EA8800020A061A06C0028DCD000BFC2
:1048B000EF80FBF7AFFDA0EB060800BF00BF484646
:1048C000FBF786FC00BF00BF4046BDE8F087000054
:1048D000A80000202DE9F0474FF0000900BF00BFFD
:1048E000FBF772FC814600BF00BFFBF793FD064655
:1048F00000272C4D2C68002C45D0A06C401EA064D5
:104900003DE0781C87B294F83600032815D10020CA
:104910002065A4F85400FBF77DFD20642046FFF7D6
:104920005AF82046FFF772F900203434A0700320B3
:104930006070002004F8340915E094F83600072868
:1049400011D100202065A4F85400FBF763FD20641A
:104950002046FFF740F804203434A0700320607034
:10496000002004F83409606928602C6814B900201C
:10497000A88007E0A888401EA8800020A061A06C45
:104980000028BED000BFEF80FBF744FDA0EB060877
:1049900000BF00BF4846FBF71BFC00BF00BF4046FE
:1049A000BDE8F087B00000201CB500272CE001AB6B
:1049B0006A4600210846FEF77FF9BDF8040018BBDF
:1049C0001248007801281FD100BF00BFFBF7FCFB95
:1049D000074600BF00BF0E480068401C0C49086035
:1049E00000BF00BF3846FBF7F3FB00BF00BFFFF777
:1049F00025FF0646FFF76EFF054674190548006857
:104A0000A04201D203480460D1E700003D0000202D
:104A1000A0000020A400002010B58AB004460020A9
:104A20002049086020490860204908601E498880A4
:104A3000C8801E498880C8801D48006820B947F298
:104A4000122020800AB010BD1A4800681A4909686F
:104A5000884203D247F213202080F3E717480078FA
:104A60003F2803D347F211202080EBE70B200021E1
:104A70000591CDE90704069108460E490A681049D8
:104A800009680B4B1B68CDE90131CDE903200B48C8
:104A9000007800230B4A0CA100901048FDF752FF4C
:104AA00000BFCFE7A0000020A8000020B000002039
:104AB00038580008405800082C580008345800089E
:104AC0003C580008A949000875432F4F532D494908
:104AD00049205469636B205461736B0050160020A9
:104AE00010B58AB0044600202F4908602F4908609D
:104AF0002F4908802F48006840B12F4800682D4991
:104B00000968B0FBF1F02D49086006E02A4800680A
:104B10000A21B0FBF1F029490860284800682849BB
:104B2000086000202749086027490860224627A11D
:104B30002A48FDF7C3FA208808B10AB010BD2848FA
:104B4000006818B947F247302080F6E7254800682A
:104B500025490968884203D247F248302080ECE7B3
:104B6000224800783F2803D347F246302080E4E70C
:104B70000B20002105910A46CDE90704069119484A
:104B800000681B490968164B1B68CDE90131CDE966
:104B90000302164800780023164A17A100901C480B
:104BA000FDF7D0FE00BFC8E7B8000020C00000201D
:104BB000BC0000204C58000830580008D0000020ED
:104BC000D4000020CC000020C80000204F53205407
:104BD0006D72204D75746578000000000817002084
:104BE00050580008585800082C5800084858000829
:104BF00054580008314C000875432F4F532D494934
:104C0000492054696D6572205461736B0000000087
:104C1000341700200EB502A801AB00221146009007
:104C20000148FDF78FFA0EBD0817002070470000FD
:104C30001CB53FE001AB6A4600210846FEF73CF890
:104C4000FFF7E8FFFBF7E6FB06461B480068401C41
:104C500019490860194804681FE001A8FDF7A4FC81
:104C6000D4F81080A069401EA061A06980B9A08C12
:104C7000022802D1206AA06105E0204600F022F857
:104C8000032084F82600A56815B12046E168A847EE
:104C9000444601A8FDF7C2FC00BF002CDDD1FBF7A4
:104CA000B9FB871B00F030F805480068B84201D214
:104CB00003480760BEE70000CC000020C0000020D1
:104CC000C800002010B50E4B1B68834206D1016955
:104CD0000B4B196039B100234B6104E04169026953
:104CE0000A6102B15161012380F82630002303617B
:104CF0004361044B1B885B1E024C238010BD0000E7
:104D0000C0000020BC00002008B56A46002102480F
:104D1000FDF740FB08BD00000817002070470000A9
:104D200010B5FBF799FE05480078012805D1FDF77D
:104D300041F9FEF76FFBFDF753F910BD3D00002070
:104D400010B592B000BF002000902F48006840F0DE
:104D500080502D4908600846006800F0805000909F
:104D600000BF00BF00BF002000902848006840F44A
:104D70004040264908600846006800F44040009022
:104D800000BF00BF01200690079002200C90410553
:104D90000D9108210E914FF4B4710F9102211091E1
:104DA0000421119106A8FCF7D5F808B1FBF741FBE7
:104DB000FBF70AFF08B1FBF73CFB0F200190022034
:104DC0000290002003904FF4A05004904FF48050C4
:104DD0000590052101A8FBF749FF08B1FBF729FB66
:104DE000FCF72CF84FF47A71B0FBF1F42046FCF795
:104DF00093FA0420FCF77CFA00221146501EFBF7C0
:104E000090FE12B010BD000040380240007000401B
:104E10001448006840F470001249086012480068A5
:104E200040F001001049086000200F490831086077
:104E30000D4800680D4908400B4908600C48091DE1
:104E40000860081F006820F48020091F0860002007
:104E500005490C3108604FF0006002498039086054
:104E60007047000088ED00E000380240FFFFF6FECA
:104E70001030002410B50248FCF76BFA10BD00009A
:104E80000C1D002070B50546AC6B0020E085E08469
:104E90002046FCF742FB70BD0168C96821F490719F
:104EA0000268D1600168496921F00101026851611D
:104EB000202180F83A10704710B504462068C06879
:104EC00020F040002168C860202084F83900204686
:104ED000FCF7F9FD002010BD70B5044694F83A00C7
:104EE000222844D1A068B0F5805F13D1A56A20695B
:104EF00040B920684068C0F308002880A06A801C80
:104F0000A06219E020684068C0B22880A06A401CF6
:104F1000A06211E0206938B920684068C1B2A26A75
:104F2000501CA062117007E02068406800F07F010B
:104F3000A26A501CA0621170E08D401E80B2E08514
:104F400098B92068C06820F490702168C860206813
:104F5000406920F0010021684861202084F83A006F
:104F60002046FCF785FC002070BD0020FCE70220F5
:104F7000FAE700002DE9F0410446002520680569A4
:104F800025F44055E0680543206805612068C56840
:104F900049F20C6085432169A068084361690843B0
:104FA000E169084305432068C5602068456925F428
:104FB0004075A069054320684561E069B0F5004F80
:104FC0007ED1C4492068884203D0C3492068884202
:104FD0005DD1FBF74FFF00EBC00101EB00106168F2
:104FE0004900B0FBF1F06421B0FBF1F00601FBF7E2
:104FF00041FF00EBC00101EB001061684900B0FB0C
:10500000F1F7FBF737FF00EBC00101EB001061681F
:105010004900B0FBF1F06421B0FBF1F000EBC001FE
:1050200001EB0010A7EB8000322101EBC0006421EE
:10503000B0FBF1F000F0F80006EB4006FBF71AFFBA
:1050400000EBC00101EB001061684900B0FBF1F713
:10505000FBF710FF00EBC00101EB00106168490095
:10506000B0FBF1F06421B0FBF1F000EBC00101EB0B
:105070000010A7EB8000322101EBC0006421B0FBDF
:10508000F1F000F0070030442168886020E1FBF770
:10509000DBFE00EBC00101EB001061684900B0FBD2
:1050A000F1F06421B0FBF1F00601FBF7CDFE00EB5F
:1050B000C00101EB001061684900B0FBF1F700E0AE
:1050C00045E0FBF7C1FE00EBC00101EB0010616899
:1050D0004900B0FBF1F06421B0FBF1F000EBC0013E
:1050E00001EB0010A7EB8000322101EBC00064212E
:1050F000B0FBF1F000F0F80006EB4006FBF7A4FE71
:1051000000EBC00101EB001061684900B0FBF1F752
:10511000FBF79AFE00EBC00101EB0010616849004B
:10512000B0FBF1F06421B0FBF1F000EBC00101EB4A
:105130000010A7EB8000322101EBC0006421B0FB1E
:10514000F1F000F00700304421688860C0E0614958
:105150002068884203D06049206888425CD1FBF710
:1051600089FE00EBC00101EB001061688900B0FB13
:10517000F1F6FBF77FFE00EBC00101EB0010616868
:105180008900B0FBF1F06421B0FBF1F000EBC0014D
:1051900001EB0010A6EB8000322101EB001064212E
:1051A000B0FBF1F000F0F006FBF764FE00EBC0018D
:1051B00001EB001061688900B0FBF1F06421B0FBE5
:1051C000F1F006EB0016FBF755FE00EBC00101EB1A
:1051D000001061688900B0FBF1F7FBF74BFE00EBB4
:1051E000C00101EB001061688900B0FBF1F064219F
:1051F000B0FBF1F000EBC00101EB0010A7EB800069
:10520000322101EB00106421B0FBF1F000F00F003F
:105210003044216888605BE0FBF716FE00EBC001BC
:1052200001EB001061688900B0FBF1F6FBF70CFEA2
:1052300000EBC00101EB001061688900B0FBF1F0E8
:105240006421B0FBF1F000EBC00101EB0010A6EB14
:105250008000322101EB00106421B0FBF1F000F07E
:10526000F006FBF7F1FD00EBC00101EB00106168F7
:105270008900B0FBF1F06421B0FBF1F006EB001601
:10528000FBF7E2FD00EBC00101EB00106168890053
:10529000B0FBF1F7FBF7D8FD00EBC00101EB00100C
:1052A00061688900B0FBF1F06421B0FBF1F000EB24
:1052B000C00101EB0010A7EB8000322101EB0010D0
:1052C0006421B0FBF1F000F00F00304421688860E9
:1052D000BDE8F0810010014000140140014691F842
:1052E000390021282CD18868B0F5805F0FD10A6A77
:1052F0001088C0F308000B685860086918B9086A7C
:10530000801C086209E0086A401C086205E00B6A1C
:10531000581C086218780B685860C88C401E80B210
:10532000C88458B90868C06820F080000B68D8604D
:105330000868C06840F040000B68D86000207047E3
:105340000220FCE72DE9F04104460D461746984639
:10535000069E21E0701CF8B12EB1FBF777FBA0EBA5
:105360000800B04218D92068C06820F4D0702168C5
:10537000C8602068406920F0010021684861202051
:1053800084F8390084F83A0000BF002084F838001F
:1053900000BF0320BDE8F081206800682840A842D3
:1053A00001D1012000E00020B842D3D00020F1E775
:1053B00010B50024FCF7FEFD0D48FCF7B9F800BF5E
:1053C00001E0641C00BF0A48FCF7A8F82028F8D1C7
:1053D00000BF002401E0641C00BF0122054904480D
:1053E000FCF714FA0028F6D100BFFCF7F9FD10BD58
:1053F000D41B0020EC00002010B50024FCF7DAFDDF
:105400000D48FCF795F800BF01E0641C00BF0A4896
:10541000FCF784F82028F8D100BF002401E0641CC8
:1054200000BF012205490448FCF7F0F90028F6D135
:1054300000BFFCF7D5FD10BD141C0020F0000020BB
:1054400010B50024FCF7B6FD0D48FCF771F800BF5D
:1054500001E0641C00BF0A48FCF760F82028F8D17E
:1054600000BF002401E0641C00BF0122054904487C
:10547000FCF7CCF90028F6D100BFFCF7B1FD10BD58
:10548000541C0020F400002000BFFEE7014A02493E
:1054900000F013B8055600088001002002E008C89B
:1054A000121F08C1002AFAD170477047002001E09E
:1054B00001C1121F002AFBD170472DE9F0411646A9
:1054C0000F460446002503E03946B047641C6D1CB6
:1054D00020780028F8D12846BDE8F08170B5044650
:1054E0000420FBF705FF1048046025460F480068BC
:1054F0000F49B1FBF0F045430C4800684FF47A7156
:10550000B1FBF0F00B4908804FF0E020006940F05B
:1055100002004FF0E021086108464561006940F053
:105520000100086170BD0000040000203058000830
:1055300040420F000800002070B504460F48007874
:10554000A0B10F48007888B90E480088844206DB75
:105550000C48008894FBF0F5284600F01FF8094835
:10556000008894FBF0F100FB114084B24FF47A7193
:1055700004FB01F000F01AF870BD00003D000020AF
:105580003C0000200800002008B56846FDF70CF834
:1055900008BD08B56846FDF741F808BD38B50446B2
:1055A0006A4608212046FDF7D9FE38BD2DE9F047AF
:1055B000074600264FF0E020D0F81490104800680D
:1055C00007FB00F8FFF7E0FF4FF0E020856911E0EE
:1055D0004FF0E0208469AC420CD0AC4202D2281BD0
:1055E000064403E0A9EB040028440644254646454A
:1055F00000D300E0ECE700BFFFF7CBFFBDE8F0878A
:105600000400002013B50C464FF6FF7301226946D3
:105610000248FCF7EDF900981CBD0000541C002066
:1056200000BF10E0012210210748FBF709FA5020C3
:10563000FFF782FF002210210348FBF701FA4FF425
:105640006670FFF779FFEDE7000802408AB000249A
:10565000FBF70AFAFFF774FBB420FFF73FFFFCF7F4
:1056600035FAFCF761FB09A8FCF7DEFB00BF00BFC1
:10567000FAF7AAFD044600BF00BF09A807210022CF
:105680000592CDE90621089010464FF400713322AF
:105690000C4BCDE90132CDE90310032000230A4A67
:1056A0000AA100900C48FDF74DF900BF00BF20464D
:1056B000FAF78EFD00BF00BF09A8FCF7F9FF00BF95
:1056C000FEE70000701F0020DD5600087374617251
:1056D00074207461736B0000B81E002030B58BB06D
:1056E0000446002500BFFAF749FE0AA8FDF7A8F80E
:1056F00000BF00BFFAF768FD054600BF00BF0AA85B
:10570000072100220592CDE906210890104680214C
:105710000C22164BCDE90132CDE903100420002301
:10572000134A14A100901648FDF70CF90AA80721A6
:1057300000220592CDE906210890104680210C2216
:10574000104BCDE90132CDE90310052000230E4AAC
:105750000EA100901048FDF7F5F800BF00BF2846E5
:10576000FAF736FD00BF00BF0BB030BD282800207F
:10577000215600086C656430207461736B00000072
:1057800070270020E02A00209D5700087761766589
:10579000207461736B000000282A0020002414E0AC
:1057A00000BF00BFFAF710FD044600BF00BF07A00E
:1057B000FFF76CFE00BF00BF2046FAF709FD00BFEF
:1057C00000BF4FF47A70FFF7B7FEE9E731313100DF
:1057D000940100200C000000800000000002000086
:1057E00000000000000000000000000000000000B9
:1057F00000000000000000000000000094030020F2
:10580000800000000002000064000000400600006C
:10581000940500203E0000000A000000D40B002088
:105820000C000000800000000002000040000000AA
:10583000C800000001000000D40D00200C00000092
:105840008000000000020000020000006400000070
:10585000D40F00200C0000008000000000020000B7
:1058600040100000010101007856341201010000CF
:105870000000000000000000000000000000000028
:105880000000000000000000000000000000000018
:1058900000000000000000000101010028000400D9
:1058A00000000000000000000000000000000000F8
:1058B00000000000000000000000000000000000E8
:1058C0000000000001002000010010000C0010008A
:1058D00000000000000000000000000000000000C8
:1058E00000000000000000000000000000000000B8
:1058F00000000000000000000000000001010100A5
:105900002C00010020000C002000400008000400D2
:105910000000000000000000000000000000000087
:105920000000000000000000000000000000000077
:105930000000000000000000000000000000000067
:105940000101010130000000000000000000000023
:105950000000000000000000000000000000000047
:105960000000000000000000000000000000000037
:105970000101010128000C000003000004010101E5
:105980000101010101000101B8000800010100004E
:105990000000000000000000000000000000000007
:1059A00000000000000000000000000000000000F7
:1059B00000000000000000000000000000000000E7
:1059C00001013000C1760000CD060000000000009B
:1059D000010203040102030406070809FC59000838
:1059E00000000020840100005C020008585A0008F2
:1059F000840100205C2F0000AC54000804FA00244D
:105A0000F4021A010517D007D00740343031323381
:105A10003435363738392E76002A4F424A2A5452C6
:105A2000412A54534B2A4C4F43667723626B2372AF
:105A30006B2323726D23626D2377742330313258C8
:105A400030303030AA092022035E0255AA021055D8
:085A5000AA0212550101040035
:04000005080001AD41
:00000001FF
