:020000040800F2
:10000000383B0020F5010008EF3000088925000882
:1000100085300008DB060008456C00080000000081
:10002000000000000000000000000000256400083F
:10003000AF0800080000000027030008C1640008A2
:100040002B0200082B0200082B0200082B020008DC
:100050002B0200082B0200082B0200082B020008CC
:100060002B0200082B0200082B0200082B020008BC
:100070002B0200082B0200082B0200082B020008AC
:100080002B0200082B020008CD0400082B020008F8
:100090002B0200082B0200082B0200082B0200088C
:1000A0002B0200082B0200082B0200082B0200087C
:1000B0002B020008156600082B0200082B0200081E
:1000C0002B0200082B0200082B0200082B0200085C
:1000D0002B0200086D6B0008B56B0008FD6B000873
:1000E0002B0200082B0200082B0200082B0200083C
:1000F0002B0200082B0200082B0200082B0200082C
:100100002B0200082B0200082B0200082B0200081B
:100110002B0200082B0200082B0200082B0200080B
:10012000850700082B0200082B0200082B0200089C
:100130002B0200082B0200082B0200082B020008EB
:100140002B0200082B0200082B0200082B020008DB
:100150002B0200082B0200082B0200082B020008CB
:100160002B0200082B0200082B0200082B020008BB
:100170002B0200082B0200082B02000800000000E0
:100180002B0200082B0200082B0200082B0200089B
:100190002B0200082B0200082B0200082B0200088B
:1001A0002B0200082B0200082B020008DFF80CD0FD
:1001B00000F058F80048004725710008383B00203F
:1001C00072B6704762B67047EFF3108072B6704730
:1001D00080F31088704730BF704720BF7047B0FA77
:1001E00080F0704790FAA0F0B0FA80F0704790FA73
:1001F000A0F070470D488047016841F4700101602C
:10020000BFF34F8FDFF82800016821F04041016003
:10021000BFF36F8F07480047FEE7FEE7FEE7FEE704
:10022000FEE7FEE7FEE7FEE7FEE7FEE7B165000852
:1002300034EF00E0AD01000830B50B460146002068
:100240002022012409E021FA02F59D4205D303FA98
:1002500002F5491B04FA02F52844151EA2F1010219
:10026000F1DC30BD064C074D06E0E06840F00103CC
:1002700094E8070098471034AC42F6D3FFF79AFF92
:10028000607600088076000830B58C1810F8012BD5
:1002900012F00F0301D110F8013B120906D110F83A
:1002A000012B03E010F8015B01F8015B5B1EF9D143
:1002B00001E001F8013B521EFBD1A142E6D3002030
:1002C00030BD0000EFF3098141B1F1EE101A40F8A2
:1002D000041D20ED200A24490A6810607047B0EC24
:1002E000200A02C8E1EE101A20490A68106070471F
:1002F0001F484FF0FF010170002080F309881D485E
:10030000016881F308881C484FF08051016062B693
:10031000FEE719484FF080510160704716484FF0D2
:1003200080510160704772B6EFF3098028B1203820
:1003300080E8F00F0C490968086000B50F48804755
:100340005DF804EB0E480F490A7802700648074929
:100350000A680260106890E8F00F203080F3098886
:100360004EF0F40E62B67047D8000020DC0000208A
:1003700022ED00E01000002004ED00E055480008E8
:1003800056000020570000202DE9FC5F81460D46F5
:1003900090464FF0000B00240026002000900195AD
:1003A000019D680006F012FF074600BF05E039F81E
:1003B000140027F81400601C84B2AC42F7DB002460
:1003C0001BE0002614E037F81610701C37F81000F8
:1003D00081420BDA37F816000090701C37F81000D5
:1003E00027F81600711C009827F81100701C86B2BF
:1003F000681EB042E7DC601C84B2681EA042E0DCEC
:10040000444604E039F814008344601C84B2A5EB30
:100410000800A042F6DCA5EB4800BBFBF0F01FFA99
:1004200080FACDF800A03846DDF800A006F024FEE2
:100430005046BDE8FC9F70B50546AC6B206C00F0E3
:10044000500050BB206C40F400702064206880682D
:1004500000F04050E8B9A069D8B92068C06A00F43B
:10046000700020B12068806800F4806088B920683E
:10047000406820F0200021684860206C20F48070E3
:100480002064206C00F4805018B9206C40F001000A
:100490002064204600F002FB03E0A06BC16C2846FC
:1004A000884770BD70B50546AC6B40202064606C19
:1004B00040F004006064204600F0F2FA70BD70B5B0
:1004C0000446A56B284600F0EAFA70BD10B5024854
:1004D00000F0E7FA10BD0000501D00205A490968DD
:1004E00021F44031594AC2F804131146D1F80413DB
:1004F00042681143544A11600168496821F48071CF
:100500000268516001684A68016942EA0121026893
:1005100051600168496821F04071026851600168CA
:10052000496882681143026851600168896821F452
:1005300000610268916001688968C26811430268BD
:100540009160434A816A914218D00168896821F01C
:1005500070610268916001688968826A114302686B
:1005600091600168896821F04051026891600168DA
:100570008968C26A1143026891600BE0016889686A
:1005800021F07061026891600168896821F0405132
:10059000026891600168896821F002010268916037
:1005A00001688A68816942EA410102689160016AD2
:1005B000D1B10168496841F4006102685160016885
:1005C000496821F460410268516001684A68416AE3
:1005D000491E4FF4604393FAA3F3B3FA83F39940AF
:1005E0000A4301684A6005E00168496821F4006136
:1005F000026851600168C96A21F470010268D16221
:100600000168CA6A818B491E42EA01510268D162BF
:100610000168896821F400710268916001688A6844
:10062000016B42EA4121026891600168896821F406
:1006300080610268916001688A68416942EA8121AB
:1006400002689160704700000423014000200140CF
:100650000100000F70B506460C46154608E030460E
:10066000721C96B200F007F804F8010B681E85B200
:10067000002DF4D170BD70B50446002602F05AF981
:100680002546E11704EB11610912A02202EB41019A
:10069000C8B202F0E3F802F0E7F9E11704EB1161E8
:1006A0000912A4EB0121C8B202F0D8F802F0DCF97B
:1006B00002F040F9A12002F0D1F802F0D5F90020B3
:1006C00002F060F8064602F081F9304670BD10B5C0
:1006D00001F0DEF80446204610BD00BFFEE710B56D
:1006E00000F020F800F01AF810BD000010B500244A
:1006F00000BF00BFFFF768FD044600BF00BF102128
:10070000054802F0C1FC00BF00BF2046FFF760FDB6
:1007100000BF00BF10BD00008C01002010B5FFF726
:10072000E5FF10BD10B500200249086000F00AF88E
:1007300010BD00000C000020014908607047000057
:100740000C00002010B5FFF7C2FF044608480068FF
:1007500040F080700649086000200649486008465D
:10076000006840F0010008602046FFF7E5FF10BD7B
:10077000FCED00E0001000E001494868704700000F
:10078000001000E010B5024800F082FB10BD000030
:10079000981D00200146087810381823B0FBF3F2AA
:1007A0000848805CC865032A05D908686FF309000A
:1007B000001D886503E008686FF309008865886D8F
:1007C0007047000048760008014600208A6A8B695D
:1007D00003BB32B1012A0CD0022A10D0032A17D150
:1007E00015E0CB6A03F08073B3F1807F00D1012064
:1007F0000FE0CB6AB3F1C07F00D1012009E0CB6AE2
:1008000003F08073B3F1807F00D1012001E000E0AC
:1008100000BF35E08B69B3F5005F1BD132B1012A0F
:1008200006D0022A0CD0032A12D10BE0012010E0DE
:10083000CB6A03F08073B3F1807F00D1012008E020
:10084000012006E0CB6AB3F1C07F00D1012000E0B7
:1008500000BF15E032B1012A05D0022A04D0032AD4
:100860000CD103E000BF00BF012008E0CB6A03F019
:100870008073B3F1807F00D1012000E000BF00BF92
:10088000704730B50468246824F4802405682C601F
:10089000046863608468402C04D10468A260046822
:1008A000E16003E00468A1600468E26030BD704765
:1008B00070B505460C4629464FF0784002F074F9B1
:1008C000032006F065FB08E021784FF07A4002F043
:1008D0006BF9641C032006F05BFB20780028F3D141
:1008E00070BD000010B5032202490020FFF7B2FEE0
:1008F00010BD00006301002000BFFEE7704700004C
:1009000018B502460020009000BF92F83C00012874
:1009100001D1022018BD012082F83C0000BF086808
:10092000092816D91068C0680B780A3B03EB43040A
:100930000723A34098431368D8600B780A3B03EB66
:100940004303886898401368DB6818431368D860CD
:1009500013E0106800690B7803EB43040723A340FE
:100960009843136818610B7803EB43038868984039
:1009700013681B691843136818614868072817D261
:100980001068406B0B795B1E03EB83041F23A340AD
:10099000984313685863088880B20B795B1E03EB99
:1009A0008303984013685B6B18431368586331E006
:1009B00048680D2817D21068006B0B79DB1F03EB1A
:1009C00083041F23A340984313681863088880B2E8
:1009D0000B79DB1F03EB8303984013681B6B1843F1
:1009E0001368186316E01068C06A0B790D3B03EBBF
:1009F00083041F23A34098431368D862088880B2F9
:100A00000B790D3B03EB830398401368DB6A1843B3
:100A10001368D8621C4B1068984208D108681228E5
:100A200005D11A48006840F48000C3F80403164B4F
:100A30001068984220D1164B0868984202D0086886
:100A4000112819D11148006840F400000F4B1860BC
:100A50000F4B086898420FD10E4800680E4BB0FB50
:100A6000F3F000EB80004000009002E00098401E90
:100A7000009000980028F9D100BF002082F83C00C7
:100A800000BF00BF46E700000020014004230140F2
:100A9000120000100000002040420F007047704715
:100AA000704770B504460025002620680068C0F332
:100AB000400520684068C0F3401695B38EB3206CA3
:100AC00000F0100018B9206C40F400702064206819
:100AD000806800F04050E8B9A069D8B92068C06AC1
:100AE00000F4700020B12068806800F4806088B94C
:100AF0002068406820F0200021684860206C20F4C5
:100B000080702064206C00F4805018B9206C40F094
:100B1000010020642046FFF7C1FF6FF0120021683A
:100B2000086020680068C0F3800520684068C0F352
:100B3000C016E5B3DEB3206C00F0100018B9206CCD
:100B400040F4005020642068806800F4401038BBF6
:100B50002068806B00F4401020B12068806800F4A9
:100B60008060E8B92068406800F48060C0B92068FF
:100B7000806800F0405098B9A06988B92068406842
:100B800020F0800021684860206C20F480502064B0
:100B9000206C00F4807018B9206C40F001002064D3
:100BA0002046FFF7ABFE6FF00C002168086020685C
:100BB000006800F0010520684068C0F3801685B128
:100BC0007EB12068006800F0010050B1206C40F454
:100BD00080302064204600F053F86FF00100216857
:100BE000086020680068C0F3401520684068C0F3C2
:100BF00080667DB176B1606C40F0020060646FF099
:100C00002000216808602046FFF74AFF6FF02000AF
:100C10002168086070BD000070B5044600250CB95D
:100C2000012070BD1549A06A884200D000BF206C29
:100C300030B90020606484F83C00204600F022F8BF
:100C4000206C00F0100088B9206C20F4885040F02F
:100C5000020020642046FFF741FC00206064206C05
:100C600020F0020040F00100206400E0012500BFF8
:100C7000002084F83C0000BF2846D2E70100000FA6
:100C80007047000010B586B00446204920688842AD
:100C90003AD100BF002000901D48006840F48070E9
:100CA0001B4908600846006800F48070009000BF8F
:100CB00000BF01200190032002900020039001A9B1
:100CC000144800F0CDFA1448144908600020486028
:100CD000002112488160C1604FF4806101614900C8
:100CE0004161890081610021C1614FF400310162DD
:100CF0000021416200F0F0F908B1FFF7FDFD00BFEF
:100D00000648A063846300BF06B010BD0020014008
:100D1000443802400008024010640240981D002040
:100D2000F8B504460D4616460020009000BF94F822
:100D30003C00012801D10220F8BD012084F83C00CC
:100D400000BF2068806800F00100A0B920688068BA
:100D500040F00100216888603C4800683C49B0FBD5
:100D6000F1F000EB4000009002E00098401E00907F
:100D700000980028F9D12068806800F00100002860
:100D800062D0206C40F20161884340F4807020649E
:100D90002068406800F4806028B1206C20F4005086
:100DA00040F480502064206C00F4805020B1606CCE
:100DB00020F00600606401E00020606400BF0020B5
:100DC00084F83C0000BF2348A16BC8632248A16B94
:100DD00008642248A16BC8646FF022002168086093
:100DE0002068406840F08060216848602068806822
:100DF00040F4807021688860226802F14C0133461B
:100E00002A46A06B00F0DCF91548006800F01F00CE
:100E100058B92068806800F0405028B92068806880
:100E200040F08040216888600EE00E4920688842CA
:100E30000AD12068806800F0405028B92068806896
:100E400040F0804021688860002075E700000020A5
:100E500040420F0037040008BF040008A504000842
:100E60000423014000200140014691F8350002288A
:100E700003D08020486501207047052081F83500A7
:100E80000868006820F001000A6810600020F3E79D
:100E9000F8B50446002000908D4800684FF41651C4
:100EA000B0FBF1F7A56D2E6894F85C10082088401F
:100EB000304098B12068006800F0040070B12068EC
:100EC000006820F004002168086094F85C10082095
:100ED0008840A860606D40F00100606594F85C1087
:100EE0007C488840304068B12068406900F080004C
:100EF00040B194F85C1077488840A860606D40F07D
:100F00000200606594F85C107248C01C8840304054
:100F100070B12068006800F0020048B194F85C10DD
:100F20006C48C01C8840A860606D40F0040060659B
:100F300094F85C1010208840304078B32068006836
:100F400000F0080050B394F85C1010208840A860AE
:100F50002068006800F4802080B12068006800F4F8
:100F6000002028B9206CC8B12046216C884715E0C4
:100F7000A06C98B12046A16C88470FE020680068FB
:100F800000F4807028B92068006820F0080021680B
:100F90000860206C10B12046216C884794F85C10E2
:100FA000202088403040002865D02068006800F08C
:100FB000100000285FD094F85C1020208840A860C2
:100FC00094F83500052828D12068006820F0160024
:100FD000216808602068406920F08000216848612D
:100FE000206C08B9A06C28B12068006820F00800C7
:100FF0002168086094F85C103F208840A86000BF1A
:10100000002084F8340000BF012084F83500206DF2
:1010100010B12046216D8847F8BD2068006800F4B3
:10102000802080B12068006800F4002028B9606C3E
:1010300010B12046616C88471DE0E06BD8B12046B6
:10104000E16B884717E02068006800F4807068B999
:101050002068006820F010002168086000BF0020B0
:1010600084F8340000BF012084F83500E06B10B133
:101070002046E16B8847606D38B3606D00F0010079
:10108000F0B1052084F835002068006820F00100E8
:101090002168086000BF0098401C0090B84200D949
:1010A00005E02068006800F001000028F3D100BFCF
:1010B00000BF002084F8340000BF012084F8350010
:1010C000E06C10B12046E16C884700BFA4E7000047
:1010D00000000020010080002DE9F04104460025B9
:1010E00000F0D2F9074614B90120BDE8F081606A2A
:1010F00000B100BF00BF002084F8340000BF022010
:1011000084F835002068006820F00100216808603C
:101110000AE000F0B9F9C01B052805D92020606558
:10112000032084F83500E0E72068006800F0010043
:101130000028EED12068056820480540D4E9010167
:101140000843E16808432169084361690843A169CC
:101150000843E1690843216A08430543606A04289B
:1011600003D1D4E90B0108430543206805602068DA
:10117000456925F00705606A0543606A04280BD1BC
:10118000A06A05432046FFF71FFB28B14020606599
:10119000012084F83500A8E7206845612046FFF764
:1011A000F9FA064694F85C103F208840B0600020B1
:1011B0006065012084F83500002096E73F8010F03C
:1011C0002DE9F04704460D4616461F464FF000082D
:1011D000D4F8589000BF94F83400012802D10220BE
:1011E000BDE8F087012084F8340000BF94F8350092
:1011F00001282BD1022084F83500002060653B4691
:10120000324629462046FFF73CFB94F85C103F200D
:101210008840C9F808002068006840F0160021687E
:1012200008602068406940F0800021684861206CB7
:1012300028B12068006840F0080021680860206834
:10124000006840F001002168086006E000BF00204F
:1012500084F8340000BF4FF002084046C0E70000A9
:10126000F8B502460B460025002400200021E6E0E8
:10127000012606FA01F51E6806EA0504AC4273D1A0
:101280005E68022E02D05E68122E13D1CF0802F1E2
:10129000200656F827004E07F70E0F26BE40B04333
:1012A0004F07FF0E1E69BE403043CF0802F12006F3
:1012B00046F8270010684F000326BE40B0431E7951
:1012C00006F003064F00BE40304310605E68012EFA
:1012D00008D05E68022E05D05E68112E02D05E68CE
:1012E000122E13D190684F000326BE40B0434F002A
:1012F000DE68BE4030439060506801268E40B043A7
:101300001E79C6F300168E4030435060D0684F00FF
:101310000326BE40B0434F009E68BE403043D060BD
:101320005E6806F08056B6F1805FA8D100BF002647
:101330000096454E366846F48046434F3E603E4632
:10134000366806F48046009600BF00BF3F4E8F0807
:1013500056F827008E07370F0F26BE40B0433C4E8D
:10136000B24202D100262EE068E03A4EB24201D1EC
:10137000012628E0384EB24201D1022623E0374E42
:10138000B24201D103261EE0354EB24201D10426FD
:1013900019E0344EB24201D1052614E0324EB24279
:1013A00001D106260FE0314EB24201D107260AE0F4
:1013B0002F4EB24201D1082605E02E4EB24201D195
:1013C000092600E00A268F073F0FBE4030431F4E1C
:1013D0008F0846F82700284E3068A0435E6806F460
:1013E0008036B6F5803F00D12043234E3060361D55
:1013F0003068A0435E6806F40036B6F5003F00D1C1
:1014000020431D4E361D3060361D3068A0435E6897
:1014100006F48016B6F5801F00D12043164E08361C
:101420003060361D3068A0435E6806F40016B6F5DD
:10143000001F00D12043104E0C363060491C10298B
:10144000FFF416AFF8BD00004438024008380140F0
:10145000000002400004024000080240000C02406C
:10146000001002400014024000180240001C02401C
:101470000020024000240240003C01400AB181618A
:1014800001E00B0483617047014800687047000069
:10149000E000002002480068401C014908607047D5
:1014A000E000002010B50D48006840F400700B49C2
:1014B00008600846006840F48060086008460068DC
:1014C00040F480700860032000F094F8002000F0E1
:1014D00007F800F019F8002010BD0000003C0240A1
:1014E00070B50446074800684FF47A71B0FBF1F517
:1014F000284600F03BFC00222146501E00F03CF83C
:10150000002070BD0000002010B5032000F072F82C
:10151000002211466FF00B0000F02EF80022114659
:101520006FF00A0000F028F8002211466FF0090061
:1015300000F022F800221146501F00F01DF8002292
:101540001146101F00F018F800221146901E00F0FE
:1015500013F800221146501E00F00EF810BD00BF17
:1015600000F01F02012191404209920002F1E022A5
:10157000C2F8001100BF70472DE9F05F80460D46AC
:101580001646002701F0B4FD074639462A46334681
:1015900001F00700C0F1070ABAF1040F02D94FF0B9
:1015A000040A01E0C0F1070AD14600F1040ABAF1C9
:1015B000070F02D24FF0000A01E0A0F1030AD4465F
:1015C0004FF0010A0AFA09FAAAF1010A0AEA020A24
:1015D0000AFA0CFA4FF0010B0BFA0CFBABF1010B02
:1015E0000BEA030B4AEA0B042146404601F088FD52
:1015F000BDE8F09F00BF00F00702064B19684FF6E8
:10160000FF031940044B0B4343EA0221014B1960CD
:1016100000BF70470CED00E00000FA0538B500246B
:1016200000BF002000902348006840F0805021490E
:1016300008600846006800F08050009000BF00BFBE
:101640000120010491FAA1F1B1FA81F11A4A42F89C
:101650002100FFF719FF044607E0FFF715FF001B05
:10166000B0F57A7F01D9032038BD1448406800F4F2
:101670008030B0F5803FF0D10120410491FAA1F112
:10168000B1FA81F10C4A42F82100FFF7FDFE044651
:1016900007E0FFF7F9FE001BB0F57A7F01D90320C0
:1016A000E2E70648406800F40030B0F5003FF0D1B2
:1016B0000020D9E74038024000000E420070004090
:1016C00070B504460D4600266D48006800F00F0016
:1016D000A84209D26A490D700846006800F00F0060
:1016E000A84201D0012070BD207800F0020002283D
:1016F00007D16448006820F0F000A1680843614900
:101700000860207800F00100002877D06068012888
:1017100007D15C4808380068C0F34040B8B90120E0
:10172000E1E76068022802D06068032807D15548C5
:1017300008380068C0F3406048B90120D3E7514839
:1017400008380068C0F3400008B90120CBE74D48D5
:10175000006820F00300616808434A490860FFF709
:1017600093FE06466068012810D108E0FFF78CFE62
:10177000801B41F28831884201D90320B3E74148F8
:10178000006800F00C000428F0D137E060680228FF
:1017900010D108E0FFF778FE801B41F288318842C3
:1017A00001D903209FE73748006800F00C000828A3
:1017B000F0D123E06068032810D108E0FFF764FE51
:1017C000801B41F28831884201D903208BE72D48E4
:1017D000006800F00C000C28F0D10FE008E0FFF7E3
:1017E00053FE801B41F28831884201D903207AE7F9
:1017F0002448006800F00C000028F0D12048006860
:1018000000F00F00A84209D91D490D700846006874
:1018100000F00F00A84201D0012064E7207800F01A
:101820000400042807D11748006820F4E050E1685C
:10183000084314490860207800F00800082808D1FF
:101840001048006820F46040216940EAC1000D4959
:10185000086000F04FF80B49096801F0F001F02230
:1018600092FAA2F2B2FA82F2D140074A515CC84021
:10187000064908600020FFF733FE002033E7000030
:10188000003C02400838024050760008000000206A
:1018900001480068704700000000002000B5FFF715
:1018A000F7FF0749096801F4E0514FF4E05292FA5A
:1018B000A2F2B2FA82F2D140024A515CC84000BDA5
:1018C000083802405076000800B5FFF7E1FF0749ED
:1018D000096801F460414FF4604292FAA2F2B2FA50
:1018E00082F2D140024A515CC84000BD0838024033
:1018F0005076000870B50021002200230020274CFC
:10190000246804F00C0424B1042C04D0082C41D128
:1019100003E0234840E023483EE0204C241F246895
:1019200004F03F011D4C241F246804F4800484B19A
:101930001C4CB4FBF1F5194C241F246847F6C07603
:10194000344096FAA6F6B6FA86F6F44005FB04F2A1
:101950000FE0134CB4FBF1F5104C241F246847F63C
:10196000C076344096FAA6F6B6FA86F6F44005FB41
:1019700004F20A4C241F246804F440344FF4403528
:1019800095FAA5F5B5FA85F5EC40641C6300B2FB49
:10199000F3F001E0024800BF00BF70BD083802400C
:1019A0000024F40000127A0038B50446002520789F
:1019B00000F00100002848D0DE48006800F00C006C
:1019C00004280DD0DB48006800F00C00082811D175
:1019D000D848001F006800F48000B0F5800F09D1DE
:1019E000D44808380068C0F3404070B3606860BBFA
:1019F000012038BD2079CF49891F0870606890B1F7
:101A0000FFF742FD054606E0FFF73EFD401B642858
:101A100001D90320EDE7C74808380068C0F340400B
:101A20000028F1D011E0FFF72FFD054606E0FFF793
:101A30002BFD401B642801D90320DAE7BD48083894
:101A40000068C0F340400028F1D1207800F0020087
:101A5000022869D1B748006800F00C0058B1B548B9
:101A6000006800F00C00082821D1B248001F00686F
:101A700000F48000D8B9AF4808380068C0F34000CF
:101A800020B1E068012801D00120B2E7A948083858
:101A9000006820F0F800F82292FAA2F2B2FA82F27C
:101AA000216991400843A349083908603CE0E06897
:101AB00028B30120A0490860FFF7E6FC054606E0D0
:101AC000FFF7E2FC401B022801D9032091E7994867
:101AD00008380068C0F340000028F1D09548083865
:101AE000006820F0F800F82292FAA2F2B2FA82F22C
:101AF0002169914008438F490839086014E00020AB
:101B00008D490860FFF7C0FC054606E0FFF7BCFC06
:101B1000401B022801D903206BE78648083800687B
:101B2000C0F340000028F1D1207800F00800082818
:101B30002CD16069A8B1012080490860FFF7A4FC9E
:101B4000054606E0FFF7A0FC401B022801D9032050
:101B50004FE778486C300068C0F340000028F1D0AF
:101B600014E0002075490860FFF78EFC054606E08A
:101B7000FFF78AFC401B022801D9032039E76D4892
:101B80006C300068C0F340000028F1D1207800F0EC
:101B90000400042857D100BF002000906548383069
:101BA000006840F08050634938310860084600689A
:101BB00000F08050009000BF00BF6148006840F412
:101BC00080705F490860FFF75FFC054606E0FFF79D
:101BD0005BFC401B022801D903200AE75848006833
:101BE00000F480700028F2D0207A524968310870E1
:101BF000A068A0B1FFF748FC054608E0FFF744FCE9
:101C0000401B41F28831884201D90320F1E649485E
:101C100068300068C0F340000028EFD013E0FFF701
:101C200033FC054608E0FFF72FFC401B41F28831EA
:101C3000884201D90320DCE63E4868300068C0F3E2
:101C400040000028EFD1A069F0B33A48006800F0E6
:101C50000C00082869D0A069022850D1002036491C
:101C60000866FFF711FC054606E0FFF70DFC401B78
:101C7000022801D90320BCE62E4808380068C0F3CA
:101C800040600028F1D1D4E90701084347F6C0724B
:101C900092FAA2F2B2FA82F2616A914008430122FA
:101CA000A16AC2EB51014FF4403292FAA2F2B2FAA9
:101CB00082F2914008434FF0706292FAA2F2B2FAB7
:101CC00082F2E16A914000E031E008431949091FBE
:101CD0000860012018490866FFF7D6FB054606E0B4
:101CE000FFF7D2FB401B022801D9032081E61148EF
:101CF00008380068C0F340600028F1D017E00020E9
:101D00000D490866FFF7C0FB054606E0FFF7BCFB80
:101D1000401B022801D903206BE6064808380068FA
:101D2000C0F340600028F1D101E0012061E600200D
:101D30005FE600000838024000004742800E47423C
:101D400000700040042808D14FF0E021096941F0FB
:101D500004014FF0E022116107E04FF0E021096932
:101D600021F004014FF0E0221161704770B5044684
:101D70002546681EB0F1807F01D301200FE0681E68
:101D80004FF0E02148610F214FF0FF3001F0B8F92A
:101D900000204FF0E021886107200861002070BD1D
:101DA0007047704701460868C06840F001000A6843
:101DB000D0600868006840F001000A6810600020E8
:101DC0007047704710B5044620680069C0F34000B2
:101DD000D8B12068C068C0F34000B0B16FF0020015
:101DE00021680861012020762068806900F00300E6
:101DF00018B12046FFF7E5FF05E0204600F0ADF8FA
:101E0000204600F0ABF80020207620680069C0F37F
:101E10008000D8B12068C068C0F38000B0B16FF016
:101E2000040021680861022020762068806900F49F
:101E3000407018B12046FFF7C4FF05E0204600F0CF
:101E40008CF8204600F08AF800202076206800698F
:101E5000C0F3C000D8B12068C068C0F3C000B0B102
:101E60006FF0080021680861042020762068C069AE
:101E700000F0030018B12046FFF7A3FF05E020465D
:101E800000F06BF8204600F069F80020207620680A
:101E90000069C0F30010D8B12068C068C0F300101A
:101EA000B0B16FF01000216808610820207620682A
:101EB000C06900F4407018B12046FFF782FF05E0CA
:101EC000204600F04AF8204600F048F8002020762E
:101ED0002068006900F0010058B12068C06800F077
:101EE000010030B16FF0010021680861204600F068
:101EF0005DF820680069C0F3C01058B12068C06860
:101F0000C0F3C01030B16FF0800021680861204636
:101F1000FFF746FF20680069C0F3801058B12068C1
:101F2000C068C0F3801030B16FF0400021680861D4
:101F3000204600F051F820680069C0F3401058B105
:101F40002068C068C0F3401030B16FF020002168F5
:101F500008612046FFF725FF10BD7047704700005D
:101F600030B504460D4601222946206804F05AFB8C
:101F70000C492068884203D00B492068884201D16F
:101F8000012000E0002028B12068406C40F40040AF
:101F9000216848642068006840F0010021680860FA
:101FA000002030BD00000140000401400146084807
:101FB00081420BD1002007E0064A32F81020521C63
:101FC000044B23F81020401C0228F5DB704700006A
:101FD000141D0020F80000207047704701460022C1
:101FE000002391F8392091F83A3042EA0300704713
:101FF0002DE9F0470446206805682068C668206817
:1020000047694FF00008C14605F00F08B8F1000F0E
:102010000AD105F0200038B106F0200020B120469A
:1020200004F038FBBDE8F087B8F1000F6DD007F081
:10203000010018B906F49070002866D005F0010080
:1020400030B106F4807018B1E06B40F00100E0633D
:1020500005F0040030B107F0010018B1E06B40F06A
:102060000200E06305F0020030B107F0010018B192
:10207000E06B40F00400E06305F0080030B107F0C9
:10208000010018B1E06B40F00800E063E06B68B35A
:1020900005F0200028B106F0200010B1204604F021
:1020A000F9FA20684069C0F38019E06B00F008007D
:1020B00010B9B9F1000F22D0204604F0CBFA206805
:1020C000406900F04000B0B12068406920F0400055
:1020D00021684861606B50B11748616B0865606B9F
:1020E000FEF7C2FE10B1606B016D88470CE0204620
:1020F000FFF773FF08E02046FFF76FFF04E020467C
:10210000FFF76BFF0020E0638CE705F0800030B143
:1021100006F0800018B1204604F0BEFC82E705F00E
:10212000400030B106F0400018B1204604F0A2FA99
:1021300078E700BF76E700004166000810B5044666
:102140000CB9012010BDA06900B100E000BF94F8F7
:10215000390028B9002084F83800204600F028F81B
:10216000242084F839002068C06820F400502168D9
:10217000C860204604F0DCFA2068006920F4904032
:10218000216808612068406920F02A0021684861C0
:102190002068C06840F400502168C8600020E063F7
:1021A000202084F8390084F83A000020CAE70000B3
:1021B00010B586B004463F49206888421FD100BF51
:1021C000002000903C48006840F010003A49086048
:1021D0000846006800F01000009000BF00BF4FF4F8
:1021E000C060019002200290012003900220049020
:1021F0000720059001A93148FFF732F857E0304930
:102200002068884220D100BF002000902A48001F8B
:10221000006840F400302849091F0860084600683B
:1022200000F40030009000BF00BF0C20019002209D
:10223000029001200390022004900720059001A93C
:102240001E48FFF70DF832E01E49206888422ED163
:1022500000BF002000901848001F006840F4802054
:102260001549091F08600846006800F480200090A6
:1022700000BF00BF081501900220029001200390CA
:10228000022004900720059001A90F48FEF7E8FFFF
:102290004FF4006001900220029001200390022080
:1022A00004900720059001A90748FEF7D9FF06B062
:1022B00010BD000000100140443802400000024000
:1022C00000440040004800400004024010B50346AE
:1022D00093F83A00202829D101B10AB9012010BD94
:1022E00000BF93F83800012801D10220F7E7012050
:1022F00083F8380000BF99629A85DA850020D86398
:10230000222083F83A0000BF002083F8380000BF85
:102310001868406940F001001C6860611868C06876
:1023200040F490701C68E0600020D8E70220D6E7F7
:102330004D4A016891422ED14C4909782A2905D18C
:1023400001214B4A118000214A4A118047490978EE
:10235000232905D10021464A11800121454A1180D7
:102360004349098801297DD140490978424A1288A8
:10237000C2F30D02414B99543F490988491C3E4A1A
:10238000118011460988C7296CDD0021384A118067
:10239000394A118066E03A4A0168914230D13949A0
:1023A0000978AA2907D10121374A11800021374A2B
:1023B0001180374A118033490978552905D1002108
:1023C000314A11800121314A11802F4909880129A0
:1023D00048D12C4909782E4A1288C2F30D022D4BA0
:1023E00099542B490988491C294A118011460988AA
:1023F000C72937DD0021244A1180254A118031E0A8
:10240000254A016891422DD1244909782A2905D10C
:102410000121234A11800021224A11801F49097895
:10242000232905D100211E4A118001211D4A118056
:102430001B490988012915D1184909781A4A1288B7
:10244000C2F30D02194B995417490988491C164AC1
:10245000118011460988C72904DD0021104A118026
:10246000114A11807047000000100140EC0000206C
:102470000001002002010020E4000020BC18002020
:1024800000440040F000002004010020060100206C
:10249000EE0000204C1A002000480040F40000200C
:1024A000080100200A010020F2000020141B002077
:1024B0002DE9F84304460D4616461F464FF0000925
:1024C00094F8390020285CD105B116B90120BDE887
:1024D000F88300BF94F83800012801D10220F6E704
:1024E000012084F8380000BF0020E063212084F838
:1024F0003900FEF7C9FF8146A684E6842BE0E08C14
:10250000401EE084A068B0F5805F16D14B460022E3
:1025100080212046009704F0F3FA08B10320D6E7A3
:10252000A846B8F80000C0F3080021684860206998
:1025300008B9AD1C0FE06D1C0DE04B460022802158
:102540002046009704F0DCFA08B10320BFE715F835
:10255000010B21684860E08C0028D0D14B46002256
:1025600040212046009704F0CBFA08B10320AEE7E3
:10257000202084F8390000BF002084F8380000BF14
:10258000A5E70220A3E7704700BFFEE710B50020D3
:102590000F4908600F48006820F440200D4908608A
:1025A0000846006840F48020086000200A49C1F80D
:1025B000A402022004F026FD012005490860022043
:1025C00004F020FD00200449C1F8A00210BD000065
:1025D000A0824042000402400080404210B500202A
:1025E0000F4908600F48006820F440500D4908600A
:1025F0000846006840F48050086000200A49C1F88D
:1026000098020A2004F0FEFC0120054908600A2017
:1026100004F0F8FC00200449C1F89C0210BD000041
:102620009C824042000402400080404200B587B0D6
:1026300000BF002001901048006840F002000E49E1
:1026400008600846006800F00200019000BF00BF6B
:102650004FF44070029001200390049002200590F6
:1026600002A90648FEF7FCFD01200549086005495E
:10267000C1F8A00207B000BD30380240000402409B
:10268000A48240420080404200B587B000BF0020D5
:1026900001901048006840F002000E4908600846AA
:1026A000006800F00200019000BF00BFC02002904F
:1026B0000120039004900220059002A90648FEF72D
:1026C000CFFD0120054908600549C1F89C0207B00B
:1026D00000BD0000303802400004024098824042B1
:1026E0000080404210B500200F4908600F48006884
:1026F00020F440200D4908600846006840F480201E
:10270000086001200A49C1F8A402022004F07AFC02
:10271000012005490860022004F074FC00200449EF
:10272000C1F8A00210BD0000A08240420004024097
:102730000080404210B500200F4908600F48006833
:1027400020F440500D4908600846006840F480506D
:10275000086001200A49C1F898020A2004F052FCDE
:102760000120054908600A2004F04CFC00200449BF
:10277000C1F89C0210BD00009C824042000402404F
:102780000080404270B5054600241648006820F4D9
:10279000402014490860084600680860002616E0DA
:1027A000002011490860022004F02CFC01200F4990
:1027B000C1F8A0026006040E0B487C38006808B11E
:1027C000601CC4B2012004F01DFC701CC6B2082EAF
:1027D000E6DB15B9FFF786FF01E0FFF7D7FE2046DD
:1027E00070BD000000040240A082404200804042D0
:1027F00070B5054600241648006820F4405014497E
:102800000860084600680860002616E000201149AC
:1028100008600A2004F0F6FB01200F49C1F89C0271
:102820006006040E0B488438006808B1601CC4B20E
:10283000052004F0E7FB701CC6B2082EE6DB15B9D4
:10284000FFF778FF01E0FFF7C9FE204670BD0000EA
:10285000000402409C8240420080404270B5044621
:102860001548006820F440201349086008460068B5
:1028700040F480200860002010490860002517E01F
:10288000E0090E49091D08606006040E022004F0EC
:10289000B9FB01200A49C1F8A002022004F0B2FBF2
:1028A000002006490860022004F0ACFB681CC5B299
:1028B000082DE5DB70BD000000040240A08240420C
:1028C0000080404270B504461748006820F440502C
:1028D000154908600846006840F4805008600020F0
:1028E00012490860002517E0E0091049091F086037
:1028F0006006040E0A2004F085FB01200C49C1F893
:102900009C020A2004F07EFB0020084908600A208F
:1029100004F078FB681CC5B2082DE5DB01200349F3
:10292000091F086070BD0000000402409C82404204
:102930000080404210B50F48006820F440200D4947
:1029400008600846006840F48020086001200A49B9
:1029500008600A49C1F8A002042004F053FB0020DB
:1029600005490860042004F04DFB00200349C1F82C
:10297000A00210BD00040240A482404200804042F8
:1029800010B50F48006820F440500D490860084613
:10299000006840F48050086001200A4908600A4934
:1029A000C1F89C020A2004F02DFB002005490860B4
:1029B0000A2004F027FB00200349C1F89C0210BD47
:1029C00000040240988240420080404210B50F4807
:1029D000006820F440200D4908600846006840F473
:1029E0008020086000200A4908600A49C1F8A40252
:1029F000042004F007FB0120054908600549C1F8DF
:102A0000A402042004F0FEFA10BD000000040240FD
:102A1000A08240420080404210B51048006820F477
:102A200040500E4908600846006840F48050086035
:102A300001200B49086000200A49C1F898020A20C9
:102A400004F0E0FA01200649091F08600A2004F09A
:102A5000D9FA00200349C1F89C0210BD00040240CD
:102A60009C8240420080404210B500241348006818
:102A700020F44020114908600846006808600120E1
:102A80000F49086004F0BEFA01200E49C1F8A00207
:102A900004F0B8FA07E0601CC4B2FA2C03DDFFF7BB
:102AA00095FF012010BD0648803800680028F2D14B
:102AB0000349091F086000BFF4E70000000402405A
:102AC000A48240420080404210B5002414480068AF
:102AD00020F4405012490860084600680860012050
:102AE00010490860062004F08DFA01200E49C1F853
:102AF0009C02062004F086FA07E0601CC4B2FA2C9F
:102B000003DDFFF789FF012010BD0648803800680B
:102B10000028F2D10349091D086000BFF4E7000056
:102B200000040240988240420080404270B5044652
:102B30000D460026FFF724FF2046FFF7C3FEFFF7F0
:102B4000C3FF2846FFF7BEFEFFF7BEFFFFF718FFE3
:102B5000611CC8B2FFF7B6FEFFF7B6FFC82004F04D
:102B600051FA0020FFF744FE0646FFF755FF3046B6
:102B700070BD70B506460C461546FFF701FF30469E
:102B8000FFF7A0FE00BFFFF79FFF0028FBD1204604
:102B9000FFF798FEFFF798FF2846FFF793FEFFF731
:102BA00093FFFFF739FF70BD2DE9F04104460D4654
:102BB000264600224FF400511D48FEF75FFC05F049
:102BC000F000000405F00F0100EB01300643012284
:102BD00051031748FEF752FC00271EE006F00040A4
:102BE00028B1012291031248FEF748FC05E00022BB
:102BF0004FF480410E48FEF741FC0122D1030C48FE
:102C0000FEF73CFC022004F0C3F900224FF400411F
:102C10000748FEF733FC76007F1C182FDED3002216
:102C20004FF400510248FEF729FCBDE8F081000096
:102C3000001C024010B500224FF400511E48FEF760
:102C40001DFC00224FF480711C48FEF717FC642025
:102C500004F09EF9012211021848FEF70FFC28200B
:102C600004F096F914214FF07840FFF79DFF2820DB
:102C700004F08EF930214FF07840FFF795FF2820BF
:102C800004F086F90C214FF07840FFF78DFF2820E3
:102C900004F07EF901214FF07840FFF785FF2820EE
:102CA00004F076F906214FF07840FFF77DFF2820E9
:102CB00004F06EF910BD0000001C0240002002402C
:102CC0001FB51348134908604FF480304860002155
:102CD0001048816001610121816100210162C162AE
:102CE000C1600121C16101634161FDF795FF08B138
:102CF000FDF702FE0A2000900120019000200290C2
:102D000069460448FDF7FCFD08B1FDF7F5FD1FBD60
:102D100000200140501D002008B500BF0020009099
:102D20000648006840F480000449086008460068CE
:102D300000F48000009000BF00BF08BD30380240A2
:102D400000B587B000BF002001909248006840F0B5
:102D50002000904908600846006800F020000190BB
:102D600000BF00BF00BF002001900846006840F08F
:102D7000800008600846006800F08000019000BFF5
:102D800000BF00BF002001900846006840F001002D
:102D900008600846006800F00100019000BF00BF15
:102DA00000BF002001900846006840F00200086063
:102DB0000846006800F00200019000BF00BF00BF9D
:102DC000002001900846006840F0040008600846B2
:102DD000006800F00400019000BF00BF00BF0020A9
:102DE00001900846006840F0080008600846006846
:102DF00000F00800019000BF00BF00BF002001905C
:102E00000846006840F0100008600846006800F0BE
:102E10001000019000BF00BF00BF002001900846D5
:102E2000006840F0400008600846006800F040007C
:102E3000019000BF00BF00BF00200190084600685D
:102E400040F4807008600846006800F480700190CB
:102E500000BF00BF50200290012003900490032087
:102E6000059002A94C48FEF7FBF9042002900120CE
:102E7000039004900320059002A94848FEF7F0F95A
:102E800078200290002003900120049003200590F8
:102E900002A94248FEF7E4F90C20029000200390BA
:102EA000012004900320059002A93D48FEF7D8F9BF
:102EB0004FF460400290012003900490032005909D
:102EC00002A93848FEF7CCF94FF480700290012037
:102ED000039004900320059002A93348FEF7C0F93F
:102EE0004FF4A0500290012003900490032005901D
:102EF00002A92B48FEF7B4F94FF4004002900120DC
:102F0000039004900320059002A92848FEF7A8F931
:102F1000402002900120039004900320059002A914
:102F20002348FEF79DF94FF40070029001200390B2
:102F300004900320059002A91748FEF791F9012299
:102F400010211748FEF79AFA012210211248FEF7C5
:102F500095FA012240211048FEF790FA0122D10390
:102F60001248FEF78BFA012291020D48FEF786FA0D
:102F7000012211030A48FEF781FA012240210C4880
:102F8000FEF77CFA012251020348FEF777FA07B0F8
:102F900000BD00003038024000080240001002402E
:102FA00000180240001C02400020024000040240C1
:102FB000000C024010B5002201211220FEF7DCFABD
:102FC0001220FEF7CCFA002204212620FEF7D4FAC4
:102FD0002620FEF7C4FA002205212720FEF7CCFAAE
:102FE0002720FEF7BCFA002202213820FEF7C4FA9F
:102FF0003820FEF7B4FA002206211D20FEF7BCFAA5
:103000001D20FEF7ACFA0A48FEF7CCFE0021094865
:10301000FEF7A6FF00210748FEF7A2FF642206493B
:103020000648FDF77DFE08B1FDF766FC10BD000007
:10303000141D0020D81C0020F81D0020501D002069
:1030400010B50D480D4908604FF4E130486000218B
:103050000A488160C16001610C21416100218161E8
:10306000C161FFF76BF808B1FDF746FC0122044986
:103070000248FFF72BF910BD004800405C1C0020FF
:10308000F400002000BFFEE730B505460C4622469E
:103090000021284600F001F830BD2DE9F041054639
:1030A0000B4694460027002402E03F021F43641CA5
:1030B000042CFAD3604605F00306294646B134468F
:1030C00003E001F8013B401E641C08B1042CF8D356
:1030D0000A4601E080C2001F0428FBD2114602E02C
:1030E00001F8013B401E0028FAD1BDE8F08170478D
:1030F00002480068C0F30220704700000CED00E0B9
:1031000010B5002807DA0A07140E054A00F00F036D
:103110001B1FD45403E00A07130E024A135410BDB8
:1031200018ED00E000E400E07047000010B503482F
:10313000006810B101480068804710BD28000020D9
:1031400070B5044600F0AEF80020414908704149CE
:103150000870414908704149086041490860414987
:103160000870414908704149087041490860414967
:103170000860414908604148006858B14048056806
:1031800045B13E48066803E0761E002028602D1DEC
:10319000002EF9D100203B4908603B4908603B49BB
:1031A00008603B4908603B4908603B4908603B496F
:1031B00008603B49087001F0B3FF01F0EDFF2046C5
:1031C00001F000FD208800B170BD204601F060FDD7
:1031D000208800B1F8E7204601F066FD208800B1A4
:1031E000F2E7204601F0E0FD208800B1ECE7204640
:1031F00001F0C6FF208800B1E6E7204602F0A4F8FF
:10320000208800B1E0E7204602F068FB208800B18A
:10321000DAE7204601F004FD208800B1D4E720461B
:1032200002F07EFF208800B1CEE7204602F0A0FA2F
:10323000208800B1C8E7204602F0D6FF208800B100
:10324000C2E701F0EBFBFFF76FFF00BFBCE7000038
:103250003C0000203D00002070000020D80000202D
:10326000DC000020560000205700002058000020FD
:1032700064000020680000206C0000207C740008BE
:10328000787400081C00002020000020240000208A
:10329000280000202C0000203000002034000020F6
:1032A0009E000020064800680649096800EB81007E
:1032B000054908600846006820F00700086070476C
:1032C000787400087C74000810000020084800781A
:1032D000012800D0704707480078FA2800DBF9E79A
:1032E00004480078401C0349087000BFF2E7000062
:1032F0003D0000203C00002010B500242D4800783F
:10330000012800D010BD00BFFCF75EFF044600BFDF
:103310002948007828B900BF2046FCF759FF00BFB4
:10332000F0E725480078401E2349087008460078D9
:10333000002805DD00BF2046FCF74AFF00BFE1E79B
:103340001E480078002805DD00BF2046FCF740FF3E
:1033500000BFD7E701F0D0FE194908700846007891
:1033600000EB4000174951F8200017490860084653
:10337000006816490968884205D100BF2046FCF75D
:1033800027FF00BFBEE710480068D0F88400401C4B
:103390000D490968C1F884000D480068401C0C49BB
:1033A0000860FCF7BBFF00BF2046FCF711FF00BF21
:1033B00000BFA7E73D0000203C0000207000002077
:1033C00057000020A0120020DC000020D8000020C0
:1033D000940000202DE9F04104460E4615460027D2
:1033E0001B480078002804DD42F6E1602880BDE833
:1033F000F0811CB945F6C3502880F8E700BF00BF34
:10340000FCF7E2FE074600BF00BF1248206066607E
:103410000020206284F82500A062402084F8240067
:1034200004F1080001F077FD204601F0A5FC0A48F0
:103430000088401C0849088000BF00BF3846FCF7E0
:10344000C7FE00BF00BF0020288000BFCFE70000FC
:103450003C0000204D555458540000202DE9F04701
:1034600088B00546894690461C46109E4FF0000ADB
:103470008A480078002805DD46F2AE10308008B09A
:10348000BDE8F0871DB945F6C3503080F7E7B8F1C5
:10349000000F03D0B8F5004F02D100E000BF03E0F9
:1034A00045F625603080EAE700BF7D4928688842FC
:1034B00003D045F6C4503080E1E70CB10020206015
:1034C00000BF00BFFCF780FE824600BF00BF95F83A
:1034D0002500C0B97348006828627248006890F8F7
:1034E000370085F82400012085F825000CB1A86A72
:1034F000206000BF00BF5046FCF76AFE00BF00BF5F
:1035000000203080BBE76749286A0968884212D1E9
:1035100095F82500401C85F825000CB1A86A2060AC
:1035200000BF00BF5046FCF753FE00BF00BF45F28E
:1035300082703080A3E708F4004050B100BF00BFA4
:103540005046FCF745FE00BF00BF46F2B010308089
:1035500095E75548007800280ADD00BF00BF5046B7
:10356000FCF736FE00BF00BF46F66350308086E7AA
:103570002F6A97F837004B49096891F8371088424D
:103580003ADD97F8360008282AD2DFE800F0041563
:103590001E1F17162021384601F064FE41480068BE
:1035A00090F8370087F8370097F8370001F0C4FD2E
:1035B000384601F019FE1EE000BF00BF3948006820
:1035C00090F8370087F8370015E000BF00BF00BF54
:1035D0003448006890F83710384601F079FC0AE06A
:1035E00000BF00BF5046FCF7F3FD00BF00BF46F62A
:1035F0002D60308043E700BF4B46042229466846D1
:1036000001F0DEFB00BF00BF5046FCF7E1FD00BF4C
:1036100000BF00F005F900BF00BFFCF7D5FD8246F2
:1036200000BF00BF1F48006890F8350030B1012886
:103630000CD002281AD0032821D110E01CB119485F
:103640000068006C2060002030801CE01CB1154830
:103650000068006C206046F2A910308013E00CB1C5
:103660000020206047F2D92030800CE01CB10D48CA
:103670000068006C206045F6C250308003E046F6DA
:103680002E60308000BF00BF00BF00BF5046FCF777
:103690009FFD00BF00BF00BFF1E600003C0000201E
:1036A0004D555458D8000020700000202DE9F84FE7
:1036B0000446884615464FF0000A55480078002811
:1036C00004DD46F20E202880BDE8F88F1CB945F6CF
:1036D000C3502880F8E7B8F1000F03D0B8F5004FC9
:1036E00002D100E000BF03E045F625602880EBE74B
:1036F00000BF48492068884203D045F6C45028805E
:10370000E2E700BF00BFFCF75FFD824600BF00BFDD
:103710004149206A096888420AD000BF00BF50466C
:10372000FCF756FD00BF00BF45F281702880CBE753
:10373000FDF722F80746A76294F82500401E84F89A
:10374000250094F8250000280ADD00BF00BF504680
:10375000FCF73EFD00BF00BF45F283702880B3E751
:1037600004F10809B9F8080068B90020206284F85B
:10377000250000BF00BF5046FCF72AFD00BF00BF78
:1037800000202880A0E72448006890F8370094F8CB
:103790002410884219D02048006801F063FD94F895
:1037A00024001D49096881F837001B49096891F810
:1037B000370001F0C1FC1848006801F035FD1648DB
:1037C000006890F8370015490870D9F8000086683D
:1037D000266296F8370084F82400012084F825003A
:1037E00000231A4631462046009701F005FC00BF31
:1037F00000BF5046FCF7ECFC00BF00BF08F40040DF
:1038000008B900F00DF80020288000BF5CE7000038
:103810003C0000204D555458D80000205600002090
:1038200010B500241F480078002800DD10BD1E4898
:103830000078002800DDF9E700BFFCF7C5FC04466E
:1038400000BF01F059FC194908700846007800EBE8
:103850004000174951F820001649086008460068E2
:1038600015490968884205D100BF2046FCF7B0FC25
:1038700000BFDBE70F480068D0F88400401C0D490A
:103880000968C1F884000D480068401C0B490860B5
:10389000FCF73FFD00BF2046FCF79AFC00BF00BFCD
:1038A000C4E700003C00002070000020570000200A
:1038B000A0120020DC000020D8000020940000208E
:1038C00070B50446002518480078002803DD46F648
:1038D0006250208070BD15480078012803D045F65D
:1038E00089602080F6E712480078FA2803DB45F269
:1038F00009202080EEE700BF00BFFCF765FC05460D
:1039000000BF00BF0A480078401C0949087001F058
:10391000D7FC00BF00BF2846FCF75AFC00BF00BF21
:103920000020208000BFD5E73C0000203D000020A3
:103930007000002070B5044600252048007800285B
:1039400003DD46F66550208070BD1D4800780128D3
:1039500003D045F689602080F6E71A48007818B948
:1039600046F664502080EFE700BF00BFFCF72CFC58
:10397000054600BF00BF13480078401E114908707B
:103980000846007800280ADD00BF00BF2846FCF783
:103990001FFC00BF00BF46F663502080D4E701F053
:1039A0009DFC00BF00BF2846FCF712FC00BF00BF13
:1039B000FFF736FF0020208000BFC5E73C00002055
:1039C0003D000020700000202DE9F04104460E4625
:1039D00017461D464FF0000818480078002804DDFF
:1039E00042F6E1602880BDE8F0811CB945F6C3507D
:1039F0002880F8E700BF00BFFCF7E6FB804600BF69
:103A000000BF0F482060276200206062666004F1FA
:103A1000080001F080FA204601F07EFC0948008889
:103A2000401C0849088000BF00BF4046FCF7D0FB9F
:103A300000BF00BF0020288000BFD4E73C0000206A
:103A400053454D41780000202DE9F04788B00646E7
:103A5000894690461C46109D4FF0000A6048007849
:103A6000002806DD46F2AE102880002008B0BDE830
:103A7000F08726B945F6C35028800020F6E7B8F154
:103A8000000F03D0B8F5004F02D100E000BF04E002
:103A900045F6256028800020E8E700BF51493068DE
:103AA000884204D045F6C45028800020DEE70CB1DF
:103AB0000020206000BF00BFFCF786FB824600BFED
:103AC00000BF306A88B1306A401E30620CB1706A43
:103AD0002060376A00BF00BF5046FCF779FB00BF8B
:103AE00000BF002028803846C0E708F4004060B1DD
:103AF000376A00BF00BF5046FCF76AFB00BF00BF3B
:103B000046F2B01028803846B0E7374800780028E1
:103B10000BDD00BF00BF5046FCF75AFB00BF00BFE3
:103B200046F6635028800020A0E74B460622314627
:103B3000684601F045F900BF00BF5046FCF748FB5E
:103B400000BF00BFFFF76CFE00BF00BFFCF73CFBEF
:103B5000824600BF00BF2548006890F8350030B1AC
:103B600001280CD002281AD0032821D110E01CB162
:103B70001E480068006C20600020288024E01CB1F2
:103B80001A480068006C206046F2A91028801BE0EB
:103B90000CB10020206047F2D920288014E01CB12D
:103BA00012480068006C206045F6C25028800BE087
:103BB00046F62E60288000BF00BF5046FCF708FB89
:103BC00000BF00BF002051E700BF376A00BF00BF41
:103BD0005046FCF7FDFA00BF00BF384646E700003C
:103BE0003C00002053454D4170000020D8000020CB
:103BF0002DE9F04105460E4614462DB945F6C35051
:103C000020800020BDE8F0814EB1B6F5007F07D0DE
:103C1000B6F5004F05D0B6F5024F04D102E000BF63
:103C200000BF00BF04E045F6256020800020E9E7E2
:103C300000BF0A492868884204D045F6C450208055
:103C40000020DFE7FCF798FD8046234642463146D8
:103C5000284601F085FB07463846D3E753454D41DA
:103C600010B5044612480078E8B901F045FA114948
:103C7000087008460078104908700E48007800EB7C
:103C800040000E4951F820000D49086008460068C0
:103C90000C490860012006490870FCF729FB43F62F
:103CA0009920208002E045F68A60208010BD000047
:103CB0003D0000205700002056000020A0120020E8
:103CC000DC000020D80000202DE9F04107464FF02D
:103CD000000800BF00BFFCF777FA804600BF00BFB6
:103CE00000203B4908803B4908603B4908603B494C
:103CF00008603B4908603B49088100BF00BF40465F
:103D0000FCF766FA00BF00BF00BF00BFFCF75CFA1B
:103D1000804600BF00BF3448046800BF00BF404673
:103D2000FCF756FA00BF00BF21E000BF00BFFCF760
:103D30004BFA804600BF00BF00206C34E063206077
:103D40002063A061A082E0826062A062FCF714FDA3
:103D500020626C3C04F158060020B081D4F8B040D9
:103D600000BF00BF4046FCF733FA00BF00BF002C85
:103D7000DBD100BF00BFFCF727FA804600BF00BFC1
:103D80001A48056800BF00BF4046FCF721FA00BF93
:103D900000BF12E000BF00BFFCF716FA804600BF6C
:103DA00000BF05F120060020B081AD6900BF00BF53
:103DB0004046FCF70DFA00BF00BF002DEAD102F02B
:103DC000BFF802F0B7FA00203880BDE8F0810000AB
:103DD0007E00002090000020A4000020C8000020E9
:103DE0006800002094120020980000205C00002051
:103DF000F8B5044600266946324800F00FFDBDF8CC
:103E0000000018B1BDF800002080F8BD6A4600210E
:103E1000022000F07BFDBDF8000018B1BDF80000E5
:103E20002080F2E700BF00BFFCF7CEF9064600BFD6
:103E300000BF00202449086000BF00BF3046FCF7E7
:103E4000C7F900BF00BF0025204800682049096865
:103E5000884205D91D4800681D490968B0FBF1F585
:103E600025B91A4800680A21B0FBF1F56A4600211D
:103E7000284600F04BFD6946124800F0B5F9BDF840
:103E8000000018B1BDF800002080BEE700BF00BFF1
:103E9000FCF79AF9064600BF00BF00200D490860F4
:103EA000094800680C49086001200C49087000BFEF
:103EB00000BF3046FCF78CF900BF00BF0020208017
:103EC00000BFA2E73C17002080000020AC7400086F
:103ED0009474000890000020840000208C000020D2
:103EE00010B50348006810B101480068804710BD54
:103EF0002C0000202DE9FF4F85B004469046DDE9F7
:103F00001995159F139E002002905C4800780028A8
:103F100005DD47F24A10288009B0BDE8F08F1CB9D2
:103F200047F2AD102880F7E7B8F1000F03D147F250
:103F30004F102880F0E71EB946F62F602880EBE787
:103F40004F480068874203D246F630602880E3E796
:103F50001498B84203D346F631602880DCE7129803
:103F6000402803D346F273202880D5E712983F28D3
:103F700006D14448844203D046F273202880CBE720
:103F8000204601F0BBFC0020288009F0010088B128
:103F900009F0020070B1B3460020049007E0002051
:103FA000CBF800000BF1040B0498401C049004981B
:103FB000B842F4D3149806EB80000390CDE9007961
:103FC00032464046039B089900F0C6FA8346C4F87F
:103FD00028800898E06206982062129884F83700DA
:103FE000C4F800B00398A060189860606662A76388
:103FF000A4F83C904FF0000A08E0002104F17000A2
:1040000040F82A100AF1010000F0FF0ABAF1000F8F
:10401000F3D004F15800169900F0A6FE204600F0F7
:1040200037F800BF00BFFCF7CFF8029000BF00BF19
:1040300094F8370001F080F8204601F0F5F82046AA
:1040400001F012FC10480088401C0F4908800F48FE
:104050000078012807D000BF00BF0298FCF7B8F82D
:1040600000BF00BF58E700BF00BF0298FCF7B0F8E0
:1040700000BF00BFFFF7D4FB00BF4DE73C000020AE
:10408000A8740008DC1100209C0000203D000020E6
:1040900010B504460348006818B120460149096874
:1040A000884710BD1C00002070B504460D46002650
:1040B00043480078002803DD47F24E10288070BD89
:1040C0004048844203D147F24C102880F7E77CB97E
:1040D00000BF00BFFCF778F8064600BF00BF3A48B3
:1040E000046800BF00BF3046FCF772F800BF00BF95
:1040F00000BF00BFFCF768F8064600BF00BF94F899
:10410000360008282DD2DFE800F004090E10080A56
:104110000F11204601F0A6F82EE02DE000BF20464A
:1041200001F0E2FE28E000BF00BF00BF94F83400B9
:10413000082810D2DFE800F004070508090A0B067A
:1041400000BF00BF08E000BF00BF00BF00BF2046A7
:1041500000F019FF00E000BF00BF204601F0C4FEE0
:104160000AE000BF00BF3046FCF732F800BF00BFD6
:1041700046F62D602880A2E700BF04F1580000F049
:10418000D1FD204600F024F8204601F085FB0F48C1
:104190000088401E0D490880204601F0AFFBFF203B
:1041A00084F8360000BF00BF3046FCF711F800BFAE
:1041B00000BF00202880FFF733FB00BF7FE700002F
:1041C0003C000020DC110020D80000209C000020D2
:1041D00010B504460348006818B120460149096833
:1041E000884710BD2000002070B504460D4600260B
:1041F00015480078002803DD47F25510288070BD6F
:1042000000BF00BFFBF7E0FF064600BF00BF1CB1C8
:104210000E48006884420AD100BF00BF3046FBF759
:10422000D7FF00BF00BF47F257102880E7E700BF65
:1042300000BF3046FBF7CCFF00BF00BF2946204639
:1042400001F0B6FB00BFDAE73C000020D8000020F8
:1042500010B504460348006818B1204601490968B2
:10426000884710BD240000202DE9F04780460E4607
:1042700014461D464FF000096F480078002805DD00
:1042800046F2AE1028800020BDE8F0871EB1B6F5DA
:10429000004F02D100E000BF04E045F62560288011
:1042A0000020F1E700BF0CB10020206000BF00BF7C
:1042B000FBF78AFF814600BF00BF60480068406C82
:1042C000A8B35E480068406C401E5C4909684864B9
:1042D0005A480068476C1CB158480068006C206060
:1042E000FCF74AFA55490968096C401A53490968AC
:1042F000C1F8980051480068D0F89C004F490968FF
:10430000D1F89810884207D24C480068D0F898003D
:104310004A490968C1F89C0000BF00BF4846FBF746
:1043200057FF00BF00BF002028803846ACE7FFE7FA
:1043300006F4004058B100BF00BF4846FBF748FFF5
:1043400000BF00BF46F2B010288000209CE73C4828
:10435000007800280BDD00BF00BF4846FBF738FFA0
:1043600000BF00BF46F66350288000208CE743461C
:1043700007220021084600F023FD00BF00BF484689
:10438000FBF726FF00BF00BFFFF74AFA00BF00BFE0
:10439000FBF71AFF814600BF00BF2848006890F86D
:1043A000350020B1012826D0032834D12CE0FCB1FF
:1043B00022480068006C2060FCF7DEF91F4909689C
:1043C000096C401A1D490968C1F898001B4800682B
:1043D000D0F89C0019490968D1F89810884207D292
:1043E00016480068D0F8980014490968C1F89C0084
:1043F0000020288013E01CB110480068006C206089
:1044000046F2A91028800AE00CB10020206047F293
:10441000D920288003E046F62E60288000BF00BF28
:1044200006480068476C00BF00BF4846FBF7D0FE57
:1044300000BF00BF384627E73C000020D80000201E
:10444000700000202DE9F04106460D4614461DB1CE
:10445000B5F5004F02D100E000BF05E045F625604C
:1044600020800020BDE8F08100BFFCF785F9804680
:10447000234642462946304601F026FB0746384689
:10448000F0E700002DE9F04705460E4617461C46AA
:104490004FF0000A2E480078002804DD47F259103A
:1044A0002080BDE8F0871EB946F2D5202080F8E7CD
:1044B0001FB946F2D5202080F3E700BF00BFFBF70D
:1044C00083FE824600BF00BF0DB9224805682868F8
:1044D00068B900BF00BF5046FBF77AFE00BF00BFBF
:1044E00000203060386047F252102080D9E795F8FC
:1044F0003C0000F0010068B900BF00BF5046FBF768
:1045000067FE00BF00BF00203060386047F25410E3
:104510002080C6E700BF00BF5046FBF759FE00BF32
:1045200000BF4FF00008D5F8249003E009F104091A
:1045300008F10108D9F800000028F7D0C6F800807B
:10454000A86BA0EB080038600020208000BFA8E71F
:104550003C000020D8000020F0B50446DDE90556F7
:1045600002EB850020F007004FF0807C071F3846E3
:10457000C7F800C0071F38463C60DFF834C2071F89
:104580003846C7F800C04FF0123C071F3846C7F83E
:1045900000C04FF0033C071F3846C7F800C04FF07B
:1045A000023C071F3846C7F800C0071F38463B606B
:1045B000071F384639604FF0113C071F3846C7F8CF
:1045C00000C04FF0103C071F3846C7F800C04FF03E
:1045D000093C071F3846C7F800C04FF0083C071FCA
:1045E0003846C7F800C04FF0073C071F3846C7F8E9
:1045F00000C04FF0063C071F3846C7F800C04FF018
:10460000053C071F3846C7F800C04FF0043C071FA1
:104610003846C7F800C006F00407002F7ED04FF0E0
:10462000007C071F3846C7F800C0DFF888C1071FA5
:104630003846C7F800C0DFF880C1071F3846C7F802
:1046400000C0DFF878C1071F3846C7F800C0DFF8A0
:1046500070C1071F3846C7F800C0DFF868C1071FE0
:104660003846C7F800C0DFF860C1071F3846C7F8F2
:1046700000C0DFF858C1071F3846C7F800C0DFF890
:1046800050C1071F3846C7F800C0DFF848C1071FF0
:104690003846C7F800C0DFF840C1071F3846C7F8E2
:1046A00000C0DFF838C1071F3846C7F800C0DFF880
:1046B00030C1071F3846C7F800C0DFF828C1071F00
:1046C0003846C7F800C0DFF820C1071F3846C7F8D2
:1046D00000C0DFF818C1071F3846C7F800C04FF008
:1046E000834C071F3846C7F800C0DFF804C1071F16
:1046F0003846C7F800C0DFF8FCC0071F3846C7F8C7
:1047000000C0DFF8F4C0071F3846C7F800C0DFF864
:10471000ECC0071F3846C7F800C000E047E0DFF8EC
:10472000E0C0071F3846C7F800C0DFF8D8C0071F31
:104730003846C7F800C0DFF8D0C0071F3846C7F8B2
:1047400000C04FF0824C071F3846C7F800C0DFF8A2
:10475000BCC0071F3846C7F800C0DFF8B4C0071F49
:104760003846C7F800C0DFF8ACC0071F3846C7F8A6
:1047700000C04FF0814C071F3846C7F800C0DFF873
:1047800098C0071F3846C7F800C04FF0804C071F7D
:104790003846C7F800C04FF07E5C071F3846C7F8A0
:1047A00000C04FF0000C071F3846C7F800C0F0BD2E
:1047B000B15A00080000F8410000F0410000E84153
:1047C0000000E0410000D8410000D0410000C84195
:1047D0000000C0410000B8410000B0410000A84105
:1047E0000000A04100009841000090410000884175
:1047F0000000704100006041000050410000404155
:104800000000304100002041000010410000E04065
:104810000000C0400000A0400000404070B50546C8
:104820000C460A480078002803DD47F25D1020801E
:1048300070BD0748854203D147F25B102080F7E73F
:104840002146284601F022FA00BFF1E73C00002093
:10485000DC11002010B52948006890F83C0000F0F9
:10486000040020B1254909680868FBF72BFD24489E
:10487000006890F83C0000F0040020B1204909686D
:104880000868FBF72CFD1F48006810B11D48006840
:104890008047FBF771FF044618480068184909680B
:1048A000884215D015480068D0F88C00201A1349AA
:1048B0000968C1F8880011480068D0F890000F49D5
:1048C0000968D1F8881008440C490968C1F89000BB
:1048D0000B480068C0F88C4008480068D0F8A80071
:1048E00009490968884205D20748006803490968F0
:1048F000C1F8A80000200449086010BDD8000020BD
:10490000DC000020300000206C0000202DE9F04188
:1049100005460E461446002727480078002804DD87
:1049200047F275202080BDE8F081244800780028F7
:1049300003DD46F663502080F5E736B1022E05D040
:10494000042E0AD0082E09D101E000BF00BF1DB916
:1049500047F27E202080E6E704E003E045F625608C
:104960002080E0E700BF00BF00BFFBF72DFC07463B
:1049700000BF00BF2346324629461148006801F0B7
:1049800055FA208838B100BF00BF3846FBF720FC3D
:1049900000BF00BFC7E70A48006800F063FC00BF23
:1049A00000BF3846FBF714FC00BF00BFFEF738FF1E
:1049B0000020208000BFB6E73C00002070000020EF
:1049C000D800002008B500F01FF86A4600210A4808
:1049D000FFF738FD09480068401E0849086008468E
:1049E000006838B90648006808606A460021054832
:1049F000FFF728FD08BD000058160020D400002055
:104A0000D00000203C17002010B50348006810B10A
:104A100001480068804710BD34000020244A254921
:104A2000254A264A2649274A2748284A284A294A01
:104A3000294A2A482A482B4A2B482C4A2C482D4AD6
:104A40002D482E482E482F482F4A304A304A3148A8
:104A5000314A324A3248334833483448344835487A
:104A60003548364A364A374A374A38483848394846
:104A7000394A3A4A3A4A3B483B483C483C493D4817
:104A80003D4A3E4A3E4A3F4A3F4A404A404A4148E0
:104A9000414A424A42484348434A444A4448454AB4
:104AA000454A4648464800BF00BF00BF7047000067
:104AB000E074000844760008E1740008E27400081D
:104AC000E4740008E8740008EC740008E974000855
:104AD000147500081575000816750008187500088B
:104AE0001A7500081E75000820750008407500083A
:104AF00042750008447500084675000848750008AE
:104B00004A7500084C75000878750008797500082A
:104B10007A7500087C7500087E7500087F750008AE
:104B20008075000882750008847500088675000885
:104B3000887500088A7500088C750008BC75000827
:104B4000BD750008BE750008BF750008C075000877
:104B5000C2750008C4750008EC750008ED75000802
:104B6000EE750008EF750008F0750008F275000892
:104B7000F4750008F8750008F9750008FA75000862
:104B8000FB750008FC750008FD750008FE7500083F
:104B9000FF7500080076000802760008037600081A
:104BA00004760008067600080876000809760008F2
:104BB0000C7600083C7600083D7600083E7600083A
:104BC000407600080021034A1160034A11800180E9
:104BD000704700004000002044000020002419E03D
:104BE00000BF00BFFBF7F0FA044600BF00BF0A4851
:104BF0000068401C0849086008480068401C0749D4
:104C0000086000BF00BF2046FBF7E2FA00BF00BF0C
:104C1000FEF78CFAE4E70000380000208000002056
:104C200010B58AB0044600200E4908600B20002110
:104C30000591CDE90704069108460B4909680B4A1E
:104C400012680B4B1B68CDE90132CDE903103F2000
:104C50000023084A08A100900C48FFF74BF90AB05E
:104C600010BD000038000020547400085074000883
:104C70004C740008DD4B000875432F4F532D4949F4
:104C8000492049646C65205461736B00DC1100207D
:104C90000021034A1160034A11800180704700001F
:104CA000480000204C00002070B501461A4D2D68C8
:104CB0001DB945F21E750D8070BD184D2D881DB9AA
:104CC00045F21D750D80F7E7134D28682A681032EC
:104CD000124D2D886D1EACB2002308E00260002545
:104CE00045600581C560103010325D1CABB2A34237
:104CF000F4DB0025056045600581C560064D2D6823
:104D0000074E3560054D2D88B5800025F58035812D
:104D10000D8000BFD0E700008C7400088474000888
:104D20009412002010B5014648894B89002B17DDED
:104D30000A680C4B1B6813600A4C4B6823602346BF
:104D4000DB884C891B1B074CE38023469B884C89DE
:104D50002344044CA38000234B818B810B604B6068
:104D600010BD000094120020018100224281828146
:104D7000026042607047000009A1C16100214161E9
:104D80000849096811B90021816105E005490968F0
:104D90008161044909684861024908607047000060
:104DA00020000000500000200021034A1160034A47
:104DB0001180018070470000500000205400002046
:104DC0002DE9F04105460C4616461F461548006879
:104DD00080F8346000201349096881F835003946AD
:104DE0001048006800F02AFD6CB104F10808EC607E
:104DF000012229460B48006800F016F82946404673
:104E000000F08EF806E0002006490968C8870549C9
:104E10000968086303480168204600F019F8BDE8F6
:104E2000F0810000D800002010B5C2870163002384
:104E30000AE000244C600C600C614C610C83CC6176
:104E4000886020315C1CA3B29342F2DB10BD0000ED
:104E500030B548B14568C1F8B45000F10804226883
:104E600093681D6AC56113E091F83450022D02D099
:104E7000072D08D103E007A5C1F8B45007E007A546
:104E8000C1F8B45003E008A5C1F8B45000BF00BF9A
:104E900030BD00005461736B205100005461736B8E
:104EA0002053656D000000002000000030B507A50C
:104EB000C1F8B45000F1080422681AB193681D6A61
:104EC000C56101E001A5C56130BD00002000000002
:104ED0002DE9F04304460F4684F83770256BB4F88B
:104EE0003E8013E0D5F80C9009F1080630890128BE
:104EF00007D92946304600F05EF82946304600F0D2
:104F00000FF82035A8F101001FFA80F8B8F1000F62
:104F1000E8D1BDE8F0830021016041600181704764
:104F2000F0B58E6896F8375007893FB90127078199
:104F300000274F600F600160416023E007897F1CFC
:104F40000781026806E0946894F83770AF4200DD8C
:104F500002E05268002AF6D100BF32B900274F6044
:104F600043680B60596041600CE017682FB911600D
:104F700000270F604A60016004E013680B604A601C
:104F800059601160F0BD2DE9F0410446256BE68FB4
:104F90000AE0D5F80C8008F108072946384600F0E9
:104FA0000AF82035701E86B2002EF2DC0020E08761
:104FB0002063BDE8F08110B50489012C03D10024E1
:104FC0000460446011E00C6824B94A68002414604D
:104FD00002600AE04C6824B90B6800245C604360FE
:104FE00003E00B684A685A6013600489641E0481F8
:104FF00000244C600C6010BD2DE9F84306460C46B9
:1050000017469846089D94F8360008285BD2DFE8DA
:1050100000F0040508090607323300BF00BF00BFD7
:1050200052E000BF94F83400032807D143463A46C3
:1050300021463046009500F04AF803E02765A4F8C1
:105040005480256436B12046FFF79DFF2146304647
:10505000FFF72CFF94F83600032802D1204600F019
:1050600043FF204600F0AAF800203434A07060709E
:1050700004F8340928E000BF94F83400032807D16D
:1050800043463A4621463046009500F020F803E0BA
:105090002765A4F85480256436B12046FFF773FFD6
:1050A00021463046FFF702FF94F83600072802D168
:1050B000204600F019FF04203434A07000206070F6
:1050C00004F8340900E000BF00BFBDE8F883F0B584
:1050D0000446059E086BCD8F0AE0C768A74204D13D
:1050E000046142610383C66104E020306F1EBDB2DB
:1050F000002DF2DC00BFF0BD70B50025074C03E0C9
:1051000005F12000C5B2241D20680028F8D02068D1
:10511000FBF765F82844C5B2284670BD140000208E
:10512000002004E00021034A42F82010401C02281D
:10513000F8D370471400002030B5420900F01F0377
:105140000121C3F11F04A140034C54F822400C4339
:10515000014D45F8224030BD1400002030B5420911
:1051600000F01F030121C3F11F04A140034C54F8B8
:1051700022408C43014D45F8224030BD14000020F0
:105180000021034A1160034A11800180704700002A
:105190005C0000206000002000210AE001EB4102D9
:1051A000054B03EB820000220281026042604A1C30
:1051B000D1B24029F2D37047A012002010B50446A6
:1051C00094F83700FFF7B8FF94F8370005490978DD
:1051D000884203D1204600F027F802E0204600F084
:1051E00003F810BD5600002010B590F8373003EBDF
:1051F00043030C4C04EB83010B893BB901230B8166
:105200000023C36003610860486009E00B895B1CF0
:105210000B810B68C360002303610A68106108609A
:1052200010BD0000A012002010B590F8373003EB3D
:1052300043030B4C04EB83010B893BB901230B8126
:105240000023C36003610860486008E00B895B1CB1
:105250000B810023C3604A680261D060486010BDC2
:10526000A01200202DE9F041054695F8370000EB2B
:105270004000124901EB80042F69EE6887B946B9F6
:10528000002020812060606095F83700FFF766FFFE
:105290000EE02089401E208100203061266007E05A
:1052A0002089401E2081FE600EB9676000E03761F2
:1052B00000202861E860BDE8F0810000A012002015
:1052C00010B504480078012803D1FBF755FA0249CC
:1052D000086010BD700000206400002010B50A486E
:1052E000007880B9FBF748FA08490968441A084869
:1052F0000068A04201D20648046006480068A04247
:1053000001D20448046010BD700000206400002039
:10531000680000206C00002009A1C16100214161EA
:105320000849096811B90021816105E0054909684A
:1053300081610449096848610249086070470000BA
:1053400020000000740000200021034A1160034A7D
:105350001180018070470000740000207800002058
:105360002DE9FF5F0446884691461D4600200190C6
:1053700000BF00BFFAF728FF019000BF00BF04F193
:105380000807388900284FD10420012804D00228BA
:1053900014D0042834D123E0206AFF280DD100BFA7
:1053A00000BF0198FAF714FF00BF00BF46F6C550D2
:1053B0002880002004B0BDE8F09F22E04FF6FF7186
:1053C000206A88420BD100BF00BF0198FAF700FFA6
:1053D00000BF00BF46F6C55028800020EAE710E075
:1053E000206A401C58B900BF00BF0198FAF7F0FED0
:1053F00000BF00BF46F6C55028800020DAE700E075
:1054000000BF00BF206A401C2062D4F820A0C4F86E
:10541000249000BF00BF0198FAF7DAFE00BF00BF7A
:10542000002028805046C5E708F4007008B13E8986
:1054300000E00126D7F800B011E0DBF80800029088
:10544000DBF80400039000231A46CDF800902046B4
:105450000299FFF7D1FDDDF80CB0701E86B2002E68
:10546000EBD1D4F820A000BF00BF0198FAF7B0FE3E
:1054700000BF00BF08F4004008B9FEF7D1F90020D2
:105480002880504696E7000086B00020009006E095
:10549000A8490968480001AA0021FFF737FAA64881
:1054A00000780128F4D101A8FEF70EFC0027A348DC
:1054B0000068A0490968884205D9A04800689D494C
:1054C0000968B0FBF1F727B99C4800680A21B0FBD6
:1054D000F1F72EE1FBF750F9804600BF00BFFAF765
:1054E00073FE009000BF00BF9548006895490860B2
:1054F00000209349086000BF00BF0098FAF768FEDB
:1055000000BF00BF904800688E490968884248D9AA
:105510008D4800688D49884205D242F21070039090
:105520000120029023E0884800688949884205D21A
:105530004FF47A7003900A20029018E082480068C5
:105540008449884203D26420039002900FE07E4891
:1055500000688149884205D20A2003904FF47A708E
:10556000029004E00120039042F21070029076480D
:1055700001680298B1FBF0FA724903980968484340
:10558000B0FBFAF042F21071081A744908807448AE
:1055900000880988884208DA7048008870490880C5
:1055A00003E042F210706D490880FEF799FC002577
:1055B00000BF00BFFAF708FE009000BF00BF6948B7
:1055C000046800BF00BF0098FAF702FE00BF00BFEA
:1055D00026E000BF00BFFAF7F7FD009000BF00BF54
:1055E00054F8900F6060002044F8900900BF00BF9D
:1055F0000098FAF7EDFD00BF00BFD4F89400054411
:1056000000BF00BFFAF7E0FD009000BF00BFD4F874
:10561000B04000BF00BF0098FAF7DAFD00BF00BF3E
:10562000002CD6D145B34948854205D242F21070CC
:1056300005904FF0010B1BE04548854205D24FF421
:105640007A7005904FF00A0B12E04248854203D26F
:105650006420059083460BE03F48854204D20A202F
:1056600005904FF47A7B03E00120059042F2107B15
:10567000B5FBFBF0049003E00020059001200490AE
:1056800000BF00BFFAF7A0FD009000BF00BF354883
:10569000046800BF00BF0098FAF79AFD00BF00BF82
:1056A0002BE0D4F89400059948430499B0FBF1F03D
:1056B00086B242F21070864200D90646A4F8806095
:1056C000B4F88200B04201DAA4F8826001AB04F1C0
:1056D000A002111D2046FEF7D5FE00BF00BFFAF75D
:1056E00073FD009000BF00BFD4F8B04000BF00BF02
:1056F0000098FAF76DFD00BF00BF002CD1D11A4809
:105700000078012805D100201749087001A8FEF78C
:10571000DBFAFBF731F8A0EB0809144800684845AC
:1057200002D21248C0F8009001AA00213846FFF7C3
:10573000EDF8CFE6947400088C000020AC740008EB
:10574000800000208800002084000020801A0600CD
:1057500000093D00005A62020084D7177C00002037
:105760007E000020980000207A0000209000002099
:1057700010B58AB0044600201F4908601F49086020
:105780001F4908601F4908701F4908701F480068BA
:1057900020B946F62B6020800AB010BD1C48006876
:1057A0001C490968884203D246F62C602080F3E742
:1057B000194800783F2803D346F62A602080EBE79B
:1057C000032000210591CDE9070406910846104900
:1057D0000968124A12680D4B1B68CDE90132CDE908
:1057E00003100D48007800230D4A0EA100901248C6
:1057F000FEF780FB00BFCFE780000020880000207C
:10580000840000208C0000207A000020987400089A
:10581000A0740008A8740008907400089C74000824
:105820008954000875432F4F532D4949492053741B
:105830006174205461736B00A015002070B504469C
:105840000D4645B12A462146064800F0ABFA032032
:1058500084F8360002E0022084F836002046FFF784
:1058600001FD70BDB00000200021C0F8AC10094956
:10587000096819B90021C0F8B01007E005490968A6
:10588000C0F8B01003490968C1F8AC0001490860CC
:105890007047000098000020D0F8AC20D0F8B0107D
:1058A0004AB90D4B196011B10023C1F8AC30002387
:1058B000C0F8B0300FE029B90023C2F8B030C0F80A
:1058C000AC3008E0C2F8B010C1F8AC200023C0F83A
:1058D000B030C0F8AC307047980000200021044A76
:1058E0001160044A1180044A116001807047000071
:1058F000980000209C0000209400002070B5044611
:1059000000202060A0606060E06020616061A061B4
:10591000E06124A0206200206062A062E062206456
:105920002065A4F85400002104F15800FFF71CFA88
:105930000020A066E0666067A4F87C00A0670025F0
:1059400006E0002104F1700040F82510681CC5B283
:10595000002DF6D00020343420616066A0666060BF
:1059600084F84A002067E06620816061A061A4F8A5
:105970004C00A4F84E0020656065FAF7FDFE06466F
:10598000A6650020E065606720706070A070402010
:10599000E0700020A067E06704A0C4F88000343CF9
:1059A00070BD00003F5461736B00000020000000D8
:1059B00070B504460D46002600BF00BFFAF704FC90
:1059C000064600BF00BF0020288094F83600082853
:1059D0005ED2DFE800F0040506071227394B00BF4E
:1059E00000BF00BF00BF00BF3046FAF7F1FB00BFA9
:1059F00000BF47F25310288055E014F87E0F401E78
:105A0000207014F87E0928B9002084F8360020465A
:105A1000FFF7D4FB00BF00BF3046FAF7D9FB00BF49
:105A200000BF40E014F87E0F401E207014F87E097D
:105A300010B9012084F8360000BF00BF3046FAF7E5
:105A4000C7FB00BF00BF2EE014F87E0F401E207081
:105A500014F87E0910B9022084F8360000BF00BF98
:105A60003046FAF7B5FB00BF00BF1CE014F87E0F0C
:105A7000401E207014F87E0910B9032084F8360007
:105A800000BF00BF3046FAF7A3FB00BF00BF0AE02B
:105A900000BF00BF3046FAF79BFB00BF00BF46F6D1
:105AA0002D60288070BD00BFFDF7BAFE00BFF9E78A
:105AB00008B504480068FEF7CBFB69460020FEF7F6
:105AC000F3FA08BDD80000202DE9F84304468846C3
:105AD00017461D464FF0000900BF00BFFAF774FBE0
