:020000040800F2
:1000000080380020F50100087B2D0008F524000849
:10001000112D00086106000891680008000000002A
:10002000000000000000000000000000B1600008B7
:100030003308000800000000270300080D610008D5
:100040002B0200082B0200082B0200082B020008DC
:100050002B0200082B0200082B0200082B020008CC
:100060002B0200082B0200082B0200082B020008BC
:100070002B0200082B0200082B0200082B020008AC
:100080002B0200082B020008CD0400082B020008F8
:100090002B0200082B0200082B0200082B0200088C
:1000A0002B0200082B0200082B0200082B0200087C
:1000B0002B020008616200082B0200082B020008D6
:1000C0002B0200082B0200082B0200082B0200085C
:1000D0002B020008B9670008016800084968000899
:1000E0002B0200082B0200082B0200082B0200083C
:1000F0002B0200082B0200082B0200082B0200082C
:100100002B0200082B0200082B0200082B0200081B
:100110002B0200082B0200082B0200082B0200080B
:10012000090700082B0200082B0200082B02000818
:100130002B0200082B0200082B0200082B020008EB
:100140002B0200082B0200082B0200082B020008DB
:100150002B0200082B0200082B0200082B020008CB
:100160002B0200082B0200082B0200082B020008BB
:100170002B0200082B0200082B02000800000000E0
:100180002B0200082B0200082B0200082B0200089B
:100190002B0200082B0200082B0200082B0200088B
:1001A0002B0200082B0200082B020008DFF80CD0FD
:1001B00000F058F800480047356D000880380020EE
:1001C00072B6704762B67047EFF3108072B6704730
:1001D00080F31088704730BF704720BF7047B0FA77
:1001E00080F0704790FAA0F0B0FA80F0704790FA73
:1001F000A0F070470D488047016841F4700101602C
:10020000BFF34F8FDFF82800016821F04041016003
:10021000BFF36F8F07480047FEE7FEE7FEE7FEE704
:10022000FEE7FEE7FEE7FEE7FEE7FEE7FD6100080A
:1002300034EF00E0AD01000830B50B460146002068
:100240002022012409E021FA02F59D4205D303FA98
:1002500002F5491B04FA02F52844151EA2F1010219
:10026000F1DC30BD064C074D06E0E06840F00103CC
:1002700094E8070098471034AC42F6D3FFF79AFF92
:100280001C7200083C72000830B58C1810F8012B65
:1002900012F00F0301D110F8013B120906D110F83A
:1002A000012B03E010F8015B01F8015B5B1EF9D143
:1002B00001E001F8013B521EFBD1A142E6D3002030
:1002C00030BD0000EFF3098141B1F1EE101A40F8A2
:1002D000041D20ED200A24490A6810607047B0EC24
:1002E000200A02C8E1EE101A20490A68106070471F
:1002F0001F484FF0FF010170002080F309881D485E
:10030000016881F308881C484FF08051016062B693
:10031000FEE719484FF080510160704716484FF0D2
:1003200080510160704772B6EFF3098028B1203820
:1003300080E8F00F0C490968086000B50F48804755
:100340005DF804EB0E480F490A7802700648074929
:100350000A680260106890E8F00F203080F3098886
:100360004EF0F40E62B67047D8000020DC0000208A
:1003700022ED00E01000002004ED00E0E144000860
:1003800056000020570000202DE9FC5F81460D46F5
:1003900090464FF0000B00240026002000900195AD
:1003A000019D680006F018FD074600BF05E039F81A
:1003B000140027F81400601C84B2AC42F7DB002460
:1003C0001BE0002614E037F81610701C37F81000F8
:1003D00081420BDA37F816000090701C37F81000D5
:1003E00027F81600711C009827F81100701C86B2BF
:1003F000681EB042E7DC601C84B2681EA042E0DCEC
:10040000444604E039F814008344601C84B2A5EB30
:100410000800A042F6DCA5EB4800BBFBF0F01FFA99
:1004200080FACDF800A03846DDF800A006F02CFCDC
:100430005046BDE8FC9F70B50546AC6B206C00F0E3
:10044000500050BB206C40F400702064206880682D
:1004500000F04050E8B9A069D8B92068C06A00F43B
:10046000700020B12068806800F4806088B920683E
:10047000406820F0200021684860206C20F48070E3
:100480002064206C00F4805018B9206C40F001000A
:100490002064204600F0B8FA03E0A06BC16C284647
:1004A000884770BD70B50546AC6B40202064606C19
:1004B00040F004006064204600F0A8FA70BD70B5FA
:1004C0000446A56B284600F0A0FA70BD10B502489E
:1004D00000F09DFA10BD0000501D00205A49096827
:1004E00021F44031594AC2F804131146D1F80413DB
:1004F00042681143544A11600168496821F48071CF
:100500000268516001684A68016942EA0121026893
:1005100051600168496821F04071026851600168CA
:10052000496882681143026851600168896821F452
:1005300000610268916001688968C26811430268BD
:100540009160434A816A914218D00168896821F01C
:1005500070610268916001688968826A114302686B
:1005600091600168896821F04051026891600168DA
:100570008968C26A1143026891600BE0016889686A
:1005800021F07061026891600168896821F0405132
:10059000026891600168896821F002010268916037
:1005A00001688A68816942EA410102689160016AD2
:1005B000D1B10168496841F4006102685160016885
:1005C000496821F460410268516001684A68416AE3
:1005D000491E4FF4604393FAA3F3B3FA83F39940AF
:1005E0000A4301684A6005E00168496821F4006136
:1005F000026851600168C96A21F470010268D16221
:100600000168CA6A818B491E42EA01510268D162BF
:100610000168896821F400710268916001688A6844
:10062000016B42EA4121026891600168896821F406
:1006300080610268916001688A68416942EA8121AB
:1006400002689160704700000423014000200140CF
:100650000100000F10B501F0D1F80446204610BD8E
:1006600000BFFEE710B500F01FF800F019F810BD4C
:1006700010B5002400BF00BFFFF7A6FD044600BF71
:1006800000BF1021054802F045FB00BF00BF204617
:10069000FFF79EFD00BF00BF10BD00008C010020D1
:1006A00010B5FFF7E5FF10BD10B500200249086046
:1006B00000F00AF810BD00000C000020014908609D
:1006C000704700000C00002010B5FFF7C3FF044680
:1006D0000848006840F0807006490860002006491C
:1006E00048600846006840F0010008602046FFF7B7
:1006F000E5FF10BDFCED00E0001000E00149486896
:1007000070470000001000E010B5024800F076FBD2
:1007100010BD0000981D00200146087810381823ED
:10072000B0FBF3F20848805CC865032A05D9086865
:100730006FF30900001D886503E008686FF3090086
:100740008865886D7047000004720008014600202B
:100750008A6A8B6903BB32B1012A0CD0022A10D0FD
:10076000032A17D115E0CB6A03F08073B3F1807FC1
:1007700000D101200FE0CB6AB3F1C07F00D101208E
:1007800009E0CB6A03F08073B3F1807F00D10120D0
:1007900001E000E000BF35E08B69B3F5005F1BD1DD
:1007A00032B1012A06D0022A0CD0032A12D10BE062
:1007B000012010E0CB6A03F08073B3F1807F00D199
:1007C000012008E0012006E0CB6AB3F1C07F00D130
:1007D000012000E000BF15E032B1012A05D0022A55
:1007E00004D0032A0CD103E000BF00BF012008E0C1
:1007F000CB6A03F08073B3F1807F00D1012000E069
:1008000000BF00BF704730B50468246824F480241A
:1008100005682C60046863608468402C04D1046817
:10082000A2600468E16003E00468A1600468E2601B
:1008300030BD704770B505460C4629464FF07840EC
:1008400002F004F8032006F0ABF908E021784FF03D
:100850007A4001F0FBFF641C032006F0A1F9207828
:100860000028F3D170BD00BFFEE7704718B50246FF
:100870000020009000BF92F83C00012801D1022026
:1008800018BD012082F83C0000BF0868092816D96D
:100890001068C0680B780A3B03EB43040723A340AE
:1008A00098431368D8600B780A3B03EB43038868CE
:1008B00098401368DB6818431368D86013E0106829
:1008C00000690B7803EB43040723A34098431368A4
:1008D00018610B7803EB43038868984013681B6921
:1008E0001843136818614868072817D21068406BCE
:1008F0000B795B1E03EB83041F23A340984313680B
:100900005863088880B20B795B1E03EB8303984021
:1009100013685B6B18431368586331E048680D280F
:1009200017D21068006B0B79DB1F03EB83041F23C6
:10093000A340984313681863088880B20B79DB1FC3
:1009400003EB8303984013681B6B18431368186309
:1009500016E01068C06A0B790D3B03EB83041F237C
:10096000A34098431368D862088880B20B790D3B86
:1009700003EB830398401368DB6A18431368D8625B
:100980001C4B1068984208D10868122805D11A48F3
:10099000006840F48000C3F80403164B10689842C6
:1009A00020D1164B0868984202D00868112819D146
:1009B0001148006840F400000F4B18600F4B0868A6
:1009C00098420FD10E4800680E4BB0FBF3F000EBDD
:1009D00080004000009002E00098401E00900098C7
:1009E0000028F9D100BF002082F83C0000BF00BF02
:1009F00046E70000002001400423014012000010DF
:100A00000000002040420F0070477047704770B5EB
:100A100004460025002620680068C0F340052068D1
:100A20004068C0F3401695B38EB3206C00F0100000
:100A300018B9206C40F4007020642068806800F0D1
:100A40004050E8B9A069D8B92068C06A00F47000C5
:100A500020B12068806800F4806088B92068406810
:100A600020F0200021684860206C20F48070206411
:100A7000206C00F4805018B9206C40F00100206414
:100A80002046FFF7C1FF6FF0120021680860206860
:100A90000068C0F3800520684068C0F3C016E5B365
:100AA000DEB3206C00F0100018B9206C40F4005048
:100AB00020642068806800F4401038BB2068806B98
:100AC00000F4401020B12068806800F48060E8B92C
:100AD0002068406800F48060C0B92068806800F039
:100AE000405098B9A06988B92068406820F080001B
:100AF00021684860206C20F480502064206C00F451
:100B0000807018B9206C40F0010020642046FFF787
:100B1000ACFE6FF00C00216808602068006800F0EF
:100B2000010520684068C0F3801685B17EB1206859
:100B3000006800F0010050B1206C40F48030206467
:100B4000204600F053F86FF001002168086020682B
:100B50000068C0F3401520684068C0F380667DB12E
:100B600076B1606C40F0020060646FF02000216894
:100B700008602046FFF74AFF6FF0200021680860F8
:100B800070BD000070B5044600250CB9012070BD91
:100B90001549A06A884200D000BF206C30B90020FF
:100BA000606484F83C00204600F022F8206C00F0DD
:100BB000100088B9206C20F4885040F002002064B6
:100BC0002046FFF78BFC00206064206C20F00200C0
:100BD00040F00100206400E0012500BF002084F8FF
:100BE0003C0000BF2846D2E70100000F704700001C
:100BF00010B586B004462049206888423AD100BF2B
:100C0000002000901D48006840F480701B49086077
:100C10000846006800F48070009000BF00BF01200B
:100C20000190032002900020039001A9144800F0D5
:100C3000CDFA144814490860002048600021124889
:100C40008160C1604FF480610161490041618900A8
:100C500081610021C1614FF40031016200214162D4
:100C600000F0F0F908B1FFF7FEFD00BF0648A063F1
:100C7000846300BF06B010BD00200140443802402C
:100C80000008024010640240981D0020F8B5044698
:100C90000D4616460020009000BF94F83C00012845
:100CA00001D10220F8BD012084F83C0000BF20687B
:100CB000806800F00100A0B92068806840F0010061
:100CC000216888603C4800683C49B0FBF1F000EBCB
:100CD0004000009002E00098401E0090009800281C
:100CE000F9D12068806800F00100002862D0206CF3
:100CF00040F20161884340F48070206420684068BD
:100D000000F4806028B1206C20F4005040F4805042
:100D10002064206C00F4805020B1606C20F006004C
:100D2000606401E00020606400BF002084F83C00A3
:100D300000BF2348A16BC8632248A16B0864224806
:100D4000A16BC8646FF022002168086020684068C9
:100D500040F08060216848602068806840F48070BE
:100D600021688860226802F14C0133462A46A06B54
:100D700000F0DCF91548006800F01F0058B9206841
:100D8000806800F0405028B92068806840F08040BA
:100D9000216888600EE00E49206888420AD12068E8
:100DA000806800F0405028B92068806840F080409A
:100DB00021688860002075E70000002040420F0095
:100DC00037040008BF040008A504000804230140FC
:100DD00000200140014691F83500022803D0802010
:100DE000486501207047052081F8350008680068D3
:100DF00020F001000A6810600020F3E7F8B504460F
:100E0000002000908D4800684FF41651B0FBF1F7B8
:100E1000A56D2E6894F85C1008208840304098B189
:100E20002068006800F0040070B12068006820F0BD
:100E300004002168086094F85C1008208840A860CD
:100E4000606D40F00100606594F85C107C4888405B
:100E5000304068B12068406900F0800040B194F8EB
:100E60005C1077488840A860606D40F002006065C3
:100E700094F85C107248C01C8840304070B1206803
:100E8000006800F0020048B194F85C106C48C01C87
:100E90008840A860606D40F00400606594F85C10C4
:100EA00010208840304078B32068006800F00800C7
:100EB00050B394F85C1010208840A8602068006847
:100EC00000F4802080B12068006800F4002028B978
:100ED000206CC8B12046216C884715E0A06C98B101
:100EE0002046A16C88470FE02068006800F48070FD
:100EF00028B92068006820F0080021680860206C8C
:100F000010B12046216C884794F85C10202088405E
:100F10003040002865D02068006800F010000028EC
:100F20005FD094F85C1020208840A86094F83500C9
:100F3000052828D12068006820F016002168086084
:100F40002068406920F0800021684861206C08B961
:100F5000A06C28B12068006820F0080021680860B3
:100F600094F85C103F208840A86000BF002084F8FF
:100F7000340000BF012084F83500206D10B12046F8
:100F8000216D8847F8BD2068006800F4802080B19A
:100F90002068006800F4002028B9606C10B1204679
:100FA000616C88471DE0E06BD8B12046E16B884753
:100FB00017E02068006800F4807068B92068006855
:100FC00020F010002168086000BF002084F8340081
:100FD00000BF012084F83500E06B10B12046E16BC2
:100FE0008847606D38B3606D00F00100F0B10520F6
:100FF00084F835002068006820F00100216808604E
:1010000000BF0098401C0090B84200D905E020685D
:10101000006800F001000028F3D100BF00BF0020ED
:1010200084F8340000BF012084F83500E06C10B172
:101030002046E16C884700BFA4E7000000000020C4
:10104000010080002DE9F0410446002500F0D2F9AE
:10105000074614B90120BDE8F081606A00B100BF05
:1010600000BF002084F8340000BF022084F835005F
:101070002068006820F00100216808600AE000F0A4
:10108000B9F9C01B052805D920206065032084F824
:101090003500E0E72068006800F001000028EED18C
:1010A0002068056820480540D4E901010843E1684B
:1010B00008432169084361690843A1690843E1695C
:1010C0000843216A08430543606A042803D1D4E930
:1010D0000B0108430543206805602068456925F039
:1010E0000705606A0543606A04280BD1A06A0543BE
:1010F0002046FFF72BFB28B140206065012084F8D3
:101100003500A8E7206845612046FFF705FB064645
:1011100094F85C103F208840B0600020606501209A
:1011200084F83500002096E73F8010F02DE9F04765
:1011300004460D4616461F464FF00008D4F8589056
:1011400000BF94F83400012802D10220BDE8F087E6
:10115000012084F8340000BF94F8350001282BD119
:10116000022084F83500002060653B46324629465F
:101170002046FFF748FB94F85C103F208840C9F8F0
:1011800008002068006840F01600216808602068A8
:10119000406940F0800021684861206C28B12068D7
:1011A000006840F00800216808602068006840F08E
:1011B00001002168086006E000BF002084F83400C8
:1011C00000BF4FF002084046C0E70000F8B50246F5
:1011D0000B460025002400200021E6E0012606FA47
:1011E00001F51E6806EA0504AC4273D15E68022E62
:1011F00002D05E68122E13D1CF0802F1200656F8F5
:1012000027004E07F70E0F26BE40B0434F07FF0ED4
:101210001E69BE403043CF0802F1200646F8270081
:1012200010684F000326BE40B0431E7906F0030647
:101230004F00BE40304310605E68012E08D05E68EB
:10124000022E05D05E68112E02D05E68122E13D1D8
:1012500090684F000326BE40B0434F00DE68BE409A
:1012600030439060506801268E40B0431E79C6F32B
:1012700000168E4030435060D0684F000326BE40B9
:10128000B0434F009E68BE403043D0605E6806F0B9
:101290008056B6F1805FA8D100BF00260096454E6B
:1012A000366846F48046434F3E603E46366806F454
:1012B0008046009600BF00BF3F4E8F0856F82700BB
:1012C0008E07370F0F26BE40B0433C4EB24202D1CC
:1012D00000262EE068E03A4EB24201D1012628E015
:1012E000384EB24201D1022623E0374EB24201D13C
:1012F00003261EE0354EB24201D1042619E0344ED9
:10130000B24201D1052614E0324EB24201D1062686
:101310000FE0314EB24201D107260AE02F4EB24211
:1013200001D1082605E02E4EB24201D1092600E087
:101330000A268F073F0FBE4030431F4E8F0846F8E6
:101340002700284E3068A0435E6806F48036B6F564
:10135000803F00D12043234E3060361D3068A043CB
:101360005E6806F40036B6F5003F00D120431D4EFE
:10137000361D3060361D3068A0435E6806F4801666
:10138000B6F5801F00D12043164E08363060361D5A
:101390003068A0435E6806F40016B6F5001F00D161
:1013A0002043104E0C363060491C1029FFF416AF54
:1013B000F8BD0000443802400838014000000240F7
:1013C0000004024000080240000C024000100240ED
:1013D0000014024000180240001C0240002002409D
:1013E00000240240003C01400AB1816101E00B048D
:1013F000836170470148006870470000E0000020EA
:1014000002480068401C014908607047E000002065
:1014100010B50D48006840F400700B49086008469C
:10142000006840F4806008600846006840F48070FE
:101430000860032000F094F8002000F007F800F0A6
:1014400019F8002010BD0000003C024070B50446B1
:10145000074800684FF47A71B0FBF1F5284600F0B8
:101460003BFC00222146501E00F03CF8002070BDDD
:101470000000002010B5032000F072F80022114691
:101480006FF00B0000F02EF8002211466FF00A00FA
:1014900000F028F8002211466FF0090000F022F851
:1014A00000221146501F00F01DF800221146101FA7
:1014B00000F018F800221146901E00F013F80022E8
:1014C0001146501E00F00EF810BD00BF00F01F02C4
:1014D000012191404209920002F1E022C2F800117C
:1014E00000BF70472DE9F05F80460D461646002785
:1014F00001F044FC074639462A46334601F007000E
:10150000C0F1070ABAF1040F02D94FF0040A01E052
:10151000C0F1070AD14600F1040ABAF1070F02D25E
:101520004FF0000A01E0A0F1030AD4464FF0010A8F
:101530000AFA09FAAAF1010A0AEA020A0AFA0CFAF4
:101540004FF0010B0BFA0CFBABF1010B0BEA030B99
:101550004AEA0B042146404601F018FCBDE8F09F22
:1015600000BF00F00702064B19684FF6FF03194051
:10157000044B0B4343EA0221014B196000BF704743
:101580000CED00E00000FA0538B5002400BF002093
:1015900000902348006840F08050214908600846C8
:1015A000006800F08050009000BF00BF01200104DF
:1015B00091FAA1F1B1FA81F11A4A42F82100FFF73C
:1015C00019FF044607E0FFF715FF001BB0F57A7F0F
:1015D00001D9032038BD1448406800F48030B0F5CC
:1015E000803FF0D10120410491FAA1F1B1FA81F1DB
:1015F0000C4A42F82100FFF7FDFE044607E0FFF722
:10160000F9FE001BB0F57A7F01D90320E2E7064816
:10161000406800F40030B0F5003FF0D10020D9E779
:101620004038024000000E420070004070B5044691
:101630000D4600266D48006800F00F00A84209D250
:101640006A490D700846006800F00F00A84201D0FA
:10165000012070BD207800F00200022807D1644804
:10166000006820F0F000A168084361490860207814
:1016700000F00100002877D06068012807D15C489D
:1016800008380068C0F34040B8B90120E1E760685D
:10169000022802D06068032807D15548083800683E
:1016A000C0F3406048B90120D3E7514808380068CA
:1016B000C0F3400008B90120CBE74D48006820F096
:1016C0000300616808434A490860FFF793FE064635
:1016D0006068012810D108E0FFF78CFE801B41F202
:1016E0008831884201D90320B3E74148006800F0FF
:1016F0000C000428F0D137E06068022810D108E01F
:10170000FFF778FE801B41F28831884201D903201F
:101710009FE73748006800F00C000828F0D123E06C
:101720006068032810D108E0FFF764FE801B41F2D7
:101730008831884201D903208BE72D48006800F0EA
:101740000C000C28F0D10FE008E0FFF753FE801BDF
:1017500041F28831884201D903207AE724480068A1
:1017600000F00C000028F0D12048006800F00F00C5
:10177000A84209D91D490D700846006800F00F0005
:10178000A84201D0012064E7207800F0040004287A
:1017900007D11748006820F4E050E1680843144975
:1017A0000860207800F00800082808D11048006878
:1017B00020F46040216940EAC1000D49086000F052
:1017C0004FF80B49096801F0F001F02292FAA2F2F9
:1017D000B2FA82F2D140074A515CC840064908601B
:1017E0000020FFF733FE002033E70000003C0240FA
:1017F000083802400C720008000000200148006810
:10180000704700000000002000B5FFF7F7FF074910
:10181000096801F4E0514FF4E05292FAA2F2B2FAF0
:1018200082F2D140024A515CC84000BD08380240F3
:101830000C72000800B5FFF7E1FF0749096801F4E1
:1018400060414FF4604292FAA2F2B2FA82F2D140C1
:10185000024A515CC84000BD083802400C720008C2
:1018600070B50021002200230020274C246804F0DA
:101870000C0424B1042C04D0082C41D103E02348EB
:1018800040E023483EE0204C241F246804F03F0140
:101890001D4C241F246804F4800484B11C4CB4FB48
:1018A000F1F5194C241F246847F6C076344096FAA7
:1018B000A6F6B6FA86F6F44005FB04F20FE0134CE8
:1018C000B4FBF1F5104C241F246847F6C076344071
:1018D00096FAA6F6B6FA86F6F44005FB04F20A4C30
:1018E000241F246804F440344FF4403595FAA5F5DC
:1018F000B5FA85F5EC40641C6300B2FBF3F001E03F
:10190000024800BF00BF70BD083802400024F40048
:1019100000127A0038B504460025207800F0010056
:10192000002848D0DE48006800F00C0004280DD0E4
:10193000DB48006800F00C00082811D1D848001FCF
:10194000006800F48000B0F5800F09D1D448083851
:101950000068C0F3404070B3606860BB012038BDD0
:101960002079CF49891F0870606890B1FFF742FD68
:10197000054606E0FFF73EFD401B642801D9032021
:10198000EDE7C74808380068C0F340400028F1D0B0
:1019900011E0FFF72FFD054606E0FFF72BFD401B8A
:1019A000642801D90320DAE7BD4808380068C0F38D
:1019B00040400028F1D1207800F00200022869D1CF
:1019C000B748006800F00C0058B1B548006800F056
:1019D0000C00082821D1B248001F006800F48000E4
:1019E000D8B9AF4808380068C0F3400020B1E068BB
:1019F000012801D00120B2E7A9480838006820F08A
:101A0000F800F82292FAA2F2B2FA82F22169914029
:101A10000843A349083908603CE0E06828B3012086
:101A2000A0490860FFF7E6FC054606E0FFF7E2FC88
:101A3000401B022801D9032091E799480838006823
:101A4000C0F340000028F1D095480838006820F025
:101A5000F800F82292FAA2F2B2FA82F221699140D9
:101A600008438F490839086014E000208D49086058
:101A7000FFF7C0FC054606E0FFF7BCFC401B022850
:101A800001D903206BE7864808380068C0F340009E
:101A90000028F1D1207800F0080008282CD16069D6
:101AA000A8B1012080490860FFF7A4FC054606E0C4
:101AB000FFF7A0FC401B022801D903204FE778481C
:101AC0006C300068C0F340000028F1D014E0002022
:101AD00075490860FFF78EFC054606E0FFF78AFCB3
:101AE000401B022801D9032039E76D486C3000689B
:101AF000C0F340000028F1D1207800F00400042851
:101B000057D100BF0020009065483830006840F091
:101B100080506349383108600846006800F0805002
:101B2000009000BF00BF6148006840F480705F49CA
:101B30000860FFF75FFC054606E0FFF75BFC401B13
:101B4000022801D903200AE75848006800F4807091
:101B50000028F2D0207A524968310870A068A0B1FC
:101B6000FFF748FC054608E0FFF744FC401B41F244
:101B70008831884201D90320F1E64948683000687D
:101B8000C0F340000028EFD013E0FFF733FC054618
:101B900008E0FFF72FFC401B41F28831884201D951
:101BA0000320DCE63E4868300068C0F340000028AF
:101BB000EFD1A069F0B33A48006800F00C000828A3
:101BC00069D0A069022850D1002036490866FFF785
:101BD00011FC054606E0FFF70DFC401B022801D969
:101BE0000320BCE62E4808380068C0F34060002897
:101BF000F1D1D4E90701084347F6C07292FAA2F284
:101C0000B2FA82F2616A914008430122A16AC2EBF2
:101C100051014FF4403292FAA2F2B2FA82F29140AC
:101C200008434FF0706292FAA2F2B2FA82F2E16ACD
:101C3000914000E031E008431949091F0860012084
:101C400018490866FFF7D6FB054606E0FFF7D2FB0A
:101C5000401B022801D9032081E61148083800689A
:101C6000C0F340600028F1D017E000200D4908665D
:101C7000FFF7C0FB054606E0FFF7BCFB401B022850
:101C800001D903206BE6064808380068C0F34060BD
:101C90000028F1D101E0012061E600205FE60000AC
:101CA0000838024000004742800E47420070004062
:101CB000042808D14FF0E021096941F004014FF0F8
:101CC000E022116107E04FF0E021096921F00401F1
:101CD0004FF0E0221161704770B504462546681E3A
:101CE000B0F1807F01D301200FE0681E4FF0E021AA
:101CF00048610F214FF0FF3001F048F800204FF00D
:101D0000E021886107200861002070BD704770479E
:101D100001460868C06840F001000A68D0600868A1
:101D2000006840F001000A681060002070477047AA
:101D300010B5044620680069C0F34000D8B120689F
:101D4000C068C0F34000B0B16FF0020021680861C4
:101D5000012020762068806900F0030018B1204639
:101D6000FFF7E5FF05E0204600F0ADF8204600F063
:101D7000ABF80020207620680069C0F38000D8B15D
:101D80002068C068C0F38000B0B16FF00400216823
:101D90000861022020762068806900F4407018B144
:101DA0002046FFF7C4FF05E0204600F08CF82046EF
:101DB00000F08AF80020207620680069C0F3C00097
:101DC000D8B12068C068C0F3C000B0B16FF008009F
:101DD00021680861042020762068C06900F00300B3
:101DE00018B12046FFF7A3FF05E0204600F06BF88E
:101DF000204600F069F80020207620680069C0F3D2
:101E00000010D8B12068C068C0F30010B0B16FF006
:101E1000100021680861082020762068C06900F45D
:101E2000407018B12046FFF782FF05E0204600F021
:101E30004AF8204600F048F8002020762068006923
:101E400000F0010058B12068C06800F0010030B116
:101E50006FF0010021680861204600F05DF82068FD
:101E60000069C0F3C01058B12068C068C0F3C0104A
:101E700030B16FF08000216808612046FFF746FF0F
:101E800020680069C0F3801058B12068C068C0F3B2
:101E9000801030B16FF0400021680861204600F0EA
:101EA00051F820680069C0F3401058B12068C0683C
:101EB000C0F3401030B16FF0200021680861204667
:101EC000FFF725FF10BD70477047000030B504468E
:101ED0000D4601222946206804F0CAF90C49206801
:101EE000884203D00B492068884201D1012000E0DC
:101EF000002028B12068406C40F40040216848640C
:101F00002068006840F0010021680860002030BDB2
:101F100000000140000401400146084881420BD105
:101F2000002007E0064A32F81020521C044B23F828
:101F30001020401C0228F5DB70470000141D002013
:101F4000F80000207047704701460022002391F8F6
:101F5000392091F83A3042EA030070472DE9F04702
:101F60000446206805682068C668206847694FF005
:101F70000008C14605F00F08B8F1000F0AD105F0BE
:101F8000200038B106F0200020B1204604F0A8F966
:101F9000BDE8F087B8F1000F6DD007F0010018B967
:101FA00006F49070002866D005F0010030B106F408
:101FB000807018B1E06B40F00100E06305F00400B0
:101FC00030B107F0010018B1E06B40F00200E063AF
:101FD00005F0020030B107F0010018B1E06B40F0ED
:101FE0000400E06305F0080030B107F0010018B10B
:101FF000E06B40F00800E063E06B68B305F02000A0
:1020000028B106F0200010B1204604F069F92068DC
:102010004069C0F38019E06B00F0080010B9B9F115
:10202000000F22D0204604F03BF92068406900F000
:102030004000B0B12068406920F04000216848614C
:10204000606B50B11748616B0865606BFEF7C2FEAC
:1020500010B1606B016D88470CE02046FFF773FFFD
:1020600008E02046FFF76FFF04E02046FFF76BFF14
:102070000020E0638CE705F0800030B106F08000BE
:1020800018B1204604F02EFB82E705F0400030B185
:1020900006F0400018B1204604F012F978E700BFBE
:1020A00076E700008D62000810B504460CB90120E7
:1020B00010BDA06900B100E000BF94F8390028B954
:1020C000002084F83800204600F028F8242084F806
:1020D00039002068C06820F400502168C86020469C
:1020E00004F04CF92068006920F4904021680861F0
:1020F0002068406920F02A00216848612068C06893
:1021000040F400502168C8600020E063202084F87B
:10211000390084F83A000020CAE7000010B586B004
:1021200004463F49206888421FD100BF002000902C
:102130003C48006840F010003A49086008460068D2
:1021400000F01000009000BF00BF4FF4C06001908D
:1021500002200290012003900220049007200590A5
:1021600001A93148FFF732F857E03049206888422A
:1021700020D100BF002000902A48001F006840F4D2
:1021800000302849091F08600846006800F4003044
:10219000009000BF00BF0C2001900220029001209F
:1021A0000390022004900720059001A91E48FFF724
:1021B0000DF832E01E49206888422ED100BF002071
:1021C00000901848001F006840F480201549091F3E
:1021D00008600846006800F48020009000BF00BF3F
:1021E0000815019002200290012003900220049023
:1021F0000720059001A90F48FEF7E8FF4FF40060A3
:1022000001900220029001200390022004900720F8
:10221000059001A90748FEF7D9FF06B010BD0000E0
:1022200000100140443802400000024000440040D9
:10223000004800400004024010B5034693F83A00FD
:10224000202829D101B10AB9012010BD00BF93F89F
:102250003800012801D10220F7E7012083F8380077
:1022600000BF99629A85DA850020D863222083F81E
:102270003A0000BF002083F8380000BF18684069AA
:1022800040F001001C6860611868C06840F49070FC
:102290001C68E0600020D8E70220D6E74D4A0168BC
:1022A00091422ED14C4909782A2905D101214B4A66
:1022B000118000214A4A118047490978232905D114
:1022C0000021464A11800121454A1180434909886D
:1022D00001297DD140490978424A1288C2F30D0292
:1022E000414B99543F490988491C3E4A1180114687
:1022F0000988C7296CDD0021384A1180394A1180CC
:1023000066E03A4A0168914230D139490978AA29F0
:1023100007D10121374A11800021374A1180374AFD
:10232000118033490978552905D10021314A11809E
:102330000121314A11802F490988012948D12C49AE
:1023400009782E4A1288C2F30D022D4B99542B495D
:102350000988491C294A118011460988C72937DD97
:102360000021244A1180254A118031E0254A016864
:1023700091422DD1244909782A2905D10121234AE6
:1023800011800021224A11801F490978232905D193
:1023900000211E4A118001211D4A11801B49098814
:1023A000012915D1184909781A4A1288C2F30D0279
:1023B000194B995417490988491C164A118011462E
:1023C0000988C72904DD0021104A1180114A1180B3
:1023D0007047000000100140EC00002000010020C8
:1023E00002010020E4000020BC180020004400404E
:1023F000F00000200401002006010020EE00002073
:102400004C1A002000480040F40000200801002081
:102410000A010020F2000020141B00202DE9F843DF
:1024200004460D4616461F464FF0000994F8390041
:1024300020285CD105B116B90120BDE8F88300BFA2
:1024400094F83800012801D10220F6E7012084F831
:10245000380000BF0020E063212084F83900FEF737
:10246000C9FF8146A684E6842BE0E08C401EE08410
:10247000A068B0F5805F16D14B460022802120462F
:10248000009704F063F908B10320D6E7A846B8F82E
:102490000000C0F3080021684860206908B9AD1C3D
:1024A0000FE06D1C0DE04B46002280212046009776
:1024B00004F04CF908B10320BFE715F8010B2168BF
:1024C0004860E08C0028D0D14B46002240212046B5
:1024D000009704F03BF908B10320AEE7202084F810
:1024E000390000BF002084F8380000BFA5E70220B3
:1024F000A3E7704700BFFEE710B500200F49086052
:102500000F48006820F440500D49086008460068F4
:1025100040F48050086000200A49C1F898020A205F
:1025200004F078FB0120054908600A2004F072FBE2
:1025300000200449C1F89C0210BD00009C8240426A
:10254000000402400080404200B587B000BF002078
:1025500001901048006840F002000E4908600846EB
:10256000006800F00200019000BF00BFC020029090
:102570000120039004900220059002A90648FEF76E
:1025800025FE0120054908600549C1F89C0207B0F5
:1025900000BD0000303802400004024098824042F2
:1025A0000080404210B500200F4908600F480068C5
:1025B00020F440500D4908600846006840F48050FF
:1025C000086001200A49C1F898020A2004F022FBA1
:1025D0000120054908600A2004F01CFB0020044982
:1025E000C1F89C0210BD00009C82404200040240E1
:1025F0000080404270B5054600241648006820F46B
:10260000405014490860084600680860002616E03B
:102610000020114908600A2004F0FCFA01200F494B
:10262000C1F89C026006040E0B488438006808B1AB
:10263000601CC4B2052004F0EDFA701CC6B2082E6E
:10264000E6DB15B9FFF7AEFF01E0FFF755FF2046C7
:1026500070BD0000000402409C8240420080404265
:1026600070B504461748006820F4405015490860CA
:102670000846006840F48050086000201249086055
:10268000002517E0E0091049091F08606006040EE4
:102690000A2004F0BFFA01200C49C1F89C020A206C
:1026A00004F0B8FA0020084908600A2004F0B2FAE1
:1026B000681CC5B2082DE5DB01200349091F08602D
:1026C00070BD0000000402409C82404200804042F5
:1026D00010B50F48006820F440500D4908600846C6
:1026E000006840F48050086001200A4908600A49E7
:1026F000C1F89C020A2004F08DFA00200549086008
:102700000A2004F087FA00200349C1F89C0210BD9A
:1027100000040240988240420080404210B51048B8
:10272000006820F440500E4908600846006840F4F4
:102730008050086001200B49086000200A49C1F858
:1027400098020A2004F066FA01200649091F086071
:102750000A2004F05FFA00200349C1F89C0210BD72
:10276000000402409C8240420080404210B5002498
:102770001448006820F44050124908600846006878
:102780000860012010490860062004F043FA012087
:102790000E49C1F89C02062004F03CFA07E0601CD8
:1027A000C4B2FA2C03DDFFF7B9FF012010BD0648C3
:1027B000803800680028F2D10349091D086000BF75
:1027C000F4E700000004024098824042008040424A
:1027D00070B504460D460026FFF77AFF2046FFF746
:1027E0003FFFFFF7C3FF2846FFF73AFFFFF7BEFFA3
:1027F000FFF76EFF611CC8B2FFF732FFFFF7B6FFAD
:10280000C82004F007FA0020FFF7F4FE0646FFF7A1
:1028100085FF304670BD70B506460C461546FFF77D
:1028200057FF3046FFF71CFF00BFFFF79FFF002850
:10283000FBD12046FFF714FFFFF798FF2846FFF76C
:102840000FFFFFF793FFFFF769FF70BD2DE9F04120
:1028500004460D46264600224FF400511D48FEF75F
:10286000C3FD05F0F000000405F00F0100EB01309E
:102870000643012251031748FEF7B6FD00271EE06C
:1028800006F0004028B1012291031248FEF7ACFD8A
:1028900005E000224FF480410E48FEF7A5FD01221D
:1028A000D1030C48FEF7A0FD022004F079F90022C4
:1028B0004FF400410748FEF797FD76007F1C182F64
:1028C000DED300224FF400510248FEF78DFDBDE833
:1028D000F0810000001C024010B500224FF40051AE
:1028E0001E48FEF781FD00224FF480711C48FEF760
:1028F0007BFD642004F054F9012211021848FEF710
:1029000073FD282004F04CF914214FF07840FFF7B4
:102910009DFF282004F044F930214FF07840FFF764
:1029200095FF282004F03CF90C214FF07840FFF788
:102930008DFF282004F034F901214FF07840FFF793
:1029400085FF282004F02CF906214FF07840FFF78E
:102950007DFF282004F024F910BD0000001C024077
:10296000002002401FB51348134908604FF480301F
:1029700048600021104881600161012181610021CE
:102980000162C162C1600121C16101634161FEF761
:10299000F9F808B1FDF767FF0A20009001200190C7
:1029A0000020029069460448FDF760FF08B1FDF77A
:1029B0005AFF1FBD00200140501D002008B500BF78
:1029C000002000900648006840F480000449086038
:1029D0000846006800F48000009000BF00BF08BDFA
:1029E0003038024000B587B000BF002001908C480D
:1029F000006840F020008A4908600846006800F03E
:102A00002000019000BF00BF00BF002001900846D9
:102A1000006840F0800008600846006800F0800010
:102A2000019000BF00BF00BF002001900846006871
:102A300040F0010008600846006800F001000190C5
:102A400000BF00BF00BF002001900846006840F0B2
:102A5000020008600846006800F00200019000BF14
:102A600000BF00BF002001900846006840F004004D
:102A700008600846006800F00400019000BF00BF35
:102A800000BF002001900846006840F00800086080
:102A90000846006800F00800019000BF00BF00BFBA
:102AA000002001900846006840F0100008600846C9
:102AB000006800F01000019000BF00BF00BF0020C0
:102AC00001900846006840F0400008600846006831
:102AD00000F04000019000BF00BF00BF0020019047
:102AE0000846006840F4807008600846006800F4FA
:102AF0008070019000BF00BF502002900120039021
:102B000004900320059002A94648FEF75FFB7C2055
:102B1000029000200390012004900320059002A958
:102B20004148FEF753FB0C20029000200390012047
:102B300004900320059002A93C48FEF747FB4FF4A0
:102B4000604002900120039004900320059002A9A8
:102B50003748FEF73BFB4FF4807002900120039052
:102B600004900320059002A93248FEF72FFB4FF492
:102B7000A05002900120039004900320059002A928
:102B80002A48FEF723FB4FF40040029001200390F7
:102B900004900320059002A92748FEF717FB402068
:102BA00002900120039004900320059002A923487D
:102BB000FEF70CFB4FF4007002900120039004908C
:102BC0000320059002A91748FEF700FB01221021FF
:102BD0001648FEF709FC012210211248FEF704FCFA
:102BE000012240210F48FEF7FFFB0122D1031248CA
:102BF000FEF7FAFB012291020C48FEF7F5FB0122D9
:102C000011030A48FEF7F0FB012240210B48FEF7B2
:102C1000EBFB012251020348FEF7E6FB07B000BDC3
:102C20003038024000080240001002400018024004
:102C3000001C02400020024000040240000C024040
:102C400010B5002201211220FEF74CFC1220FEF7E5
:102C50003CFC002204212620FEF744FC2620FEF73F
:102C600034FC002205212720FEF73CFC2720FEF73C
:102C70002CFC002202213820FEF734FC3820FEF71D
:102C800024FC002206211D20FEF72CFC1D20FEF74F
:102C90001CFC0A48FFF73CF800210948FFF716F929
:102CA00000210748FFF712F9642206490648FDF79C
:102CB000EDFF08B1FDF7D7FD10BD0000141D002089
:102CC000D81C0020F81D0020501D002010B50D4814
:102CD0000D4908604FF4E130486000210A488160E6
:102CE000C16001610C21416100218161C161FFF777
:102CF000DBF908B1FDF7B7FD012204490248FFF7EF
:102D00009BFA10BD004800405C1C0020F40000202D
:102D100000BFFEE730B505460C4622460021284696
:102D200000F001F830BD2DE9F04105460B46944610
:102D30000027002402E03F021F43641C042CFAD346
:102D4000604605F00306294646B1344603E001F823
:102D5000013B401E641C08B1042CF8D30A4601E074
:102D600080C2001F0428FBD2114602E001F8013B9B
:102D7000401E0028FAD1BDE8F08170470248006883
:102D8000C0F30220704700000CED00E010B50028F1
:102D900007DA0A07140E054A00F00F031B1FD4546C
:102DA00003E00A07130E024A135410BD18ED00E0A9
:102DB00000E400E07047000010B50348006810B15F
:102DC00001480068804710BD2800002070B5044607
:102DD00000F0AEF8002041490870414908704149AF
:102DE00008704149086041490860414908704149FB
:102DF00008704149087041490860414908604149EB
:102E000008604148006858B14048056845B13E48EF
:102E1000066803E0761E002028602D1D002EF9D1E3
:102E200000203B4908603B4908603B4908603B493A
:102E300008603B4908603B4908603B4908603B49E2
:102E4000087001F0B3FF01F0EDFF204601F000FD36
:102E5000208800B170BD204601F060FD208800B1DF
:102E6000F8E7204601F066FD208800B1F2E7204631
:102E700001F0E0FD208800B1ECE7204601F0C6FF3C
:102E8000208800B1E6E7204602F0A4F8208800B1CF
:102E9000E0E7204602F068FB208800B1DAE7204630
:102EA00001F004FD208800B1D4E7204602F07EFF47
:102EB000208800B1CEE7204602F0A0FA208800B1B9
:102EC000C8E7204602F0D6FF208800B1C2E701F033
:102ED000EBFBFFF76FFF00BFBCE700003C000020EA
:102EE0003D00002070000020D8000020DC00002001
:102EF00056000020570000205800002064000020E9
:102F0000680000206C000020387000083470000851
:102F10001C000020200000202400002028000020A9
:102F20002C00002030000020340000209E000020F3
:102F3000064800680649096800EB810005490860F9
:102F40000846006820F007000860704734700008E9
:102F5000387000081000002008480078012800D0D0
:102F6000704707480078FA2800DBF9E70448007842
:102F7000401C0349087000BFF2E700003D0000203C
:102F80003C00002010B500242D480078012800D016
:102F900010BD00BFFDF718F9044600BF29480078AE
:102FA00028B900BF2046FDF713F900BFF0E7254818
:102FB0000078401E2349087008460078002805DD87
:102FC00000BF2046FDF704F900BFE1E71E48007886
:102FD000002805DD00BF2046FDF7FAF800BFD7E75F
:102FE00001F0D0FE194908700846007800EB400057
:102FF000174951F82000174908600846006816492B
:103000000968884205D100BF2046FDF7E1F800BFFE
:10301000BEE710480068D0F88400401C0D490968DC
:10302000C1F884000D480068401C0C490860FDF799
:1030300075F900BF2046FDF7CBF800BF00BFA7E73A
:103040003D0000203C0000207000002057000020C0
:10305000A0120020DC000020D800002094000020F6
:103060002DE9F04104460E46154600271B4800781E
:10307000002804DD42F6E1602880BDE8F0811CB93B
:1030800045F6C3502880F8E700BF00BFFDF79CF865
:10309000074600BF00BF1248206066600020206223
:1030A00084F82500A062402084F8240004F1080080
:1030B00001F077FD204601F0A5FC0A480088401C7D
:1030C0000849088000BF00BF3846FDF781F800BFFF
:1030D00000BF0020288000BFCFE700003C00002098
:1030E0004D555458540000202DE9F04788B005464E
:1030F000894690461C46109E4FF0000A8A48007888
:10310000002805DD46F2AE10308008B0BDE8F0873B
:103110001DB945F6C3503080F7E7B8F1000F03D072
:10312000B8F5004F02D100E000BF03E045F625608E
:103130003080EAE700BF7D492868884203D045F621
:10314000C4503080E1E70CB10020206000BF00BF18
:10315000FDF73AF8824600BF00BF95F82500C0B9D8
:103160007348006828627248006890F8370085F854
:103170002400012085F825000CB1A86A206000BF5A
:1031800000BF5046FDF724F800BF00BF002030808C
:10319000BBE76749286A0968884212D195F825007B
:1031A000401C85F825000CB1A86A206000BF00BF54
:1031B0005046FDF70DF800BF00BF45F28270308029
:1031C000A3E708F4004050B100BF00BF5046FCF731
:1031D000FFFF00BF00BF46F2B010308095E75548B2
:1031E000007800280ADD00BF00BF5046FCF7F0FF62
:1031F00000BF00BF46F66350308086E72F6A97F81D
:1032000037004B49096891F8371088423ADD97F842
:10321000360008282AD2DFE800F004151E1F171612
:103220002021384601F064FE4148006890F83700DC
:1032300087F8370097F8370001F0C4FD384601F0F1
:1032400019FE1EE000BF00BF3948006890F8370043
:1032500087F8370015E000BF00BF00BF34480068A2
:1032600090F83710384601F079FC0AE000BF00BF43
:103270005046FCF7ADFF00BF00BF46F62D60308022
:1032800043E700BF4B4604222946684601F0DEFBB7
:1032900000BF00BF5046FCF79BFF00BF00BF00F01F
:1032A00005F900BF00BFFCF78FFF824600BF00BFDB
:1032B0001F48006890F8350030B101280CD0022872
:1032C0001AD0032821D110E01CB119480068006C05
:1032D0002060002030801CE01CB115480068006CA4
:1032E000206046F2A910308013E00CB1002020606D
:1032F00047F2D92030800CE01CB10D480068006C0A
:10330000206045F6C250308003E046F62E603080E3
:1033100000BF00BF00BF00BF5046FCF759FF00BF11
:1033200000BF00BFF1E600003C0000204D5554589E
:10333000D8000020700000202DE9F84F0446884690
:1033400015464FF0000A55480078002804DD46F283
:103350000E202880BDE8F88F1CB945F6C3502880A0
:10336000F8E7B8F1000F03D0B8F5004F02D100E044
:1033700000BF03E045F625602880EBE700BF484921
:103380002068884203D045F6C4502880E2E700BF99
:1033900000BFFCF719FF824600BF00BF4149206A09
:1033A000096888420AD000BF00BF5046FCF710FFF2
:1033B00000BF00BF45F281702880CBE7FDF79EF982
:1033C0000746A76294F82500401E84F8250094F86B
:1033D000250000280ADD00BF00BF5046FCF7F8FEBC
:1033E00000BF00BF45F283702880B3E704F10809ED
:1033F000B9F8080068B90020206284F8250000BFF1
:1034000000BF5046FCF7E4FE00BF00BF002028804C
:10341000A0E72448006890F8370094F82410884208
:1034200019D02048006801F063FD94F824001D497C
:10343000096881F837001B49096891F8370001F0E5
:10344000C1FC1848006801F035FD1648006890F886
:10345000370015490870D9F800008668266296F88A
:10346000370084F82400012084F8250000231A4640
:1034700031462046009701F005FC00BF00BF5046D2
:10348000FCF7A6FE00BF00BF08F4004008B900F03A
:103490000DF80020288000BF5CE700003C00002001
:1034A0004D555458D80000205600002010B5002477
:1034B0001F480078002800DD10BD1E480078002855
:1034C00000DDF9E700BFFCF77FFE044600BF01F016
:1034D00059FC194908700846007800EB400017496C
:1034E00051F8200016490860084600681549096827
:1034F000884205D100BF2046FCF76AFE00BFDBE72B
:103500000F480068D0F88400401C0D490968C1F8D4
:1035100084000D480068401C0B490860FCF7F9FE68
:1035200000BF2046FCF754FE00BF00BFC4E7000008
:103530003C0000207000002057000020A012002056
:10354000DC000020D80000209400002070B5044664
:10355000002518480078002803DD46F662502080D8
:1035600070BD15480078012803D045F68960208099
:10357000F6E712480078FA2803DB45F2092020809C
:10358000EEE700BF00BFFCF71FFE054600BF00BF0F
:103590000A480078401C0949087001F0D7FC00BFB8
:1035A00000BF2846FCF714FE00BF00BF00202080AB
:1035B00000BFD5E73C0000203D0000207000002047
:1035C00070B50446002520480078002803DD46F643
:1035D0006550208070BD1D480078012803D045F655
:1035E00089602080F6E71A48007818B946F66450DA
:1035F0002080EFE700BF00BFFCF7E6FD054600BFF7
:1036000000BF13480078401E114908700846007832
:1036100000280ADD00BF00BF2846FCF7D9FD00BF27
:1036200000BF46F663502080D4E701F09DFC00BF48
:1036300000BF2846FCF7CCFD00BF00BFFFF736FFF8
:103640000020208000BFC5E73C0000203D00002096
:10365000700000202DE9F04104460E4617461D4635
:103660004FF0000818480078002804DD42F6E160B9
:103670002880BDE8F0811CB945F6C3502880F8E7E2
:1036800000BF00BFFCF7A0FD804600BF00BF0F4891
:103690002060276200206062666004F1080001F08B
:1036A00080FA204601F07EFC09480088401C084949
:1036B000088000BF00BF4046FCF78AFD00BF00BF86
:1036C0000020288000BFD4E73C00002053454D4136
:1036D000780000202DE9F04788B0064689469046DC
:1036E0001C46109D4FF0000A60480078002806DD57
:1036F00046F2AE102880002008B0BDE8F08726B959
:1037000045F6C35028800020F6E7B8F1000F03D03B
:10371000B8F5004F02D100E000BF04E045F6256097
:1037200028800020E8E700BF51493068884204D073
:1037300045F6C45028800020DEE70CB10020206050
:1037400000BF00BFFCF740FD824600BF00BF306AEB
:1037500088B1306A401E30620CB1706A2060376AEE
:1037600000BF00BF5046FCF733FD00BF00BF002084
:1037700028803846C0E708F4004060B1376A00BFCF
:1037800000BF5046FCF724FD00BF00BF46F2B0105A
:1037900028803846B0E73748007800280BDD00BFA6
:1037A00000BF5046FCF714FD00BF00BF46F6635053
:1037B00028800020A0E74B4606223146684601F0EB
:1037C00045F900BF00BF5046FCF702FD00BF00BF37
:1037D000FFF76CFE00BF00BFFCF7F6FC824600BF9F
:1037E00000BF2548006890F8350030B101280CD0A2
:1037F00002281AD0032821D110E01CB11E4800680D
:10380000006C20600020288024E01CB11A48006869
:10381000006C206046F2A91028801BE00CB100204B
:10382000206047F2D920288014E01CB112480068BB
:10383000006C206045F6C25028800BE046F62E60F2
:10384000288000BF00BF5046FCF7C2FC00BF00BF8D
:10385000002051E700BF376A00BF00BF5046FCF7A9
:10386000B7FC00BF00BF384646E700003C00002020
:1038700053454D4170000020D80000202DE9F04153
:1038800005460E4614462DB945F6C350208000204B
:10389000BDE8F0814EB1B6F5007F07D0B6F5004F18
:1038A00005D0B6F5024F04D102E000BF00BF00BF53
:1038B00004E045F6256020800020E9E700BF0A49C2
:1038C0002868884204D045F6C45020800020DFE7F5
:1038D000FCF714FF8046234642463146284601F055
:1038E00085FB07463846D3E753454D4110B504469E
:1038F00012480078E8B901F045FA11490870084605
:103900000078104908700E48007800EB40000E491E
:1039100051F820000D490860084600680C4908600D
:10392000012006490870FCF7E3FC43F6992020804B
:1039300002E045F68A60208010BD00003D000020B6
:103940005700002056000020A0120020DC000020BC
:10395000D80000202DE9F04107464FF0000800BFD5
:1039600000BFFCF731FC804600BF00BF00203B4990
:1039700008803B4908603B4908603B4908603B4977
:1039800008603B49088100BF00BF4046FCF720FCAF
:1039900000BF00BF00BF00BFFCF716FC804600BFA1
:1039A00000BF3448046800BF00BF4046FCF710FC6D
:1039B00000BF00BF21E000BF00BFFCF705FC804650
:1039C00000BF00BF00206C34E06320602063A06172
:1039D000A082E0826062A062FCF790FE20626C3CF4
:1039E00004F158060020B081D4F8B04000BF00BFF9
:1039F0004046FCF7EDFB00BF00BF002CDBD100BF51
:103A000000BFFCF7E1FB804600BF00BF1A48056815
:103A100000BF00BF4046FCF7DBFB00BF00BF12E069
:103A200000BF00BFFCF7D0FB804600BF00BF05F120
:103A300020060020B081AD6900BF00BF4046FCF702
:103A4000C7FB00BF00BF002DEAD102F0BFF802F0B3
:103A5000B7FA00203880BDE8F08100007E00002029
:103A600090000020A4000020C80000206800002072
:103A700094120020980000205C000020F8B5044655
:103A800000266946324800F00FFDBDF8000018B16D
:103A9000BDF800002080F8BD6A460021022000F039
:103AA0007BFDBDF8000018B1BDF800002080F2E7F2
:103AB00000BF00BFFCF788FB064600BF00BF002028
:103AC0002449086000BF00BF3046FCF781FB00BFFF
:103AD00000BF00252048006820490968884205D9B0
:103AE0001D4800681D490968B0FBF1F525B91A4861
:103AF00000680A21B0FBF1F56A460021284600F073
:103B00004BFD6946124800F0B5F9BDF8000018B148
:103B1000BDF800002080BEE700BF00BFFCF754FBEB
:103B2000064600BF00BF00200D4908600948006834
:103B30000C49086001200C49087000BF00BF3046E6
:103B4000FCF746FB00BF00BF0020208000BFA2E7BB
:103B50003C170020800000206870000850700008AA
:103B600090000020840000208C00002010B5034845
:103B7000006810B101480068804710BD2C0000208B
:103B80002DE9FF4F85B004469046DDE91995159F54
:103B9000139E002002905C480078002805DD47F263
:103BA0004A10288009B0BDE8F08F1CB947F2AD106B
:103BB0002880F7E7B8F1000F03D147F24F102880B3
:103BC000F0E71EB946F62F602880EBE74F48006803
:103BD000874203D246F630602880E3E71498B84263
:103BE00003D346F631602880DCE71298402803D3DF
:103BF00046F273202880D5E712983F2806D1444822
:103C0000844203D046F273202880CBE7204601F09F
:103C1000BBFC0020288009F0010088B109F00200F7
:103C200070B1B3460020049007E00020CBF80000FC
:103C30000BF1040B0498401C04900498B842F4D390
:103C4000149806EB80000390CDE900793246404697
:103C5000039B089900F0C6FA8346C4F828800898A8
:103C6000E06206982062129884F83700C4F800B029
:103C70000398A060189860606662A763A4F83C90FF
:103C80004FF0000A08E0002104F1700040F82A100B
:103C90000AF1010000F0FF0ABAF1000FF3D004F1BD
:103CA0005800169900F0A6FE204600F037F800BF35
:103CB00000BFFCF789FA029000BF00BF94F83700FC
:103CC00001F080F8204601F0F5F8204601F012FCE2
:103CD00010480088401C0F4908800F4800780128D0
:103CE00007D000BF00BF0298FCF772FA00BF00BF08
:103CF00058E700BF00BF0298FCF76AFA00BF00BF98
:103D0000FFF7D4FB00BF4DE73C00002064700008C3
:103D1000DC1100209C0000203D00002010B504466E
:103D20000348006818B1204601490968884710BD5A
:103D30001C00002070B504460D460026434800785C
:103D4000002803DD47F24E10288070BD40488442B1
:103D500003D147F24C102880F7E77CB900BF00BFC1
:103D6000FCF732FA064600BF00BF3A48046800BFBD
:103D700000BF3046FCF72CFA00BF00BF00BF00BFF9
:103D8000FCF722FA064600BF00BF94F83600082868
:103D90002DD2DFE800F004090E10080A0F112046AA
:103DA00001F0A6F82EE02DE000BF204601F0E2FE73
:103DB00028E000BF00BF00BF94F83400082810D2EC
:103DC000DFE800F004070508090A0B0600BF00BF82
:103DD00008E000BF00BF00BF00BF204600F019FF91
:103DE00000E000BF00BF204601F0C4FE0AE000BFB3
:103DF00000BF3046FCF7ECF900BF00BF46F62D606F
:103E00002880A2E700BF04F1580000F0D1FD204651
:103E100000F024F8204601F085FB0F480088401E82
:103E20000D490880204601F0AFFBFF2084F83600E2
:103E300000BF00BF3046FCF7CBF900BF00BF002039
:103E40002880FFF733FB00BF7FE700003C00002025
:103E5000DC110020D80000209C00002010B5044692
:103E60000348006818B1204601490968884710BD19
:103E70002000002070B504460D4600261548007845
:103E8000002803DD47F25510288070BD00BF00BF39
:103E9000FCF79AF9064600BF00BF1CB10E48006847
:103EA00084420AD100BF00BF3046FCF791F900BF41
:103EB00000BF47F257102880E7E700BF00BF304639
:103EC000FCF786F900BF00BF2946204601F0B6FB8B
:103ED00000BFDAE73C000020D800002010B50446FF
:103EE0000348006818B1204601490968884710BD99
:103EF000240000202DE9F04780460E4614461D465A
:103F00004FF000096F480078002805DD46F2AE103A
:103F100028800020BDE8F0871EB1B6F5004F02D121
:103F200000E000BF04E045F6256028800020F1E7AE
:103F300000BF0CB10020206000BF00BFFCF744F9B7
:103F4000814600BF00BF60480068406CA8B35E486F
:103F50000068406C401E5C49096848645A48006823
:103F6000476C1CB158480068006C2060FCF7C6FB29
:103F700055490968096C401A53490968C1F8980005
:103F800051480068D0F89C004F490968D1F8981052
:103F9000884207D24C480068D0F898004A4909681E
:103FA000C1F89C0000BF00BF4846FCF711F900BFF4
:103FB00000BF002028803846ACE7FFE706F4004049
:103FC00058B100BF00BF4846FCF702F900BF00BF70
:103FD00046F2B010288000209CE73C48007800287A
:103FE0000BDD00BF00BF4846FCF7F2F800BF00BF82
:103FF00046F66350288000208CE7434607220021C4
:10400000084600F023FD00BF00BF4846FCF7E0F87B
:1040100000BF00BFFFF74AFA00BF00BFFCF7D4F8AB
:10402000814600BF00BF2848006890F8350020B1E5
:10403000012826D0032834D12CE0FCB122480068A6
:10404000006C2060FCF75AFB1F490968096C401A94
:104050001D490968C1F898001B480068D0F89C0009
:1040600019490968D1F89810884207D216480068A3
:10407000D0F8980014490968C1F89C0000202880F5
:1040800013E01CB110480068006C206046F2A910D3
:1040900028800AE00CB10020206047F2D920288057
:1040A00003E046F62E60288000BF00BF0648006887
:1040B000476C00BF00BF4846FCF78AF800BF00BF4E
:1040C000384627E73C000020D80000207000002080
:1040D0002DE9F04106460D4614461DB1B5F5004FD9
:1040E00002D100E000BF05E045F6256020800020F9
:1040F000BDE8F08100BFFCF701FB80462346424645
:104100002946304601F026FB07463846F0E7000016
:104110002DE9F04705460E4617461C464FF0000AAB
:104120002E480078002804DD47F259102080BDE8B1
:10413000F0871EB946F2D5202080F8E71FB946F275
:10414000D5202080F3E700BF00BFFCF73DF8824692
:1041500000BF00BF0DB922480568286868B900BFD4
:1041600000BF5046FCF734F800BF00BF00203060AD
:10417000386047F252102080D9E795F83C0000F0F3
:10418000010068B900BF00BF5046FCF721F800BF2E
:1041900000BF00203060386047F254102080C6E72E
:1041A00000BF00BF5046FCF713F800BF00BF4FF040
:1041B0000008D5F8249003E009F1040908F101088A
:1041C000D9F800000028F7D0C6F80080A86BA0EB53
:1041D000080038600020208000BFA8E73C000020D5
:1041E000D8000020F0B50446DDE9055602EB850055
:1041F00020F007004FF0807C071F3846C7F800C04A
:10420000071F38463C60DFF834C2071F3846C7F83E
:1042100000C04FF0123C071F3846C7F800C04FF0EF
:10422000033C071F3846C7F800C04FF0023C071F89
:104230003846C7F800C0071F38463B60071F38469E
:1042400039604FF0113C071F3846C7F800C04FF0E7
:10425000103C071F3846C7F800C04FF0093C071F45
:104260003846C7F800C04FF0083C071F3846C7F86B
:1042700000C04FF0073C071F3846C7F800C04FF09A
:10428000063C071F3846C7F800C04FF0053C071F23
:104290003846C7F800C04FF0043C071F3846C7F83F
:1042A00000C006F00407002F7ED04FF0007C071FEF
:1042B0003846C7F800C0DFF888C1071F3846C7F87E
:1042C00000C0DFF880C1071F3846C7F800C0DFF81C
:1042D00078C1071F3846C7F800C0DFF870C1071F54
:1042E0003846C7F800C0DFF868C1071F3846C7F86E
:1042F00000C0DFF860C1071F3846C7F800C0DFF80C
:1043000058C1071F3846C7F800C0DFF850C1071F63
:104310003846C7F800C0DFF848C1071F3846C7F85D
:1043200000C0DFF840C1071F3846C7F800C0DFF8FB
:1043300038C1071F3846C7F800C0DFF830C1071F73
:104340003846C7F800C0DFF828C1071F3846C7F84D
:1043500000C0DFF820C1071F3846C7F800C0DFF8EB
:1043600018C1071F3846C7F800C04FF0834C071F1D
:104370003846C7F800C0DFF804C1071F3846C7F841
:1043800000C0DFF8FCC0071F3846C7F800C0DFF8E0
:10439000F4C0071F3846C7F800C0DFF8ECC0071F9D
:1043A0003846C7F800C000E047E0DFF8E0C0071F6C
:1043B0003846C7F800C0DFF8D8C0071F3846C7F82E
:1043C00000C0DFF8D0C0071F3846C7F800C04FF064
:1043D000824C071F3846C7F800C0DFF8BCC0071F73
:1043E0003846C7F800C0DFF8B4C0071F3846C7F822
:1043F00000C0DFF8ACC0071F3846C7F800C04FF058
:10440000814C071F3846C7F800C0DFF898C0071F67
:104410003846C7F800C04FF0804C071F3846C7F831
:1044200000C04FF07E5C071F3846C7F800C04FF051
:10443000000C071F3846C7F800C0F0BD3D57000804
:104440000000F8410000F0410000E8410000E041B8
:104450000000D8410000D0410000C8410000C04128
:104460000000B8410000B0410000A8410000A04198
:104470000000984100009041000088410000704118
:104480000000604100005041000040410000304108
:1044900000002041000010410000E0400000C0404A
:1044A0000000A0400000404070B505460C460A4898
:1044B0000078002803DD47F25D10208070BD0748BA
:1044C000854203D147F25B102080F7E7214628465A
:1044D00001F022FA00BFF1E73C000020DC110020CF
:1044E00010B52948006890F83C0000F0040020B1A5
:1044F000254909680868FBF7E5FE2448006890F83C
:104500003C0000F0040020B1204909680868FBF76E
:10451000E6FE1F48006810B11D4800688047FCF7A0
:10452000EDF804461848006818490968884215D013
:1045300015480068D0F88C00201A13490968C1F8A2
:10454000880011480068D0F890000F490968D1F838
:10455000881008440C490968C1F890000B480068AD
:10456000C0F88C4008480068D0F8A80009490968DC
:10457000884205D20748006803490968C1F8A800C5
:1045800000200449086010BDD8000020DC00002095
:10459000300000206C0000202DE9F04105460E4659
:1045A0001446002727480078002804DD47F27520CC
:1045B0002080BDE8F08124480078002803DD46F61D
:1045C00063502080F5E736B1022E05D0042E0AD0C4
:1045D000082E09D101E000BF00BF1DB947F27E20BF
:1045E0002080E6E704E003E045F625602080E0E770
:1045F00000BF00BF00BFFBF7E7FD074600BF00BFDD
:104600002346324629461148006801F055FA2088B1
:1046100038B100BF00BF3846FBF7DAFD00BF00BF6E
:10462000C7E70A48006800F063FC00BF00BF3846D7
:10463000FBF7CEFD00BF00BFFEF738FF0020208053
:1046400000BFB6E73C00002070000020D80000202A
:1046500008B500F01FF86A4600210A48FFF738FD48
:1046600009480068401E084908600846006838B9D3
:104670000648006808606A4600210548FFF728FDE3
:1046800008BD000058160020D4000020D0000020F3
:104690003C17002010B50348006810B101480068BD
:1046A000804710BD34000020244A2549254A264A67
:1046B0002649274A2748284A284A294A294A2A486F
:1046C0002A482B4A2B482C4A2C482D4A2D482E4844
:1046D0002E482F482F4A304A304A3148314A324A10
:1046E0003248334833483448344835483548364AE8
:1046F000364A374A374A384838483948394A3A4AB0
:104700003A4A3B483B483C483C493D483D4A3E4A82
:104710003E4A3F4A3F4A404A404A4148414A424A4B
:1047200042484348434A444A4448454A454A464821
:10473000464800BF00BF00BF704700009C700008E3
:10474000007200089D7000089E700008A0700008AC
:10475000A4700008A8700008A5700008D0700008B8
:10476000D1700008D2700008D4700008D67000081C
:10477000DA700008DC700008FC700008FE700008A9
:104780000071000802710008047100080671000839
:10479000087100083471000835710008367100088E
:1047A000387100083A7100083B7100083C7100083C
:1047B0003E71000840710008427100084471000811
:1047C0004671000848710008787100087971000886
:1047D0007A7100087B7100087C7100087E71000806
:1047E00080710008A8710008A9710008AA7100086A
:1047F000AB710008AC710008AE710008B071000820
:10480000B4710008B5710008B6710008B7710008EE
:10481000B8710008B9710008BA710008BB710008CE
:10482000BC710008BE710008BF710008C0710008AB
:10483000C2710008C4710008C5710008C871000881
:10484000F8710008F9710008FA710008FC7100089D
:104850000021034A1160034A118001807047000063
:104860004000002044000020002419E000BF00BFE9
:10487000FBF7AAFC044600BF00BF0A480068401CC2
:104880000849086008480068401C0749086000BFE4
:1048900000BF2046FBF79CFC00BF00BFFEF78CFA70
:1048A000E4E70000380000208000002010B58AB046
:1048B000044600200E4908600B2000210591CDE937
:1048C0000704069108460B4909680B4A12680B4B0E
:1048D0001B68CDE90132CDE903103F200023084ACF
:1048E00008A100900C48FFF74BF90AB010BD00007A
:1048F00038000020107000080C70000808700008D4
:104900006948000875432F4F532D49494920496490
:104910006C65205461736B00DC1100200021034A98
:104920001160034A11800180704700004800002098
:104930004C00002070B501461A4D2D681DB945F296
:104940001E750D8070BD184D2D881DB945F21D7561
:104950000D80F7E7134D28682A681032124D2D8814
:104960006D1EACB2002308E00260002545600581A1
:10497000C560103010325D1CABB2A342F4DB0025E1
:10498000056045600581C560064D2D68074E3560A0
:10499000054D2D88B5800025F58035810D8000BF3F
:1049A000D0E7000048700008407000089412002012
:1049B00010B5014648894B89002B17DD0A680C4B5E
:1049C0001B6813600A4C4B6823602346DB884C89C4
:1049D0001B1B074CE38023469B884C892344044CD3
:1049E000A38000234B818B810B604B6010BD0000C6
:1049F0009412002001810022428182810260426083
:104A00007047000009A1C16100214161084909689E
:104A100011B90021816105E00549096881610449F6
:104A200009684861024908607047000020000000E2
:104A3000500000200021034A1160034A11800180C8
:104A40007047000050000020540000202DE9F04184
:104A500005460C4616461F461548006880F8346027
:104A600000201349096881F835003946104800686C
:104A700000F02AFD6CB104F10808EC60012229461F
:104A80000B48006800F016F82946404600F08EF802
:104A900006E0002006490968C887054909680863D7
:104AA00003480168204600F019F8BDE8F0810000D5
:104AB000D800002010B5C287016300230AE000245B
:104AC0004C600C600C614C610C83CC6188602031BF
:104AD0005C1CA3B29342F2DB10BD000030B548B1BC
:104AE0004568C1F8B45000F10804226893681D6A53
:104AF000C56113E091F83450022D02D0072D08D182
:104B000003E007A5C1F8B45007E007A5C1F8B45009
:104B100003E008A5C1F8B45000BF00BF30BD0000DD
:104B20005461736B205100005461736B2053656DA9
:104B3000000000002000000030B507A5C1F8B45007
:104B400000F1080422681AB193681D6AC56101E08A
:104B500001A5C56130BD0000200000002DE9F04333
:104B600004460F4684F83770256BB4F83E8013E096
:104B7000D5F80C9009F108063089012807D9294693
:104B8000304600F05EF82946304600F00FF8203538
:104B9000A8F101001FFA80F8B8F1000FE8D1BDE8D4
:104BA000F08300210160416001817047F0B58E689B
:104BB00096F8375007893FB90127078100274F60D2
:104BC0000F600160416023E007897F1C0781026854
:104BD00006E0946894F83770AF4200DD02E0526856
:104BE000002AF6D100BF32B900274F6043680B603E
:104BF000596041600CE017682FB9116000270F6001
:104C00004A60016004E013680B604A6059601160FB
:104C1000F0BD2DE9F0410446256BE68F0AE0D5F89A
:104C20000C8008F108072946384600F00AF82035BC
:104C3000701E86B2002EF2DC0020E0872063BDE803
:104C4000F08110B50489012C03D100240460446074
:104C500011E00C6824B94A680024146002600AE07C
:104C60004C6824B90B6800245C60436003E00B6867
:104C70004A685A6013600489641E048100244C60F1
:104C80000C6010BD2DE9F84306460C4617469846C1
:104C9000089D94F8360008285BD2DFE800F0040590
:104CA00008090607323300BF00BF00BF52E000BF53
:104CB00094F83400032807D143463A46214630464B
:104CC000009500F04AF803E02765A4F854802564B5
:104CD00036B12046FFF79DFF21463046FFF72CFFF7
:104CE00094F83600032802D1204600F043FF204606
:104CF00000F0AAF800203434A070607004F8340981
:104D000028E000BF94F83400032807D143463A4610
:104D100021463046009500F020F803E02765A4F80E
:104D20005480256436B12046FFF773FF2146304694
:104D3000FFF702FF94F83600072802D1204600F062
:104D400019FF04203434A0700020607004F8340986
:104D500000E000BF00BFBDE8F883F0B50446059E43
:104D6000086BCD8F0AE0C768A74204D10461426195
:104D70000383C66104E020306F1EBDB2002DF2DC5B
:104D800000BFF0BD70B50025074C03E005F1200021
:104D9000C5B2241D20680028F8D02068FBF71FFA50
:104DA0002844C5B2284670BD14000020002004E04D
:104DB0000021034A42F82010401C0228F8D3704713
:104DC0001400002030B5420900F01F030121C3F197
:104DD0001F04A140034C54F822400C43014D45F8F8
:104DE000224030BD1400002030B5420900F01F03FE
:104DF0000121C3F11F04A140034C54F822408C430D
:104E0000014D45F8224030BD140000200021034A26
:104E10001160034A11800180704700005C0000208F
:104E20006000002000210AE001EB4102054B03EB8A
:104E3000820000220281026042604A1CD1B24029F5
:104E4000F2D37047A012002010B5044694F8370042
:104E5000FFF7B8FF94F8370005490978884203D175
:104E6000204600F027F802E0204600F003F810BDCD
:104E70005600002010B590F8373003EB43030C4C7C
:104E800004EB83010B893BB901230B810023C36031
:104E900003610860486009E00B895B1C0B810B68AB
:104EA000C360002303610A681061086010BD000040
:104EB000A012002010B590F8373003EB43030B4CE1
:104EC00004EB83010B893BB901230B810023C360F1
:104ED00003610860486008E00B895B1C0B810023BC
:104EE000C3604A680261D060486010BDA012002013
:104EF0002DE9F041054695F8370000EB40001249D6
:104F000001EB80042F69EE6887B946B90020208143
:104F10002060606095F83700FFF766FF0EE020899B
:104F2000401E208100203061266007E02089401E5D
:104F30002081FE600EB9676000E0376100202861C3
:104F4000E860BDE8F0810000A012002010B5044820
:104F50000078012803D1FBF7D1FB0249086010BD9E
:104F6000700000206400002010B50A48007880B965
:104F7000FBF7C4FB08490968441A08480068A042C6
:104F800001D20648046006480068A04201D20448E5
:104F9000046010BD70000020640000206800002044
:104FA0006C00002009A1C161002141610849096824
:104FB00011B90021816105E0054909688161044951
:104FC000096848610249086070470000200000003D
:104FD000740000200021034A1160034A11800180FF
:104FE0007047000074000020780000202DE9FF5F6A
:104FF0000446884691461D460020019000BF00BF30
:10500000FBF7E2F8019000BF00BF04F10807388900
:1050100000284FD10420012804D0022814D00428ED
:1050200034D123E0206AFF280DD100BF00BF0198D2
:10503000FBF7CEF800BF00BF46F6C5502880002021
:1050400004B0BDE8F09F22E04FF6FF71206A88426D
:105050000BD100BF00BF0198FBF7BAF800BF00BF3B
:1050600046F6C55028800020EAE710E0206A401C80
:1050700058B900BF00BF0198FBF7AAF800BF00BFF6
:1050800046F6C55028800020DAE700E000BF00BFE8
:10509000206A401C2062D4F820A0C4F8249000BFED
:1050A00000BF0198FBF794F800BF00BF00202880E4
:1050B0005046C5E708F4007008B13E8900E00126BB
:1050C000D7F800B011E0DBF808000290DBF804002C
:1050D000039000231A46CDF8009020460299FFF76E
:1050E000D1FDDDF80CB0701E86B2002EEBD1D4F8E5
:1050F00020A000BF00BF0198FBF76AF800BF00BF07
:1051000008F4004008B9FEF7D1F900202880504685
:1051100096E7000086B00020009006E0A8490968E4
:10512000480001AA0021FFF737FAA64800780128B5
:10513000F4D101A8FEF70EFC0027A3480068A0499F
:105140000968884205D9A04800689D490968B0FBF4
:10515000F1F727B99C4800680A21B0FBF1F72EE16E
:10516000FBF7CCFA804600BF00BFFBF72DF800909C
:1051700000BF00BF9548006895490860002093492A
:10518000086000BF00BF0098FBF722F800BF00BF17
:10519000904800688E490968884248D98D4800685F
:1051A0008D49884205D242F210700390012002908E
:1051B00023E0884800688949884205D24FF47A7014
:1051C00003900A20029018E08248006884498842CF
:1051D00003D26420039002900FE07E48006881496A
:1051E000884205D20A2003904FF47A70029004E0BE
:1051F0000120039042F210700290764801680298F4
:10520000B1FBF0FA7249039809684843B0FBFAF021
:1052100042F21071081A744908807448008809889D
:10522000884208DA704800887049088003E042F23A
:1052300010706D490880FEF799FC002500BF00BF83
:10524000FAF7C2FF009000BF00BF6948046800BFC2
:1052500000BF0098FAF7BCFF00BF00BF26E000BF08
:1052600000BFFAF7B1FF009000BF00BF54F8900FE5
:105270006060002044F8900900BF00BF0098FAF772
:10528000A7FF00BF00BFD4F89400054400BF00BFD3
:10529000FAF79AFF009000BF00BFD4F8B04000BFFB
:1052A00000BF0098FAF794FF00BF00BF002CD6D1D2
:1052B00045B34948854205D242F2107005904FF03F
:1052C000010B1BE04548854205D24FF47A700590EA
:1052D0004FF00A0B12E04248854203D26420059049
:1052E00083460BE03F48854204D20A2005904FF4E4
:1052F0007A7B03E00120059042F2107BB5FBFBF0C6
:10530000049003E0002005900120049000BF00BF3E
:10531000FAF75AFF009000BF00BF3548046800BF8D
:1053200000BF0098FAF754FF00BF00BF2BE0D4F88D
:105330009400059948430499B0FBF1F086B242F21B
:105340001070864200D90646A4F88060B4F8820046
:10535000B04201DAA4F8826001AB04F1A002111D91
:105360002046FEF7D5FE00BF00BFFAF72DFF0090E4
:1053700000BF00BFD4F8B04000BF00BF0098FAF7EC
:1053800027FF00BF00BF002CD1D11A4800780128A8
:1053900005D100201749087001A8FEF7DBFAFBF7DA
:1053A000ADF9A0EB080914480068484502D212483C
:1053B000C0F8009001AA00213846FFF7EDF8CFE6CB
:1053C000507000088C0000206870000880000020E9
:1053D0008800002084000020801A060000093D009B
:1053E000005A62020084D7177C0000207E00002053
:1053F000980000207A0000209000002010B58AB0AC
:10540000044600201F4908601F4908601F490860C2
:105410001F4908701F4908701F48006820B946F6E8
:105420002B6020800AB010BD1C4800681C49096828
:10543000884203D246F62C602080F3E719480078B2
:105440003F2803D346F62A602080EBE703200021A3
:105450000591CDE907040691084610490968124AEA
:1054600012680D4B1B68CDE90132CDE903100D48E0
:10547000007800230D4A0EA100901248FEF780FB31
:1054800000BFCFE7800000208800002084000020BB
:105490008C0000207A000020547000085C70000826
:1054A000647000084C70000858700008155100081E
:1054B00075432F4F532D494949205374617420542B
:1054C00061736B00A015002070B504460D4645B110
:1054D0002A462146064800F0ABFA032084F836003D
:1054E00002E0022084F836002046FFF701FD70BD7F
:1054F000B00000200021C0F8AC100949096819B9B2
:105500000021C0F8B01007E005490968C0F8B010E4
:1055100003490968C1F8AC00014908607047000000
:1055200098000020D0F8AC20D0F8B0104AB90D4B4C
:10553000196011B10023C1F8AC300023C0F8B030BD
:105540000FE029B90023C2F8B030C0F8AC3008E051
:10555000C2F8B010C1F8AC200023C0F8B030C0F8D9
:10556000AC307047980000200021044A1160044AC2
:105570001180044A116001807047000098000020EB
:105580009C0000209400002070B50446002020609C
:10559000A0606060E06020616061A061E06124A0C3
:1055A000206200206062A062E06220642065A4F8AE
:1055B0005400002104F15800FFF71CFA0020A066F7
:1055C000E0666067A4F87C00A067002506E0002183
:1055D00004F1700040F82510681CC5B2002DF6D00B
:1055E0000020343420616066A066606084F84A0060
:1055F0002067E06620816061A061A4F84C00A4F8F7
:105600004E0020656065FBF779F80646A665002028
:10561000E065606720706070A0704020E07000203E
:10562000A067E06704A0C4F88000343C70BD0000AF
:105630003F5461736B0000002000000070B5044609
:105640000D46002600BF00BFFAF7BEFD064600BFAC
:1056500000BF0020288094F8360008285ED2DFE8DA
:1056600000F0040506071227394B00BF00BF00BF3A
:1056700000BF00BF3046FAF7ABFD00BF00BF47F2E6
:105680005310288055E014F87E0F401E207014F847
:105690007E0928B9002084F836002046FFF7D4FBA5
:1056A00000BF00BF3046FAF793FD00BF00BF40E0E7
:1056B00014F87E0F401E207014F87E0910B90120E6
:1056C00084F8360000BF00BF3046FAF781FD00BF06
:1056D00000BF2EE014F87E0F401E207014F87E09E3
:1056E00010B9022084F8360000BF00BF3046FAF738
:1056F0006FFD00BF00BF1CE014F87E0F401E20703D
:1057000014F87E0910B9032084F8360000BF00BFEA
:105710003046FAF75DFD00BF00BF0AE000BF00BFE2
:105720003046FAF755FD00BF00BF46F62D602880D1
:1057300070BD00BFFDF7BAFE00BFF9E708B5044829
:105740000068FEF7CBFB69460020FEF7F3FA08BDC0
:10575000D80000202DE9F8430446884617461D4628
:105760004FF0000900BF00BFFAF72EFD814600BFD1
:1057700000BF0CB96748046827640020288094F8AB
:105780003600082876D2DFE800F0040550510607FD
:10579000525300BF00BF00BF0420012804D00228DC
:1057A00013D0042833D122E0606CFF280CD100BF55
:1057B00000BF4846FAF70CFD00BF00BF46F6C550D3
:1057C00028800020BDE8F88322E04FF6FF71606C6E
:1057D00088420BD100BF00BF4846FAF7F9FC00BF72
:1057E00000BF46F6C55028800020EBE710E0606C53
:1057F000401C58B900BF00BF4846FAF7E9FC00BF9B
:1058000000BF46F6C55028800020DBE700E000BF5F
:1058100000BF606C401C6064666C00BF00BF4846FF
:10582000FAF7D6FC00BF00BF71E000BF00BF00BFA9
:1058300094F83400072815D100231A46214618464B
:105840000097FFF71FFA666C00BF00BF4846FAF7E3
:10585000BFFC00BF00BF08F4004000284AD1FDF79C
:1058600025FE47E00420012805D0022813D0042893
:1058700033D122E03FE0606CFF280BD100BF00BFB6
:105880004846FAF7A5FC00BF00BF46F6C550288081
:10589000002097E722E04FF6FF71606C88420BD141
:1058A00000BF00BF4846FAF793FC00BF00BF46F6B2
:1058B000C5502880002085E710E0606C401C58B976
:1058C00000BF00BF4846FAF783FC00BF00BF46F6A2
:1058D000C5502880002075E700E000BF00BF606C65
:1058E000401C6064666C00BF00BF4846FAF770FC5D
:1058F00000BF00BF0BE000BF00BF4846FAF768FCDE
:1059000000BF00BF46F62D602880002600BF00BF04
:10591000304657E7D800002070B504460D460026F3
:1059200000BF00BFFAF750FC064600BF00BF0CB92D
:105930003D4804683C48006884420ED13B480078EA
:1059400000280ADD00BF00BF3046FAF741FC00BF67
:1059500000BF46F66350288070BD0020288094F870
:105960003600082850D2DFE800F0041523313F400C
:105970004142042084F83600012084F87E0020464D
:10598000FFF7B6FA00BF00BF3046FAF721FC00BFB0
:1059900000BF44E0052084F83600012084F87E0032
:1059A00000BF00BF3046FAF713FC00BF00BF36E06F
:1059B000062084F83600012084F87E0000BF00BF76
:1059C0003046FAF705FC00BF00BF28E0072084F846
:1059D0003600012084F87E0000BF00BF3046FAF791
:1059E000F7FB00BF00BF1AE000BF00BF00BF94F884
:1059F0007E00401C84F87E0000BF00BF3046FAF7EE
:105A0000E7FB00BF00BF0AE000BF00BF3046FAF767
:105A1000DFFB00BF00BF46F62D6028809CE700BF7B
:105A2000FDF744FD00BF97E7D8000020700000207C
:105A300070B51546066846B98D6400264E618E61C4
:105A4000C86101600126868033E0046802682B4645
:105A500024E0966C9E421DD396696EB98B64002635
:105A60008E614A61C861966CF61A96649161016014
:105A70008688761C86800CE094698B648C614A6110
:105A8000C861966CF61A9664916161618688761C8D
:105A9000868070BD966C9B1B14465269002AD8D133
:105AA0008B648C6100264E61C86161618688761CBA
:105AB000868000BFEDE700002DE9F04104460D4669
:105AC00090461F46B8F1040F0ED1284800682E1AE0
:105AD00016F5803F01D8002E3CD10020A06447F28B
